{
  "contractName": "_InsurengineC",
  "abi": [
    {
      "inputs": [
        {
          "internalType": "address",
          "name": "vHubAddress",
          "type": "address"
        }
      ],
      "stateMutability": "nonpayable",
      "type": "constructor"
    },
    {
      "inputs": [
        {
          "internalType": "uint256",
          "name": "",
          "type": "uint256"
        }
      ],
      "name": "applications",
      "outputs": [
        {
          "internalType": "address",
          "name": "applicant",
          "type": "address"
        },
        {
          "internalType": "string",
          "name": "whatToInsure",
          "type": "string"
        },
        {
          "internalType": "uint256",
          "name": "estimatedCost",
          "type": "uint256"
        },
        {
          "internalType": "uint256",
          "name": "applicationTime",
          "type": "uint256"
        },
        {
          "internalType": "uint256",
          "name": "toApproveCount",
          "type": "uint256"
        },
        {
          "internalType": "uint256",
          "name": "toDenyCount",
          "type": "uint256"
        },
        {
          "internalType": "uint256",
          "name": "finalDecision",
          "type": "uint256"
        },
        {
          "internalType": "string",
          "name": "reasonForDenial",
          "type": "string"
        },
        {
          "internalType": "string",
          "name": "applicationID",
          "type": "string"
        },
        {
          "internalType": "uint256",
          "name": "prequelID",
          "type": "uint256"
        }
      ],
      "stateMutability": "view",
      "type": "function",
      "constant": true
    },
    {
      "inputs": [],
      "name": "hashuranceTokenC",
      "outputs": [
        {
          "internalType": "contract HashuranceTokenC",
          "name": "",
          "type": "address"
        }
      ],
      "stateMutability": "view",
      "type": "function",
      "constant": true
    },
    {
      "inputs": [],
      "name": "networkTypeBSC",
      "outputs": [
        {
          "internalType": "bool",
          "name": "",
          "type": "bool"
        }
      ],
      "stateMutability": "view",
      "type": "function",
      "constant": true
    },
    {
      "inputs": [
        {
          "internalType": "uint256",
          "name": "",
          "type": "uint256"
        }
      ],
      "name": "policyArchieve",
      "outputs": [
        {
          "internalType": "contract PolicyC",
          "name": "",
          "type": "address"
        }
      ],
      "stateMutability": "view",
      "type": "function",
      "constant": true
    },
    {
      "inputs": [],
      "name": "validatorsHub",
      "outputs": [
        {
          "internalType": "contract voteNvalidateC",
          "name": "",
          "type": "address"
        }
      ],
      "stateMutability": "view",
      "type": "function",
      "constant": true
    },
    {
      "inputs": [
        {
          "internalType": "string",
          "name": "applicationID",
          "type": "string"
        }
      ],
      "name": "getAppication",
      "outputs": [
        {
          "components": [
            {
              "internalType": "address",
              "name": "applicant",
              "type": "address"
            },
            {
              "internalType": "string",
              "name": "whatToInsure",
              "type": "string"
            },
            {
              "internalType": "uint256",
              "name": "estimatedCost",
              "type": "uint256"
            },
            {
              "internalType": "uint256",
              "name": "applicationTime",
              "type": "uint256"
            },
            {
              "internalType": "uint256",
              "name": "toApproveCount",
              "type": "uint256"
            },
            {
              "internalType": "uint256",
              "name": "toDenyCount",
              "type": "uint256"
            },
            {
              "internalType": "uint256",
              "name": "finalDecision",
              "type": "uint256"
            },
            {
              "internalType": "string",
              "name": "reasonForDenial",
              "type": "string"
            },
            {
              "internalType": "string",
              "name": "applicationID",
              "type": "string"
            },
            {
              "internalType": "uint256",
              "name": "prequelID",
              "type": "uint256"
            }
          ],
          "internalType": "struct _InsurengineC.ApplicationForm",
          "name": "",
          "type": "tuple"
        }
      ],
      "stateMutability": "view",
      "type": "function",
      "constant": true
    },
    {
      "inputs": [
        {
          "internalType": "address",
          "name": "policyAddress",
          "type": "address"
        },
        {
          "components": [
            {
              "internalType": "uint256",
              "name": "blockNumber",
              "type": "uint256"
            },
            {
              "internalType": "address",
              "name": "from_",
              "type": "address"
            },
            {
              "internalType": "address",
              "name": "to_contract_addr",
              "type": "address"
            },
            {
              "internalType": "address",
              "name": "receiver",
              "type": "address"
            },
            {
              "internalType": "uint256",
              "name": "paymentTime",
              "type": "uint256"
            },
            {
              "internalType": "uint256",
              "name": "value",
              "type": "uint256"
            },
            {
              "internalType": "string",
              "name": "transactionHash",
              "type": "string"
            },
            {
              "internalType": "string",
              "name": "applicationID",
              "type": "string"
            }
          ],
          "internalType": "struct _InsurengineC.receiptTemplate",
          "name": "receipt",
          "type": "tuple"
        },
        {
          "internalType": "uint256",
          "name": "direction",
          "type": "uint256"
        }
      ],
      "name": "submitPremium",
      "outputs": [
        {
          "internalType": "bool",
          "name": "",
          "type": "bool"
        }
      ],
      "stateMutability": "nonpayable",
      "type": "function"
    },
    {
      "inputs": [
        {
          "components": [
            {
              "internalType": "string",
              "name": "insureName",
              "type": "string"
            },
            {
              "internalType": "uint256",
              "name": "estimatedCost",
              "type": "uint256"
            },
            {
              "internalType": "string",
              "name": "applicationID",
              "type": "string"
            },
            {
              "internalType": "uint256",
              "name": "prequelID",
              "type": "uint256"
            },
            {
              "internalType": "string",
              "name": "insurerAddress",
              "type": "string"
            },
            {
              "internalType": "string",
              "name": "initialDeposit",
              "type": "string"
            },
            {
              "internalType": "string",
              "name": "estimatedTenure",
              "type": "string"
            }
          ],
          "internalType": "struct _InsurengineC.inputApplyForm",
          "name": "inputData",
          "type": "tuple"
        },
        {
          "components": [
            {
              "internalType": "uint256",
              "name": "blockNumber",
              "type": "uint256"
            },
            {
              "internalType": "address",
              "name": "from_",
              "type": "address"
            },
            {
              "internalType": "address",
              "name": "to_contract_addr",
              "type": "address"
            },
            {
              "internalType": "address",
              "name": "receiver",
              "type": "address"
            },
            {
              "internalType": "uint256",
              "name": "paymentTime",
              "type": "uint256"
            },
            {
              "internalType": "uint256",
              "name": "value",
              "type": "uint256"
            },
            {
              "internalType": "string",
              "name": "transactionHash",
              "type": "string"
            },
            {
              "internalType": "string",
              "name": "applicationID",
              "type": "string"
            }
          ],
          "internalType": "struct _InsurengineC.receiptTemplate",
          "name": "_receipt",
          "type": "tuple"
        }
      ],
      "name": "applyForInsurance",
      "outputs": [
        {
          "internalType": "bool",
          "name": "",
          "type": "bool"
        }
      ],
      "stateMutability": "nonpayable",
      "type": "function"
    },
    {
      "inputs": [
        {
          "internalType": "string",
          "name": "applicationID",
          "type": "string"
        },
        {
          "internalType": "uint256",
          "name": "decision",
          "type": "uint256"
        },
        {
          "internalType": "string",
          "name": "reason",
          "type": "string"
        }
      ],
      "name": "prepForInspection",
      "outputs": [
        {
          "internalType": "bool",
          "name": "",
          "type": "bool"
        }
      ],
      "stateMutability": "nonpayable",
      "type": "function"
    },
    {
      "inputs": [
        {
          "internalType": "address",
          "name": "policyAddress",
          "type": "address"
        },
        {
          "internalType": "uint256",
          "name": "decision",
          "type": "uint256"
        },
        {
          "internalType": "string",
          "name": "reason",
          "type": "string"
        }
      ],
      "name": "prepForClaimInspection",
      "outputs": [
        {
          "internalType": "bool",
          "name": "",
          "type": "bool"
        }
      ],
      "stateMutability": "nonpayable",
      "type": "function"
    },
    {
      "inputs": [
        {
          "internalType": "string",
          "name": "applicationID",
          "type": "string"
        }
      ],
      "name": "createPolicyC",
      "outputs": [],
      "stateMutability": "nonpayable",
      "type": "function"
    },
    {
      "inputs": [
        {
          "internalType": "address",
          "name": "policyAddress",
          "type": "address"
        }
      ],
      "name": "claimInsurance",
      "outputs": [],
      "stateMutability": "nonpayable",
      "type": "function"
    },
    {
      "inputs": [
        {
          "internalType": "address",
          "name": "policyAddress",
          "type": "address"
        }
      ],
      "name": "withdrawFromPolicy",
      "outputs": [],
      "stateMutability": "nonpayable",
      "type": "function"
    },
    {
      "inputs": [],
      "name": "checkNetwork",
      "outputs": [
        {
          "internalType": "bool",
          "name": "",
          "type": "bool"
        }
      ],
      "stateMutability": "view",
      "type": "function",
      "constant": true
    },
    {
      "inputs": [],
      "name": "getHashTokenName",
      "outputs": [
        {
          "internalType": "string",
          "name": "",
          "type": "string"
        }
      ],
      "stateMutability": "view",
      "type": "function",
      "constant": true
    },
    {
      "inputs": [],
      "name": "getPolicies",
      "outputs": [
        {
          "internalType": "contract PolicyC[]",
          "name": "",
          "type": "address[]"
        }
      ],
      "stateMutability": "view",
      "type": "function",
      "constant": true
    },
    {
      "inputs": [],
      "name": "getPolicy",
      "outputs": [
        {
          "internalType": "contract PolicyC[]",
          "name": "",
          "type": "address[]"
        }
      ],
      "stateMutability": "view",
      "type": "function",
      "constant": true
    },
    {
      "inputs": [],
      "name": "getPoliciesCount",
      "outputs": [
        {
          "internalType": "uint256",
          "name": "",
          "type": "uint256"
        }
      ],
      "stateMutability": "view",
      "type": "function",
      "constant": true
    },
    {
      "inputs": [],
      "name": "getApplications",
      "outputs": [
        {
          "components": [
            {
              "internalType": "address",
              "name": "applicant",
              "type": "address"
            },
            {
              "internalType": "string",
              "name": "whatToInsure",
              "type": "string"
            },
            {
              "internalType": "uint256",
              "name": "estimatedCost",
              "type": "uint256"
            },
            {
              "internalType": "uint256",
              "name": "applicationTime",
              "type": "uint256"
            },
            {
              "internalType": "uint256",
              "name": "toApproveCount",
              "type": "uint256"
            },
            {
              "internalType": "uint256",
              "name": "toDenyCount",
              "type": "uint256"
            },
            {
              "internalType": "uint256",
              "name": "finalDecision",
              "type": "uint256"
            },
            {
              "internalType": "string",
              "name": "reasonForDenial",
              "type": "string"
            },
            {
              "internalType": "string",
              "name": "applicationID",
              "type": "string"
            },
            {
              "internalType": "uint256",
              "name": "prequelID",
              "type": "uint256"
            }
          ],
          "internalType": "struct _InsurengineC.ApplicationForm[]",
          "name": "",
          "type": "tuple[]"
        }
      ],
      "stateMutability": "view",
      "type": "function",
      "constant": true
    }
  ],
  "bytecode": "0x60806040526001600260146101000a81548160ff0219169083151502179055503480156200002c57600080fd5b506040516200860638038062008606833981810160405281019062000052919062000137565b33604051620000619062000112565b6200006d919062000174565b604051809103906000f0801580156200008a573d6000803e3d6000fd5b506000806101000a81548173ffffffffffffffffffffffffffffffffffffffff021916908373ffffffffffffffffffffffffffffffffffffffff16021790555080600260006101000a81548173ffffffffffffffffffffffffffffffffffffffff021916908373ffffffffffffffffffffffffffffffffffffffff16021790555050620001df565b6127758062005e9183390190565b6000815190506200013181620001c5565b92915050565b6000602082840312156200014a57600080fd5b60006200015a8482850162000120565b91505092915050565b6200016e8162000191565b82525050565b60006020820190506200018b600083018462000163565b92915050565b60006200019e82620001a5565b9050919050565b600073ffffffffffffffffffffffffffffffffffffffff82169050919050565b620001d08162000191565b8114620001dc57600080fd5b50565b615ca280620001ef6000396000f3fe60806040523480156200001157600080fd5b50600436106200013c5760003560e01c8063965abf6711620000bd578063dfefadff116200007b578063dfefadff146200033f578063e7d3eb83146200037e578063eebf1f9714620003b4578063f2ea335414620003ea578063f5791f061462000420576200013c565b8063965abf671462000297578063a0345cf114620002b9578063ce1e462614620002db578063d6d6447314620002fd578063dad867fb146200031f576200013c565b806361c5a24f116200010b57806361c5a24f14620001db5780636c2a783114620001fd57806375c44342146200021d578063874132ba14620002535780638af478711462000275576200013c565b80631239c271146200014157806339feb70514620001615780633b04f6f1146200019757806343900e7814620001b9575b600080fd5b6200015f600480360381019062000159919062003313565b62000456565b005b6200017f6004803603810190620001799190620034a1565b620005d6565b6040516200018e919062004111565b60405180910390f35b620001a162000970565b604051620001b0919062003f11565b60405180910390f35b620001c362000a00565b604051620001d2919062003f35565b60405180910390f35b620001e562000cc2565b604051620001f4919062003f59565b60405180910390f35b6200021b6004803603810190620002159190620034a1565b62000cd9565b005b6200023b60048036038101906200023591906200336b565b620013b6565b6040516200024a919062003f59565b60405180910390f35b6200025d620016c7565b6040516200026c919062003f76565b60405180910390f35b6200027f620016eb565b6040516200028e919062003fcd565b60405180910390f35b620002a162001799565b604051620002b0919062004135565b60405180910390f35b620002c3620017ab565b604051620002d2919062003fb0565b60405180910390f35b620002e5620017d1565b604051620002f4919062003f11565b60405180910390f35b6200030762001861565b60405162000316919062003f59565b60405180910390f35b6200033d600480360381019062000337919062003313565b62001874565b005b6200035d60048036038101906200035791906200366b565b62001b27565b604051620003759a9998979695949392919062003dd2565b60405180910390f35b6200039c6004803603810190620003969190620033da565b62001d5c565b604051620003ab919062003f59565b60405180910390f35b620003d26004803603810190620003cc91906200352b565b620020ed565b604051620003e1919062003f59565b60405180910390f35b620004086004803603810190620004029190620035b3565b620027b1565b60405162000417919062003f59565b60405180910390f35b6200043e60048036038101906200043891906200366b565b62002aee565b6040516200044d919062003f93565b60405180910390f35b60008190508073ffffffffffffffffffffffffffffffffffffffff1663168426566040518163ffffffff1660e01b815260040160206040518083038186803b158015620004a257600080fd5b505afa158015620004b7573d6000803e3d6000fd5b505050506040513d601f19601f82011682018060405250810190620004dd91906200333f565b73ffffffffffffffffffffffffffffffffffffffff163373ffffffffffffffffffffffffffffffffffffffff16146200054d576040517f08c379a0000000000000000000000000000000000000000000000000000000008152600401620005449062004089565b60405180910390fd5b8073ffffffffffffffffffffffffffffffffffffffff16634e71d92d6040518163ffffffff1660e01b8152600401602060405180830381600087803b1580156200059657600080fd5b505af1158015620005ab573d6000803e3d6000fd5b505050506040513d601f19601f82011682018060405250810190620005d1919062003475565b505050565b620005e062002c24565b60005b60038054905081101562000969578260405160200162000604919062003cbb565b604051602081830303815290604052805190602001206003828154811062000655577f4e487b7100000000000000000000000000000000000000000000000000000000600052603260045260246000fd5b90600052602060002090600a020160080160405160200162000678919062003cd4565b604051602081830303815290604052805190602001201415620009535760038181548110620006d0577f4e487b7100000000000000000000000000000000000000000000000000000000600052603260045260246000fd5b90600052602060002090600a0201604051806101400160405290816000820160009054906101000a900473ffffffffffffffffffffffffffffffffffffffff1673ffffffffffffffffffffffffffffffffffffffff1673ffffffffffffffffffffffffffffffffffffffff1681526020016001820180546200075290620044ae565b80601f01602080910402602001604051908101604052809291908181526020018280546200078090620044ae565b8015620007d15780601f10620007a557610100808354040283529160200191620007d1565b820191906000526020600020905b815481529060010190602001808311620007b357829003601f168201915b5050505050815260200160028201548152602001600382015481526020016004820154815260200160058201548152602001600682015481526020016007820180546200081e90620044ae565b80601f01602080910402602001604051908101604052809291908181526020018280546200084c90620044ae565b80156200089d5780601f1062000871576101008083540402835291602001916200089d565b820191906000526020600020905b8154815290600101906020018083116200087f57829003601f168201915b50505050508152602001600882018054620008b890620044ae565b80601f0160208091040260200160405190810160405280929190818152602001828054620008e690620044ae565b8015620009375780601f106200090b5761010080835404028352916020019162000937565b820191906000526020600020905b8154815290600101906020018083116200091957829003601f168201915b505050505081526020016009820154815250509150506200096b565b80806200096090620044e4565b915050620005e3565b505b919050565b60606001805480602002602001604051908101604052809291908181526020018280548015620009f657602002820191906000526020600020905b8160009054906101000a900473ffffffffffffffffffffffffffffffffffffffff1673ffffffffffffffffffffffffffffffffffffffff1681526020019060010190808311620009ab575b5050505050905090565b60606003805480602002602001604051908101604052809291908181526020016000905b8282101562000cb957838290600052602060002090600a0201604051806101400160405290816000820160009054906101000a900473ffffffffffffffffffffffffffffffffffffffff1673ffffffffffffffffffffffffffffffffffffffff1673ffffffffffffffffffffffffffffffffffffffff16815260200160018201805462000ab190620044ae565b80601f016020809104026020016040519081016040528092919081815260200182805462000adf90620044ae565b801562000b305780601f1062000b045761010080835404028352916020019162000b30565b820191906000526020600020905b81548152906001019060200180831162000b1257829003601f168201915b50505050508152602001600282015481526020016003820154815260200160048201548152602001600582015481526020016006820154815260200160078201805462000b7d90620044ae565b80601f016020809104026020016040519081016040528092919081815260200182805462000bab90620044ae565b801562000bfc5780601f1062000bd05761010080835404028352916020019162000bfc565b820191906000526020600020905b81548152906001019060200180831162000bde57829003601f168201915b5050505050815260200160088201805462000c1790620044ae565b80601f016020809104026020016040519081016040528092919081815260200182805462000c4590620044ae565b801562000c965780601f1062000c6a5761010080835404028352916020019162000c96565b820191906000526020600020905b81548152906001019060200180831162000c7857829003601f168201915b505050505081526020016009820154815250508152602001906001019062000a24565b50505050905090565b6000600260149054906101000a900460ff16905090565b60005b600380549050811015620013b2578160405160200162000cfd919062003cbb565b604051602081830303815290604052805190602001206003828154811062000d4e577f4e487b7100000000000000000000000000000000000000000000000000000000600052603260045260246000fd5b90600052602060002090600a020160080160405160200162000d71919062003cd4565b6040516020818303038152906040528051906020012014156200139c5760006003828154811062000dcb577f4e487b7100000000000000000000000000000000000000000000000000000000600052603260045260246000fd5b90600052602060002090600a0201604051806101400160405290816000820160009054906101000a900473ffffffffffffffffffffffffffffffffffffffff1673ffffffffffffffffffffffffffffffffffffffff1673ffffffffffffffffffffffffffffffffffffffff16815260200160018201805462000e4d90620044ae565b80601f016020809104026020016040519081016040528092919081815260200182805462000e7b90620044ae565b801562000ecc5780601f1062000ea05761010080835404028352916020019162000ecc565b820191906000526020600020905b81548152906001019060200180831162000eae57829003601f168201915b50505050508152602001600282015481526020016003820154815260200160048201548152602001600582015481526020016006820154815260200160078201805462000f1990620044ae565b80601f016020809104026020016040519081016040528092919081815260200182805462000f4790620044ae565b801562000f985780601f1062000f6c5761010080835404028352916020019162000f98565b820191906000526020600020905b81548152906001019060200180831162000f7a57829003601f168201915b5050505050815260200160088201805462000fb390620044ae565b80601f016020809104026020016040519081016040528092919081815260200182805462000fe190620044ae565b8015620010325780601f10620010065761010080835404028352916020019162001032565b820191906000526020600020905b8154815290600101906020018083116200101457829003601f168201915b505050505081526020016009820154815250509050806000015173ffffffffffffffffffffffffffffffffffffffff163373ffffffffffffffffffffffffffffffffffffffff1614620010bc576040517f08c379a0000000000000000000000000000000000000000000000000000000008152600401620010b390620040ef565b60405180910390fd5b60048160c001511462001106576040517f08c379a0000000000000000000000000000000000000000000000000000000008152600401620010fd90620040ab565b60405180910390fd5b60008060009054906101000a900473ffffffffffffffffffffffffffffffffffffffff1673ffffffffffffffffffffffffffffffffffffffff16633d5b62c4856040518263ffffffff1660e01b815260040162001164919062003fcd565b60006040518083038186803b1580156200117d57600080fd5b505afa15801562001192573d6000803e3d6000fd5b505050506040513d6000823e3d601f19601f82011682018060405250810190620011bd919062003626565b90506000826000015185846020015185604001518560a00151866080015160008054906101000a900473ffffffffffffffffffffffffffffffffffffffff166040516200120a9062002c8d565b6200121c979695949392919062003d47565b604051809103906000f08015801562001239573d6000803e3d6000fd5b5090508073ffffffffffffffffffffffffffffffffffffffff166369d9c0326040518163ffffffff1660e01b8152600401600060405180830381600087803b1580156200128557600080fd5b505af11580156200129a573d6000803e3d6000fd5b505050506001819080600181540180825580915050600190039060005260206000200160009091909190916101000a81548173ffffffffffffffffffffffffffffffffffffffff021916908373ffffffffffffffffffffffffffffffffffffffff16021790555060008054906101000a900473ffffffffffffffffffffffffffffffffffffffff1673ffffffffffffffffffffffffffffffffffffffff1663d69a0efc86838560a001516040518463ffffffff1660e01b8152600401620013649392919062003ff1565b600060405180830381600087803b1580156200137f57600080fd5b505af115801562001394573d6000803e3d6000fd5b505050505050505b8080620013a990620044e4565b91505062000cdc565b5050565b60004283608001818152505060008054906101000a900473ffffffffffffffffffffffffffffffffffffffff1673ffffffffffffffffffffffffffffffffffffffff1663a9059cbb858560a001516040518363ffffffff1660e01b81526004016200142392919062003e97565b602060405180830381600087803b1580156200143e57600080fd5b505af115801562001453573d6000803e3d6000fd5b505050506040513d601f19601f8201168201806040525081019062001479919062003475565b5060008490508073ffffffffffffffffffffffffffffffffffffffff1663343a2e7585608001518660a001516040518363ffffffff1660e01b8152600401620014c4929190620041ee565b600060405180830381600087803b158015620014df57600080fd5b505af1158015620014f4573d6000803e3d6000fd5b505050506003831415620016bb5760008054906101000a900473ffffffffffffffffffffffffffffffffffffffff1673ffffffffffffffffffffffffffffffffffffffff166323b872dd868373ffffffffffffffffffffffffffffffffffffffff1663168426566040518163ffffffff1660e01b815260040160206040518083038186803b1580156200158657600080fd5b505afa1580156200159b573d6000803e3d6000fd5b505050506040513d601f19601f82011682018060405250810190620015c191906200333f565b8473ffffffffffffffffffffffffffffffffffffffff1663af125c8a6040518163ffffffff1660e01b815260040160206040518083038186803b1580156200160857600080fd5b505afa1580156200161d573d6000803e3d6000fd5b505050506040513d601f19601f8201168201806040525081019062001643919062003697565b6040518463ffffffff1660e01b8152600401620016639392919062003d0a565b602060405180830381600087803b1580156200167e57600080fd5b505af115801562001693573d6000803e3d6000fd5b505050506040513d601f19601f82011682018060405250810190620016b9919062003475565b505b60019150509392505050565b60008054906101000a900473ffffffffffffffffffffffffffffffffffffffff1681565b606060008054906101000a900473ffffffffffffffffffffffffffffffffffffffff1673ffffffffffffffffffffffffffffffffffffffff1663862b092b6040518163ffffffff1660e01b815260040160006040518083038186803b1580156200175457600080fd5b505afa15801562001769573d6000803e3d6000fd5b505050506040513d6000823e3d601f19601f82011682018060405250810190620017949190620034e6565b905090565b60008060018054905090508091505090565b600260009054906101000a900473ffffffffffffffffffffffffffffffffffffffff1681565b606060018054806020026020016040519081016040528092919081815260200182805480156200185757602002820191906000526020600020905b8160009054906101000a900473ffffffffffffffffffffffffffffffffffffffff1673ffffffffffffffffffffffffffffffffffffffff16815260200190600101908083116200180c575b5050505050905090565b600260149054906101000a900460ff1681565b60008190508073ffffffffffffffffffffffffffffffffffffffff1663168426566040518163ffffffff1660e01b815260040160206040518083038186803b158015620018c057600080fd5b505afa158015620018d5573d6000803e3d6000fd5b505050506040513d601f19601f82011682018060405250810190620018fb91906200333f565b73ffffffffffffffffffffffffffffffffffffffff163373ffffffffffffffffffffffffffffffffffffffff16146200196b576040517f08c379a00000000000000000000000000000000000000000000000000000000081526004016200196290620040cd565b60405180910390fd5b60008054906101000a900473ffffffffffffffffffffffffffffffffffffffff1673ffffffffffffffffffffffffffffffffffffffff166323b872dd828373ffffffffffffffffffffffffffffffffffffffff1663168426566040518163ffffffff1660e01b815260040160206040518083038186803b158015620019ef57600080fd5b505afa15801562001a04573d6000803e3d6000fd5b505050506040513d601f19601f8201168201806040525081019062001a2a91906200333f565b8473ffffffffffffffffffffffffffffffffffffffff1663af125c8a6040518163ffffffff1660e01b815260040160206040518083038186803b15801562001a7157600080fd5b505afa15801562001a86573d6000803e3d6000fd5b505050506040513d601f19601f8201168201806040525081019062001aac919062003697565b6040518463ffffffff1660e01b815260040162001acc9392919062003d0a565b602060405180830381600087803b15801562001ae757600080fd5b505af115801562001afc573d6000803e3d6000fd5b505050506040513d601f19601f8201168201806040525081019062001b22919062003475565b505050565b6003818154811062001b3857600080fd5b90600052602060002090600a02016000915090508060000160009054906101000a900473ffffffffffffffffffffffffffffffffffffffff169080600101805462001b8390620044ae565b80601f016020809104026020016040519081016040528092919081815260200182805462001bb190620044ae565b801562001c025780601f1062001bd65761010080835404028352916020019162001c02565b820191906000526020600020905b81548152906001019060200180831162001be457829003601f168201915b50505050509080600201549080600301549080600401549080600501549080600601549080600701805462001c3790620044ae565b80601f016020809104026020016040519081016040528092919081815260200182805462001c6590620044ae565b801562001cb65780601f1062001c8a5761010080835404028352916020019162001cb6565b820191906000526020600020905b81548152906001019060200180831162001c9857829003601f168201915b50505050509080600801805462001ccd90620044ae565b80601f016020809104026020016040519081016040528092919081815260200182805462001cfb90620044ae565b801562001d4c5780601f1062001d205761010080835404028352916020019162001d4c565b820191906000526020600020905b81548152906001019060200180831162001d2e57829003601f168201915b505050505090806009015490508a565b6000808490506000600260009054906101000a900473ffffffffffffffffffffffffffffffffffffffff1673ffffffffffffffffffffffffffffffffffffffff16630cef66ce87878573ffffffffffffffffffffffffffffffffffffffff16638080d3076040518163ffffffff1660e01b815260040160206040518083038186803b15801562001deb57600080fd5b505afa15801562001e00573d6000803e3d6000fd5b505050506040513d601f19601f8201168201806040525081019062001e26919062003697565b8673ffffffffffffffffffffffffffffffffffffffff166331b8214d6040518163ffffffff1660e01b815260040160206040518083038186803b15801562001e6d57600080fd5b505afa15801562001e82573d6000803e3d6000fd5b505050506040513d601f19601f8201168201806040525081019062001ea8919062003697565b6040518563ffffffff1660e01b815260040162001ec9949392919062003ec4565b606060405180830381600087803b15801562001ee457600080fd5b505af115801562001ef9573d6000803e3d6000fd5b505050506040513d601f19601f8201168201806040525081019062001f1f919062003449565b90508173ffffffffffffffffffffffffffffffffffffffff16636f9c29c68260006003811062001f78577f4e487b7100000000000000000000000000000000000000000000000000000000600052603260045260246000fd5b60200201518360016003811062001fb8577f4e487b7100000000000000000000000000000000000000000000000000000000600052603260045260246000fd5b60200201518460026003811062001ff8577f4e487b7100000000000000000000000000000000000000000000000000000000600052603260045260246000fd5b60200201516040518463ffffffff1660e01b81526004016200201d939291906200421b565b600060405180830381600087803b1580156200203857600080fd5b505af11580156200204d573d6000803e3d6000fd5b505050508173ffffffffffffffffffffffffffffffffffffffff1663889f59b260008054906101000a900473ffffffffffffffffffffffffffffffffffffffff166040518263ffffffff1660e01b8152600401620020ac919062003ced565b600060405180830381600087803b158015620020c757600080fd5b505af1158015620020dc573d6000803e3d6000fd5b505050506001925050509392505050565b600080600090505b600380549050811015620027a8578460405160200162002116919062003cbb565b604051602081830303815290604052805190602001206003828154811062002167577f4e487b7100000000000000000000000000000000000000000000000000000000600052603260045260246000fd5b90600052602060002090600a02016008016040516020016200218a919062003cd4565b6040516020818303038152906040528051906020012014156200279257600060038281548110620021e4577f4e487b7100000000000000000000000000000000000000000000000000000000600052603260045260246000fd5b90600052602060002090600a0201604051806101400160405290816000820160009054906101000a900473ffffffffffffffffffffffffffffffffffffffff1673ffffffffffffffffffffffffffffffffffffffff1673ffffffffffffffffffffffffffffffffffffffff1681526020016001820180546200226690620044ae565b80601f01602080910402602001604051908101604052809291908181526020018280546200229490620044ae565b8015620022e55780601f10620022b957610100808354040283529160200191620022e5565b820191906000526020600020905b815481529060010190602001808311620022c757829003601f168201915b5050505050815260200160028201548152602001600382015481526020016004820154815260200160058201548152602001600682015481526020016007820180546200233290620044ae565b80601f01602080910402602001604051908101604052809291908181526020018280546200236090620044ae565b8015620023b15780601f106200238557610100808354040283529160200191620023b1565b820191906000526020600020905b8154815290600101906020018083116200239357829003601f168201915b50505050508152602001600882018054620023cc90620044ae565b80601f0160208091040260200160405190810160405280929190818152602001828054620023fa90620044ae565b80156200244b5780601f106200241f576101008083540402835291602001916200244b565b820191906000526020600020905b8154815290600101906020018083116200242d57829003601f168201915b505050505081526020016009820154815250509050838160e001819052506000600260009054906101000a900473ffffffffffffffffffffffffffffffffffffffff1673ffffffffffffffffffffffffffffffffffffffff16637d0e593c888885608001518660a001516040518563ffffffff1660e01b8152600401620024d6949392919062004035565b606060405180830381600087803b158015620024f157600080fd5b505af115801562002506573d6000803e3d6000fd5b505050506040513d601f19601f820116820180604052508101906200252c919062003449565b90508060006003811062002569577f4e487b7100000000000000000000000000000000000000000000000000000000600052603260045260246000fd5b602002015182608001818152505080600160038110620025b2577f4e487b7100000000000000000000000000000000000000000000000000000000600052603260045260246000fd5b60200201518260a001818152505080600260038110620025fb577f4e487b7100000000000000000000000000000000000000000000000000000000600052603260045260246000fd5b60200201518260c001818152505060048260c00151141562002656576040518060400160405280600381526020017f4e2f4100000000000000000000000000000000000000000000000000000000008152508260e001819052505b816003848154811062002692577f4e487b7100000000000000000000000000000000000000000000000000000000600052603260045260246000fd5b90600052602060002090600a020160008201518160000160006101000a81548173ffffffffffffffffffffffffffffffffffffffff021916908373ffffffffffffffffffffffffffffffffffffffff16021790555060208201518160010190805190602001906200270592919062002c9b565b5060408201518160020155606082015181600301556080820151816004015560a0820151816005015560c0820151816006015560e08201518160070190805190602001906200275692919062002c9b565b506101008201518160080190805190602001906200277692919062002c9b565b50610120820151816009015590505060019350505050620027aa565b80806200279f90620044e4565b915050620020f5565b505b9392505050565b6000428260800181815250506000836040015190506000620027d38462002b2e565b905060008054906101000a900473ffffffffffffffffffffffffffffffffffffffff1673ffffffffffffffffffffffffffffffffffffffff1663c279cc20826000015183602001518460400151856060015186608001518760a001518860c001518960e001516040518963ffffffff1660e01b81526004016200285e98979695949392919062004152565b600060405180830381600087803b1580156200287957600080fd5b505af11580156200288e573d6000803e3d6000fd5b5050505060006040518061014001604052803373ffffffffffffffffffffffffffffffffffffffff16815260200187600001518152602001876020015181526020014281526020016000815260200160008152602001600081526020016040518060400160405280600381526020017f4e2f4100000000000000000000000000000000000000000000000000000000008152508152602001876040015181526020018760600151815250905060038190806001815401808255809150506001900390600052602060002090600a020160009091909190915060008201518160000160006101000a81548173ffffffffffffffffffffffffffffffffffffffff021916908373ffffffffffffffffffffffffffffffffffffffff1602179055506020820151816001019080519060200190620029cb92919062002c9b565b5060408201518160020155606082015181600301556080820151816004015560a0820151816005015560c0820151816006015560e082015181600701908051906020019062002a1c92919062002c9b565b5061010082015181600801908051906020019062002a3c92919062002c9b565b5061012082015181600901555050600260009054906101000a900473ffffffffffffffffffffffffffffffffffffffff1673ffffffffffffffffffffffffffffffffffffffff1663dec66ecf338760a001516040518363ffffffff1660e01b815260040162002aad92919062003e97565b600060405180830381600087803b15801562002ac857600080fd5b505af115801562002add573d6000803e3d6000fd5b505050506001935050505092915050565b6001818154811062002aff57600080fd5b906000526020600020016000915054906101000a900473ffffffffffffffffffffffffffffffffffffffff1681565b62002b3862002d2c565b62002b4262002d2c565b8260200151816020019073ffffffffffffffffffffffffffffffffffffffff16908173ffffffffffffffffffffffffffffffffffffffff16815250508260400151816040019073ffffffffffffffffffffffffffffffffffffffff16908173ffffffffffffffffffffffffffffffffffffffff1681525050428160800181815250508260600151816060019073ffffffffffffffffffffffffffffffffffffffff16908173ffffffffffffffffffffffffffffffffffffffff16815250508260a001518160a00181815250508260c001518160c0018190525080915050919050565b604051806101400160405280600073ffffffffffffffffffffffffffffffffffffffff1681526020016060815260200160008152602001600081526020016000815260200160008152602001600081526020016060815260200160608152602001600081525090565b61164e806200461f83390190565b82805462002ca990620044ae565b90600052602060002090601f01602090048101928262002ccd576000855562002d19565b82601f1062002ce857805160ff191683800117855562002d19565b8280016001018555821562002d19579182015b8281111562002d1857825182559160200191906001019062002cfb565b5b50905062002d28919062002db3565b5090565b60405180610100016040528060008152602001600073ffffffffffffffffffffffffffffffffffffffff168152602001600073ffffffffffffffffffffffffffffffffffffffff168152602001600073ffffffffffffffffffffffffffffffffffffffff168152602001600081526020016000815260200160608152602001606081525090565b5b8082111562002dce57600081600090555060010162002db4565b5090565b600062002de962002de3846200428c565b62004258565b9050808285602086028201111562002e0057600080fd5b60005b8581101562002e34578162002e198882620032fc565b84526020840193506020830192505060018101905062002e03565b5050509392505050565b600062002e5562002e4f84620042b5565b62004258565b90508281526020810184848401111562002e6e57600080fd5b62002e7b84828562004469565b509392505050565b600062002e9a62002e9484620042b5565b62004258565b90508281526020810184848401111562002eb357600080fd5b62002ec084828562004478565b509392505050565b60008135905062002ed981620045d0565b92915050565b60008151905062002ef081620045d0565b92915050565b600082601f83011262002f0857600080fd5b600362002f1784828562002dd2565b91505092915050565b60008151905062002f3181620045ea565b92915050565b600082601f83011262002f4957600080fd5b813562002f5b84826020860162002e3e565b91505092915050565b600082601f83011262002f7657600080fd5b815162002f8884826020860162002e83565b91505092915050565b600060e0828403121562002fa457600080fd5b62002fb060e062004258565b9050600082013567ffffffffffffffff81111562002fcd57600080fd5b62002fdb8482850162002f37565b600083015250602062002ff184828501620032e5565b602083015250604082013567ffffffffffffffff8111156200301257600080fd5b620030208482850162002f37565b60408301525060606200303684828501620032e5565b606083015250608082013567ffffffffffffffff8111156200305757600080fd5b620030658482850162002f37565b60808301525060a082013567ffffffffffffffff8111156200308657600080fd5b620030948482850162002f37565b60a08301525060c082013567ffffffffffffffff811115620030b557600080fd5b620030c38482850162002f37565b60c08301525092915050565b60006101008284031215620030e357600080fd5b620030f061010062004258565b905060006200310284828501620032fc565b6000830152506020620031188482850162002edf565b60208301525060406200312e8482850162002edf565b6040830152506060620031448482850162002edf565b60608301525060806200315a84828501620032fc565b60808301525060a06200317084828501620032fc565b60a08301525060c082015167ffffffffffffffff8111156200319157600080fd5b6200319f8482850162002f64565b60c08301525060e082015167ffffffffffffffff811115620031c057600080fd5b620031ce8482850162002f64565b60e08301525092915050565b60006101008284031215620031ee57600080fd5b620031fb61010062004258565b905060006200320d84828501620032e5565b6000830152506020620032238482850162002ec8565b6020830152506040620032398482850162002ec8565b60408301525060606200324f8482850162002ec8565b60608301525060806200326584828501620032e5565b60808301525060a06200327b84828501620032e5565b60a08301525060c082013567ffffffffffffffff8111156200329c57600080fd5b620032aa8482850162002f37565b60c08301525060e082013567ffffffffffffffff811115620032cb57600080fd5b620032d98482850162002f37565b60e08301525092915050565b600081359050620032f68162004604565b92915050565b6000815190506200330d8162004604565b92915050565b6000602082840312156200332657600080fd5b6000620033368482850162002ec8565b91505092915050565b6000602082840312156200335257600080fd5b6000620033628482850162002edf565b91505092915050565b6000806000606084860312156200338157600080fd5b6000620033918682870162002ec8565b935050602084013567ffffffffffffffff811115620033af57600080fd5b620033bd86828701620031da565b9250506040620033d086828701620032e5565b9150509250925092565b600080600060608486031215620033f057600080fd5b6000620034008682870162002ec8565b93505060206200341386828701620032e5565b925050604084013567ffffffffffffffff8111156200343157600080fd5b6200343f8682870162002f37565b9150509250925092565b6000606082840312156200345c57600080fd5b60006200346c8482850162002ef6565b91505092915050565b6000602082840312156200348857600080fd5b6000620034988482850162002f20565b91505092915050565b600060208284031215620034b457600080fd5b600082013567ffffffffffffffff811115620034cf57600080fd5b620034dd8482850162002f37565b91505092915050565b600060208284031215620034f957600080fd5b600082015167ffffffffffffffff8111156200351457600080fd5b620035228482850162002f64565b91505092915050565b6000806000606084860312156200354157600080fd5b600084013567ffffffffffffffff8111156200355c57600080fd5b6200356a8682870162002f37565b93505060206200357d86828701620032e5565b925050604084013567ffffffffffffffff8111156200359b57600080fd5b620035a98682870162002f37565b9150509250925092565b60008060408385031215620035c757600080fd5b600083013567ffffffffffffffff811115620035e257600080fd5b620035f08582860162002f91565b925050602083013567ffffffffffffffff8111156200360e57600080fd5b6200361c85828601620031da565b9150509250929050565b6000602082840312156200363957600080fd5b600082015167ffffffffffffffff8111156200365457600080fd5b6200366284828501620030cf565b91505092915050565b6000602082840312156200367e57600080fd5b60006200368e84828501620032e5565b91505092915050565b600060208284031215620036aa57600080fd5b6000620036ba84828501620032fc565b91505092915050565b6000620036d1838362003822565b60208301905092915050565b6000620036eb838362003aa1565b905092915050565b620036fe81620043a7565b82525050565b6200370f81620043a7565b82525050565b600062003722826200431d565b6200372e818562004358565b93506200373b83620042e8565b8060005b8381101562003772578151620037568882620036c3565b975062003763836200433e565b9250506001810190506200373f565b5085935050505092915050565b60006200378c8262004328565b62003798818562004369565b935083602082028501620037ac85620042f8565b8060005b85811015620037ee5784840389528151620037cc8582620036dd565b9450620037d9836200434b565b925060208a01995050600181019050620037b0565b50829750879550505050505092915050565b6200380b81620043bb565b82525050565b6200381c81620043f1565b82525050565b6200382d8162004419565b82525050565b6200383e8162004419565b82525050565b6200384f8162004441565b82525050565b6000620038628262004333565b6200386e81856200437a565b93506200388081856020860162004478565b6200388b81620045bf565b840191505092915050565b6000620038a38262004333565b620038af81856200438b565b9350620038c181856020860162004478565b620038cc81620045bf565b840191505092915050565b6000620038e48262004333565b620038f081856200439c565b93506200390281856020860162004478565b80840191505092915050565b600081546200391d81620044ae565b6200392981866200439c565b94506001821660008114620039475760018114620039595762003990565b60ff1983168652818601935062003990565b620039648562004308565b60005b83811015620039885781548189015260018201915060208101905062003967565b838801955050505b50505092915050565b6000620039a8600d836200438b565b91507f43616e6e6f7420636c61696d21000000000000000000000000000000000000006000830152602082019050919050565b6000620039ea600c836200438b565b91507f4e6f7420617070726f76656400000000000000000000000000000000000000006000830152602082019050919050565b600062003a2c600b836200438b565b91507f52657374726963746564210000000000000000000000000000000000000000006000830152602082019050919050565b600062003a6e6011836200438b565b91507f4e6f7420746865206170706c6963616e740000000000000000000000000000006000830152602082019050919050565b60006101408301600083015162003abc6000860182620036f3565b506020830151848203602086015262003ad6828262003855565b915050604083015162003aed604086018262003c99565b50606083015162003b02606086018262003c99565b50608083015162003b17608086018262003c99565b5060a083015162003b2c60a086018262003c99565b5060c083015162003b4160c086018262003c99565b5060e083015184820360e086015262003b5b828262003855565b91505061010083015184820361010086015262003b79828262003855565b91505061012083015162003b9261012086018262003c99565b508091505092915050565b60006101408301600083015162003bb86000860182620036f3565b506020830151848203602086015262003bd2828262003855565b915050604083015162003be9604086018262003c99565b50606083015162003bfe606086018262003c99565b50608083015162003c13608086018262003c99565b5060a083015162003c2860a086018262003c99565b5060c083015162003c3d60c086018262003c99565b5060e083015184820360e086015262003c57828262003855565b91505061010083015184820361010086015262003c75828262003855565b91505061012083015162003c8e61012086018262003c99565b508091505092915050565b62003ca481620043e7565b82525050565b62003cb581620043e7565b82525050565b600062003cc98284620038d7565b915081905092915050565b600062003ce282846200390e565b915081905092915050565b600060208201905062003d04600083018462003704565b92915050565b600060608201905062003d21600083018662003704565b62003d30602083018562003704565b62003d3f604083018462003caa565b949350505050565b600060e08201905062003d5e600083018a62003704565b818103602083015262003d72818962003896565b9050818103604083015262003d88818862003896565b905062003d99606083018762003caa565b62003da8608083018662003caa565b62003db760a083018562003caa565b62003dc660c083018462003704565b98975050505050505050565b60006101408201905062003dea600083018d62003704565b818103602083015262003dfe818c62003896565b905062003e0f604083018b62003caa565b62003e1e606083018a62003caa565b62003e2d608083018962003caa565b62003e3c60a083018862003caa565b62003e4b60c083018762003caa565b81810360e083015262003e5f818662003896565b905081810361010083015262003e76818562003896565b905062003e8861012083018462003caa565b9b9a5050505050505050505050565b600060408201905062003eae600083018562003704565b62003ebd602083018462003caa565b9392505050565b600060808201905062003edb600083018762003704565b62003eea602083018662003caa565b62003ef9604083018562003caa565b62003f08606083018462003caa565b95945050505050565b6000602082019050818103600083015262003f2d818462003715565b905092915050565b6000602082019050818103600083015262003f5181846200377f565b905092915050565b600060208201905062003f70600083018462003800565b92915050565b600060208201905062003f8d600083018462003811565b92915050565b600060208201905062003faa600083018462003833565b92915050565b600060208201905062003fc7600083018462003844565b92915050565b6000602082019050818103600083015262003fe9818462003896565b905092915050565b600060608201905081810360008301526200400d818662003896565b90506200401e602083018562003704565b6200402d604083018462003caa565b949350505050565b6000608082019050818103600083015262004051818762003896565b905062004062602083018662003caa565b62004071604083018562003caa565b62004080606083018462003caa565b95945050505050565b60006020820190508181036000830152620040a48162003999565b9050919050565b60006020820190508181036000830152620040c681620039db565b9050919050565b60006020820190508181036000830152620040e88162003a1d565b9050919050565b600060208201905081810360008301526200410a8162003a5f565b9050919050565b600060208201905081810360008301526200412d818462003b9d565b905092915050565b60006020820190506200414c600083018462003caa565b92915050565b6000610100820190506200416a600083018b62003caa565b62004179602083018a62003704565b62004188604083018962003704565b62004197606083018862003704565b620041a6608083018762003caa565b620041b560a083018662003caa565b81810360c0830152620041c9818562003896565b905081810360e0830152620041df818462003896565b90509998505050505050505050565b600060408201905062004205600083018562003caa565b62004214602083018462003caa565b9392505050565b600060608201905062004232600083018662003caa565b62004241602083018562003caa565b62004250604083018462003caa565b949350505050565b6000604051905081810181811067ffffffffffffffff8211171562004282576200428162004590565b5b8060405250919050565b600067ffffffffffffffff821115620042aa57620042a962004590565b5b602082029050919050565b600067ffffffffffffffff821115620042d357620042d262004590565b5b601f19601f8301169050602081019050919050565b6000819050602082019050919050565b6000819050602082019050919050565b60008190508160005260206000209050919050565b600081519050919050565b600081519050919050565b600081519050919050565b6000602082019050919050565b6000602082019050919050565b600082825260208201905092915050565b600082825260208201905092915050565b600082825260208201905092915050565b600082825260208201905092915050565b600081905092915050565b6000620043b482620043c7565b9050919050565b60008115159050919050565b600073ffffffffffffffffffffffffffffffffffffffff82169050919050565b6000819050919050565b6000620043fe8262004405565b9050919050565b60006200441282620043c7565b9050919050565b600062004426826200442d565b9050919050565b60006200443a82620043c7565b9050919050565b60006200444e8262004455565b9050919050565b60006200446282620043c7565b9050919050565b82818337600083830152505050565b60005b83811015620044985780820151818401526020810190506200447b565b83811115620044a8576000848401525b50505050565b60006002820490506001821680620044c757607f821691505b60208210811415620044de57620044dd62004561565b5b50919050565b6000620044f182620043e7565b91507fffffffffffffffffffffffffffffffffffffffffffffffffffffffffffffffff82141562004527576200452662004532565b5b600182019050919050565b7f4e487b7100000000000000000000000000000000000000000000000000000000600052601160045260246000fd5b7f4e487b7100000000000000000000000000000000000000000000000000000000600052602260045260246000fd5b7f4e487b7100000000000000000000000000000000000000000000000000000000600052604160045260246000fd5b6000601f19601f8301169050919050565b620045db81620043a7565b8114620045e757600080fd5b50565b620045f581620043bb565b81146200460157600080fd5b50565b6200460f81620043e7565b81146200461b57600080fd5b5056fe60806040523480156200001157600080fd5b506040516200164e3803806200164e8339818101604052810190620000379190620002b0565b86600160006101000a81548173ffffffffffffffffffffffffffffffffffffffff021916908373ffffffffffffffffffffffffffffffffffffffff16021790555085600090805190602001906200009092919062000160565b508460029080519060200190620000a992919062000160565b50426003819055508360048190555082600560008481526020019081526020016000208190555062278d00600354620000e39190620003f6565b600a81905550600683908060018154018082558091505060019003906000526020600020016000909190919091505580600760006101000a81548173ffffffffffffffffffffffffffffffffffffffff021916908373ffffffffffffffffffffffffffffffffffffffff16021790555050505050505050620005be565b8280546200016e90620004c7565b90600052602060002090601f016020900481019282620001925760008555620001de565b82601f10620001ad57805160ff1916838001178555620001de565b82800160010185558215620001de579182015b82811115620001dd578251825591602001919060010190620001c0565b5b509050620001ed9190620001f1565b5090565b5b808211156200020c576000816000905550600101620001f2565b5090565b6000620002276200022184620003c3565b6200038f565b9050828152602081018484840111156200024057600080fd5b6200024d84828562000491565b509392505050565b60008151905062000266816200058a565b92915050565b600082601f8301126200027e57600080fd5b81516200029084826020860162000210565b91505092915050565b600081519050620002aa81620005a4565b92915050565b600080600080600080600060e0888a031215620002cc57600080fd5b6000620002dc8a828b0162000255565b975050602088015167ffffffffffffffff811115620002fa57600080fd5b620003088a828b016200026c565b965050604088015167ffffffffffffffff8111156200032657600080fd5b620003348a828b016200026c565b9550506060620003478a828b0162000299565b94505060806200035a8a828b0162000299565b93505060a06200036d8a828b0162000299565b92505060c0620003808a828b0162000255565b91505092959891949750929550565b6000604051905081810181811067ffffffffffffffff82111715620003b957620003b86200055b565b5b8060405250919050565b600067ffffffffffffffff821115620003e157620003e06200055b565b5b601f19601f8301169050602081019050919050565b6000620004038262000487565b9150620004108362000487565b9250827fffffffffffffffffffffffffffffffffffffffffffffffffffffffffffffffff03821115620004485762000447620004fd565b5b828201905092915050565b6000620004608262000467565b9050919050565b600073ffffffffffffffffffffffffffffffffffffffff82169050919050565b6000819050919050565b60005b83811015620004b157808201518184015260208101905062000494565b83811115620004c1576000848401525b50505050565b60006002820490506001821680620004e057607f821691505b60208210811415620004f757620004f66200052c565b5b50919050565b7f4e487b7100000000000000000000000000000000000000000000000000000000600052601160045260246000fd5b7f4e487b7100000000000000000000000000000000000000000000000000000000600052602260045260246000fd5b7f4e487b7100000000000000000000000000000000000000000000000000000000600052604160045260246000fd5b620005958162000453565b8114620005a157600080fd5b50565b620005af8162000487565b8114620005bb57600080fd5b50565b61108080620005ce6000396000f3fe608060405234801561001057600080fd5b506004361061018e5760003560e01c80638080d307116100de578063a3f82eb811610097578063d474b9ce11610071578063d474b9ce14610443578063d5f92b1b14610461578063de36e39c1461047f578063e5901ea11461049d5761018e565b8063a3f82eb8146103d7578063af125c8a146103f5578063aff06064146104135761018e565b80638080d30714610313578063889f59b2146103315780638efa77461461034d57806390c6b18a1461036b57806393873b481461038957806396fd1b5c146103a75761018e565b80635d5463131161014b578063680418461161012557806368041846146102b157806369d9c032146102cf5780636de84ae9146102d95780636f9c29c6146102f75761018e565b80635d5463131461024557806360a9903414610263578063658bb5e5146102935761018e565b8063168426561461019357806331b8214d146101b1578063343a2e75146101cf57806338271924146101eb5780634e71d92d1461020957806359cbd20714610227575b600080fd5b61019b6104bb565b6040516101a89190610d87565b60405180910390f35b6101b96104e1565b6040516101c69190610e28565b60405180910390f35b6101e960048036038101906101e49190610c56565b6104e7565b005b6101f3610565565b6040516102009190610de6565b60405180910390f35b610211610611565b60405161021e9190610dcb565b60405180910390f35b61022f6106cf565b60405161023c9190610e28565b60405180910390f35b61024d6106d5565b60405161025a9190610e28565b60405180910390f35b61027d60048036038101906102789190610c2d565b6106db565b60405161028a9190610e28565b60405180910390f35b61029b6106ff565b6040516102a89190610de6565b60405180910390f35b6102b961078d565b6040516102c69190610e28565b60405180910390f35b6102d7610793565b005b6102e16107cc565b6040516102ee9190610d87565b60405180910390f35b610311600480360381019061030c9190610c92565b6107f2565b005b61031b610861565b6040516103289190610e28565b60405180910390f35b61034b60048036038101906103469190610bdb565b610867565b005b61035561094b565b6040516103629190610de6565b60405180910390f35b6103736109d9565b6040516103809190610e28565b60405180910390f35b6103916109df565b60405161039e9190610e28565b60405180910390f35b6103c160048036038101906103bc9190610c2d565b6109e9565b6040516103ce9190610e28565b60405180910390f35b6103df610a0d565b6040516103ec9190610d87565b60405180910390f35b6103fd610a37565b60405161040a9190610e28565b60405180910390f35b61042d60048036038101906104289190610c2d565b610a3d565b60405161043a9190610e28565b60405180910390f35b61044b610a55565b6040516104589190610e28565b60405180910390f35b610469610a5b565b6040516104769190610e28565b60405180910390f35b610487610a61565b6040516104949190610e28565b60405180910390f35b6104a5610a6b565b6040516104b29190610de6565b60405180910390f35b600160009054906101000a900473ffffffffffffffffffffffffffffffffffffffff1681565b600e5481565b600160009054906101000a900473ffffffffffffffffffffffffffffffffffffffff1673ffffffffffffffffffffffffffffffffffffffff163373ffffffffffffffffffffffffffffffffffffffff161461054157600080fd5b806005600084815260200190815260200160002081905550610561610793565b5050565b606062278d00600354426105799190610eb5565b11156105bc576040518060400160405280600781526020017f496e76616c696400000000000000000000000000000000000000000000000000815250905061060e565b62278d00600354426105ce9190610eb5565b101561060d576040518060400160405280600581526020017f56616c696400000000000000000000000000000000000000000000000000000081525090505b5b90565b6000600160009054906101000a900473ffffffffffffffffffffffffffffffffffffffff1673ffffffffffffffffffffffffffffffffffffffff163373ffffffffffffffffffffffffffffffffffffffff16146106a3576040517f08c379a000000000000000000000000000000000000000000000000000000000815260040161069a90610e08565b60405180910390fd5b600c42908060018154018082558091505060019003906000526020600020016000909190919091505590565b60095481565b600a5481565b600c81815481106106eb57600080fd5b906000526020600020016000915090505481565b6000805461070c90610f64565b80601f016020809104026020016040519081016040528092919081815260200182805461073890610f64565b80156107855780601f1061075a57610100808354040283529160200191610785565b820191906000526020600020905b81548152906001019060200180831161076857829003601f168201915b505050505081565b600b5481565b600c6008819055506096600981905550600a544211156107ca5762278d00600a60008282546107c29190610e5f565b925050819055505b565b600760009054906101000a900473ffffffffffffffffffffffffffffffffffffffff1681565b6000600c805490501161080457600080fd5b6004600f54141561085c576040518060400160405280600381526020017f4e2f4100000000000000000000000000000000000000000000000000000000008152506010908051906020019061085a929190610af9565b505b505050565b600d5481565b6000600c805490501161087957600080fd5b6000819050600454600680549050116108955760c86009819055505b8073ffffffffffffffffffffffffffffffffffffffff1663095ea7b3600160009054906101000a900473ffffffffffffffffffffffffffffffffffffffff166004546040518363ffffffff1660e01b81526004016108f4929190610da2565b602060405180830381600087803b15801561090e57600080fd5b505af1158015610922573d6000803e3d6000fd5b505050506040513d601f19601f820116820180604052508101906109469190610c04565b505050565b6002805461095890610f64565b80601f016020809104026020016040519081016040528092919081815260200182805461098490610f64565b80156109d15780601f106109a6576101008083540402835291602001916109d1565b820191906000526020600020905b8154815290600101906020018083116109b457829003601f168201915b505050505081565b60035481565b6000600a54905090565b600681815481106109f957600080fd5b906000526020600020016000915090505481565b6000600160009054906101000a900473ffffffffffffffffffffffffffffffffffffffff16905090565b60045481565b60056020528060005260406000206000915090505481565b600f5481565b60085481565b6000600954905090565b60108054610a7890610f64565b80601f0160208091040260200160405190810160405280929190818152602001828054610aa490610f64565b8015610af15780601f10610ac657610100808354040283529160200191610af1565b820191906000526020600020905b815481529060010190602001808311610ad457829003601f168201915b505050505081565b828054610b0590610f64565b90600052602060002090601f016020900481019282610b275760008555610b6e565b82601f10610b4057805160ff1916838001178555610b6e565b82800160010185558215610b6e579182015b82811115610b6d578251825591602001919060010190610b52565b5b509050610b7b9190610b7f565b5090565b5b80821115610b98576000816000905550600101610b80565b5090565b600081359050610bab81611005565b92915050565b600081519050610bc08161101c565b92915050565b600081359050610bd581611033565b92915050565b600060208284031215610bed57600080fd5b6000610bfb84828501610b9c565b91505092915050565b600060208284031215610c1657600080fd5b6000610c2484828501610bb1565b91505092915050565b600060208284031215610c3f57600080fd5b6000610c4d84828501610bc6565b91505092915050565b60008060408385031215610c6957600080fd5b6000610c7785828601610bc6565b9250506020610c8885828601610bc6565b9150509250929050565b600080600060608486031215610ca757600080fd5b6000610cb586828701610bc6565b9350506020610cc686828701610bc6565b9250506040610cd786828701610bc6565b9150509250925092565b610cea81610ee9565b82525050565b610cf981610efb565b82525050565b6000610d0a82610e43565b610d148185610e4e565b9350610d24818560208601610f31565b610d2d81610ff4565b840191505092915050565b6000610d45600e83610e4e565b91507f43616e6e6f7420636c61696d21210000000000000000000000000000000000006000830152602082019050919050565b610d8181610f27565b82525050565b6000602082019050610d9c6000830184610ce1565b92915050565b6000604082019050610db76000830185610ce1565b610dc46020830184610d78565b9392505050565b6000602082019050610de06000830184610cf0565b92915050565b60006020820190508181036000830152610e008184610cff565b905092915050565b60006020820190508181036000830152610e2181610d38565b9050919050565b6000602082019050610e3d6000830184610d78565b92915050565b600081519050919050565b600082825260208201905092915050565b6000610e6a82610f27565b9150610e7583610f27565b9250827fffffffffffffffffffffffffffffffffffffffffffffffffffffffffffffffff03821115610eaa57610ea9610f96565b5b828201905092915050565b6000610ec082610f27565b9150610ecb83610f27565b925082821015610ede57610edd610f96565b5b828203905092915050565b6000610ef482610f07565b9050919050565b60008115159050919050565b600073ffffffffffffffffffffffffffffffffffffffff82169050919050565b6000819050919050565b60005b83811015610f4f578082015181840152602081019050610f34565b83811115610f5e576000848401525b50505050565b60006002820490506001821680610f7c57607f821691505b60208210811415610f9057610f8f610fc5565b5b50919050565b7f4e487b7100000000000000000000000000000000000000000000000000000000600052601160045260246000fd5b7f4e487b7100000000000000000000000000000000000000000000000000000000600052602260045260246000fd5b6000601f19601f8301169050919050565b61100e81610ee9565b811461101957600080fd5b50565b61102581610efb565b811461103057600080fd5b50565b61103c81610f27565b811461104757600080fd5b5056fea26469706673582212206706ed7b4f7872e285b7bf0ab218861c169f923d07f3a71aa9422af6526bdd1a64736f6c63430008000033a2646970667358221220c26942f93f743a9905d6b596373464c9181c4d38ecc3aaf41663e078b928062764736f6c6343000800003360806040526040518060400160405280601081526020017f486173687572616e636520546f6b656e0000000000000000000000000000000081525060019080519060200190620000519291906200019b565b506040518060400160405280600481526020017f4853485400000000000000000000000000000000000000000000000000000000815250600290805190602001906200009f9291906200019b565b506a01bcb13a657b26388000006003556012600560006101000a81548160ff021916908360ff160217905550348015620000d857600080fd5b5060405162002775380380620027758339818101604052810190620000fe919062000262565b806000806101000a81548173ffffffffffffffffffffffffffffffffffffffff021916908373ffffffffffffffffffffffffffffffffffffffff160217905550600354600760008373ffffffffffffffffffffffffffffffffffffffff1673ffffffffffffffffffffffffffffffffffffffff16815260200190815260200160002081905550600060048190555060006006819055505062000341565b828054620001a990620002c2565b90600052602060002090601f016020900481019282620001cd576000855562000219565b82601f10620001e857805160ff191683800117855562000219565b8280016001018555821562000219579182015b8281111562000218578251825591602001919060010190620001fb565b5b5090506200022891906200022c565b5090565b5b80821115620002475760008160009055506001016200022d565b5090565b6000815190506200025c8162000327565b92915050565b6000602082840312156200027557600080fd5b600062000285848285016200024b565b91505092915050565b60006200029b82620002a2565b9050919050565b600073ffffffffffffffffffffffffffffffffffffffff82169050919050565b60006002820490506001821680620002db57607f821691505b60208210811415620002f257620002f1620002f8565b5b50919050565b7f4e487b7100000000000000000000000000000000000000000000000000000000600052602260045260246000fd5b62000332816200028e565b81146200033e57600080fd5b50565b61242480620003516000396000f3fe608060405234801561001057600080fd5b506004361061014d5760003560e01c80635c658165116100c357806395d89b411161007c57806395d89b41146103e7578063a9059cbb14610405578063b8a84cdc14610435578063c279cc2014610453578063d69a0efc1461046f578063dd62ed3e1461048b5761014d565b80635c658165146102f657806363bedff61461032657806370a082311461034457806380721bb914610374578063862b092b146103ab5780639358928b146103c95761014d565b806327e235e31161011557806327e235e31461020c578063313ce5671461023c578063324536eb1461025a57806339fa66c9146102785780633d5b62c4146102a85780635275dadc146102d85761014d565b806302d3bd161461015257806306fdde0314610170578063095ea7b31461018e57806318160ddd146101be57806323b872dd146101dc575b600080fd5b61015a6104bb565b6040516101679190612074565b60405180910390f35b6101786104c1565b6040516101859190612030565b60405180910390f35b6101a860048036038101906101a39190611c69565b61054f565b6040516101b59190612015565b60405180910390f35b6101c6610641565b6040516101d39190612074565b60405180910390f35b6101f660048036038101906101f19190611c1a565b61064b565b6040516102039190612015565b60405180910390f35b61022660048036038101906102219190611bb5565b6109b2565b6040516102339190612074565b60405180910390f35b6102446109ca565b604051610251919061211b565b60405180910390f35b6102626109dd565b60405161026f9190612074565b60405180910390f35b610292600480360381019061028d9190611ca5565b6109e3565b60405161029f9190612052565b60405180910390f35b6102c260048036038101906102bd9190611ca5565b610c60565b6040516102cf9190612052565b60405180910390f35b6102e0610edd565b6040516102ed9190611ffa565b60405180910390f35b610310600480360381019061030b9190611bde565b610f01565b60405161031d9190612074565b60405180910390f35b61032e610f26565b60405161033b9190612074565b60405180910390f35b61035e60048036038101906103599190611bb5565b610f2c565b60405161036b9190612074565b60405180910390f35b61038e60048036038101906103899190611ca5565b610f75565b6040516103a298979695949392919061208f565b60405180910390f35b6103b3611143565b6040516103c09190612030565b60405180910390f35b6103d161122d565b6040516103de9190612074565b60405180910390f35b6103ef611237565b6040516103fc9190612030565b60405180910390f35b61041f600480360381019061041a9190611c69565b6112c5565b60405161042c9190612015565b60405180910390f35b61043d611548565b60405161044a9190612074565b60405180910390f35b61046d60048036038101906104689190611d4d565b611552565b005b61048960048036038101906104849190611ce6565b6118bc565b005b6104a560048036038101906104a09190611bde565b611972565b6040516104b29190612074565b60405180910390f35b60045481565b600180546104ce906122f0565b80601f01602080910402602001604051908101604052809291908181526020018280546104fa906122f0565b80156105475780601f1061051c57610100808354040283529160200191610547565b820191906000526020600020905b81548152906001019060200180831161052a57829003601f168201915b505050505081565b600081600860003373ffffffffffffffffffffffffffffffffffffffff1673ffffffffffffffffffffffffffffffffffffffff16815260200190815260200160002060008573ffffffffffffffffffffffffffffffffffffffff1673ffffffffffffffffffffffffffffffffffffffff168152602001908152602001600020819055508273ffffffffffffffffffffffffffffffffffffffff163373ffffffffffffffffffffffffffffffffffffffff167f8c5be1e5ebec7d5bd14f71427d1e84f3dd0314c0f7b2291e5b200ac8c7c3b9258460405161062f9190612074565b60405180910390a36001905092915050565b6000600354905090565b6000600760008573ffffffffffffffffffffffffffffffffffffffff1673ffffffffffffffffffffffffffffffffffffffff1681526020019081526020016000205482111561069957600080fd5b600860008573ffffffffffffffffffffffffffffffffffffffff1673ffffffffffffffffffffffffffffffffffffffff16815260200190815260200160002060003373ffffffffffffffffffffffffffffffffffffffff1673ffffffffffffffffffffffffffffffffffffffff1681526020019081526020016000205482111561072257600080fd5b81600760008673ffffffffffffffffffffffffffffffffffffffff1673ffffffffffffffffffffffffffffffffffffffff16815260200190815260200160002060008282546107719190612225565b9250508190555081600760008573ffffffffffffffffffffffffffffffffffffffff1673ffffffffffffffffffffffffffffffffffffffff16815260200190815260200160002060008282546107c791906121cf565b9250508190555081600860008673ffffffffffffffffffffffffffffffffffffffff1673ffffffffffffffffffffffffffffffffffffffff16815260200190815260200160002060003373ffffffffffffffffffffffffffffffffffffffff1673ffffffffffffffffffffffffffffffffffffffff168152602001908152602001600020600082825461085a9190612225565b9250508190555060008054906101000a900473ffffffffffffffffffffffffffffffffffffffff1673ffffffffffffffffffffffffffffffffffffffff168473ffffffffffffffffffffffffffffffffffffffff1614156108d35781600460008282546108c791906121cf565b92505081905550610942565b60008054906101000a900473ffffffffffffffffffffffffffffffffffffffff1673ffffffffffffffffffffffffffffffffffffffff168373ffffffffffffffffffffffffffffffffffffffff1614156109415781600460008282546109399190612225565b925050819055505b5b8273ffffffffffffffffffffffffffffffffffffffff168473ffffffffffffffffffffffffffffffffffffffff167fddf252ad1be2c89b69c2b068fc378daa952ba7f163c4a11628f55a4df523b3ef8460405161099f9190612074565b60405180910390a3600190509392505050565b60076020528060005260406000206000915090505481565b600560009054906101000a900460ff1681565b60035481565b6109eb6119f9565b6009826040516109fb9190611fe3565b908152602001604051809103902060405180610100016040529081600082015481526020016001820160009054906101000a900473ffffffffffffffffffffffffffffffffffffffff1673ffffffffffffffffffffffffffffffffffffffff1673ffffffffffffffffffffffffffffffffffffffff1681526020016002820160009054906101000a900473ffffffffffffffffffffffffffffffffffffffff1673ffffffffffffffffffffffffffffffffffffffff1673ffffffffffffffffffffffffffffffffffffffff1681526020016003820160009054906101000a900473ffffffffffffffffffffffffffffffffffffffff1673ffffffffffffffffffffffffffffffffffffffff1673ffffffffffffffffffffffffffffffffffffffff1681526020016004820154815260200160058201548152602001600682018054610b45906122f0565b80601f0160208091040260200160405190810160405280929190818152602001828054610b71906122f0565b8015610bbe5780601f10610b9357610100808354040283529160200191610bbe565b820191906000526020600020905b815481529060010190602001808311610ba157829003601f168201915b50505050508152602001600782018054610bd7906122f0565b80601f0160208091040260200160405190810160405280929190818152602001828054610c03906122f0565b8015610c505780601f10610c2557610100808354040283529160200191610c50565b820191906000526020600020905b815481529060010190602001808311610c3357829003601f168201915b5050505050815250509050919050565b610c686119f9565b600982604051610c789190611fe3565b908152602001604051809103902060405180610100016040529081600082015481526020016001820160009054906101000a900473ffffffffffffffffffffffffffffffffffffffff1673ffffffffffffffffffffffffffffffffffffffff1673ffffffffffffffffffffffffffffffffffffffff1681526020016002820160009054906101000a900473ffffffffffffffffffffffffffffffffffffffff1673ffffffffffffffffffffffffffffffffffffffff1673ffffffffffffffffffffffffffffffffffffffff1681526020016003820160009054906101000a900473ffffffffffffffffffffffffffffffffffffffff1673ffffffffffffffffffffffffffffffffffffffff1673ffffffffffffffffffffffffffffffffffffffff1681526020016004820154815260200160058201548152602001600682018054610dc2906122f0565b80601f0160208091040260200160405190810160405280929190818152602001828054610dee906122f0565b8015610e3b5780601f10610e1057610100808354040283529160200191610e3b565b820191906000526020600020905b815481529060010190602001808311610e1e57829003601f168201915b50505050508152602001600782018054610e54906122f0565b80601f0160208091040260200160405190810160405280929190818152602001828054610e80906122f0565b8015610ecd5780601f10610ea257610100808354040283529160200191610ecd565b820191906000526020600020905b815481529060010190602001808311610eb057829003601f168201915b5050505050815250509050919050565b60008054906101000a900473ffffffffffffffffffffffffffffffffffffffff1681565b6008602052816000526040600020602052806000526040600020600091509150505481565b60065481565b6000600760008373ffffffffffffffffffffffffffffffffffffffff1673ffffffffffffffffffffffffffffffffffffffff168152602001908152602001600020549050919050565b6009818051602081018201805184825260208301602085012081835280955050505050506000915090508060000154908060010160009054906101000a900473ffffffffffffffffffffffffffffffffffffffff16908060020160009054906101000a900473ffffffffffffffffffffffffffffffffffffffff16908060030160009054906101000a900473ffffffffffffffffffffffffffffffffffffffff1690806004015490806005015490806006018054611032906122f0565b80601f016020809104026020016040519081016040528092919081815260200182805461105e906122f0565b80156110ab5780601f10611080576101008083540402835291602001916110ab565b820191906000526020600020905b81548152906001019060200180831161108e57829003601f168201915b5050505050908060070180546110c0906122f0565b80601f01602080910402602001604051908101604052809291908181526020018280546110ec906122f0565b80156111395780601f1061110e57610100808354040283529160200191611139565b820191906000526020600020905b81548152906001019060200180831161111c57829003601f168201915b5050505050905088565b606060008054906101000a900473ffffffffffffffffffffffffffffffffffffffff1673ffffffffffffffffffffffffffffffffffffffff163373ffffffffffffffffffffffffffffffffffffffff161461119d57600080fd5b600180546111aa906122f0565b80601f01602080910402602001604051908101604052809291908181526020018280546111d6906122f0565b80156112235780601f106111f857610100808354040283529160200191611223565b820191906000526020600020905b81548152906001019060200180831161120657829003601f168201915b5050505050905090565b6000600454905090565b60028054611244906122f0565b80601f0160208091040260200160405190810160405280929190818152602001828054611270906122f0565b80156112bd5780601f10611292576101008083540402835291602001916112bd565b820191906000526020600020905b8154815290600101906020018083116112a057829003601f168201915b505050505081565b60008273ffffffffffffffffffffffffffffffffffffffff163373ffffffffffffffffffffffffffffffffffffffff16141561130057600080fd5b81600760003373ffffffffffffffffffffffffffffffffffffffff1673ffffffffffffffffffffffffffffffffffffffff16815260200190815260200160002054101561134c57600080fd5b81600760003373ffffffffffffffffffffffffffffffffffffffff1673ffffffffffffffffffffffffffffffffffffffff168152602001908152602001600020600082825461139b9190612225565b9250508190555081600760008573ffffffffffffffffffffffffffffffffffffffff1673ffffffffffffffffffffffffffffffffffffffff16815260200190815260200160002060008282546113f191906121cf565b9250508190555060008054906101000a900473ffffffffffffffffffffffffffffffffffffffff1673ffffffffffffffffffffffffffffffffffffffff163373ffffffffffffffffffffffffffffffffffffffff16141561146a57816004600082825461145e91906121cf565b925050819055506114d9565b60008054906101000a900473ffffffffffffffffffffffffffffffffffffffff1673ffffffffffffffffffffffffffffffffffffffff168373ffffffffffffffffffffffffffffffffffffffff1614156114d85781600460008282546114d09190612225565b925050819055505b5b8273ffffffffffffffffffffffffffffffffffffffff163373ffffffffffffffffffffffffffffffffffffffff167fddf252ad1be2c89b69c2b068fc378daa952ba7f163c4a11628f55a4df523b3ef846040516115369190612074565b60405180910390a36001905092915050565b6000600654905090565b6000819050600084905080600760008060009054906101000a900473ffffffffffffffffffffffffffffffffffffffff1673ffffffffffffffffffffffffffffffffffffffff1673ffffffffffffffffffffffffffffffffffffffff1681526020019081526020016000205410156115c957600080fd5b60006040518061010001604052808c81526020018b73ffffffffffffffffffffffffffffffffffffffff1681526020018a73ffffffffffffffffffffffffffffffffffffffff1681526020018973ffffffffffffffffffffffffffffffffffffffff1681526020018881526020018781526020018681526020018581525090508060098460405161165a9190611fe3565b90815260200160405180910390206000820151816000015560208201518160010160006101000a81548173ffffffffffffffffffffffffffffffffffffffff021916908373ffffffffffffffffffffffffffffffffffffffff16021790555060408201518160020160006101000a81548173ffffffffffffffffffffffffffffffffffffffff021916908373ffffffffffffffffffffffffffffffffffffffff16021790555060608201518160030160006101000a81548173ffffffffffffffffffffffffffffffffffffffff021916908373ffffffffffffffffffffffffffffffffffffffff1602179055506080820151816004015560a0820151816005015560c0820151816006019080519060200190611777929190611a80565b5060e0820151816007019080519060200190611794929190611a80565b5090505085600660008282546117aa91906121cf565b9250508190555085600760008060009054906101000a900473ffffffffffffffffffffffffffffffffffffffff1673ffffffffffffffffffffffffffffffffffffffff1673ffffffffffffffffffffffffffffffffffffffff16815260200190815260200160002060008282546118219190612225565b92505081905550856004600082825461183a91906121cf565b9250508190555060008054906101000a900473ffffffffffffffffffffffffffffffffffffffff1673ffffffffffffffffffffffffffffffffffffffff167f6102287f605478258a2642398d5267cdbd022f0e4d3b21339d8c9a3f541a4f31876040516118a79190612074565b60405180910390a25050505050505050505050565b80600654116118ca57600080fd5b60006009846040516118dc9190611fe3565b908152602001604051809103902060010160009054906101000a900473ffffffffffffffffffffffffffffffffffffffff1690503373ffffffffffffffffffffffffffffffffffffffff168173ffffffffffffffffffffffffffffffffffffffff161461194857600080fd5b816006600082825461195a9190612225565b9250508190555061196b83836112c5565b5050505050565b6000600860008473ffffffffffffffffffffffffffffffffffffffff1673ffffffffffffffffffffffffffffffffffffffff16815260200190815260200160002060008373ffffffffffffffffffffffffffffffffffffffff1673ffffffffffffffffffffffffffffffffffffffff16815260200190815260200160002054905092915050565b60405180610100016040528060008152602001600073ffffffffffffffffffffffffffffffffffffffff168152602001600073ffffffffffffffffffffffffffffffffffffffff168152602001600073ffffffffffffffffffffffffffffffffffffffff168152602001600081526020016000815260200160608152602001606081525090565b828054611a8c906122f0565b90600052602060002090601f016020900481019282611aae5760008555611af5565b82601f10611ac757805160ff1916838001178555611af5565b82800160010185558215611af5579182015b82811115611af4578251825591602001919060010190611ad9565b5b509050611b029190611b06565b5090565b5b80821115611b1f576000816000905550600101611b07565b5090565b6000611b36611b3184612167565b612136565b905082815260208101848484011115611b4e57600080fd5b611b598482856122ae565b509392505050565b600081359050611b70816123c0565b92915050565b600082601f830112611b8757600080fd5b8135611b97848260208601611b23565b91505092915050565b600081359050611baf816123d7565b92915050565b600060208284031215611bc757600080fd5b6000611bd584828501611b61565b91505092915050565b60008060408385031215611bf157600080fd5b6000611bff85828601611b61565b9250506020611c1085828601611b61565b9150509250929050565b600080600060608486031215611c2f57600080fd5b6000611c3d86828701611b61565b9350506020611c4e86828701611b61565b9250506040611c5f86828701611ba0565b9150509250925092565b60008060408385031215611c7c57600080fd5b6000611c8a85828601611b61565b9250506020611c9b85828601611ba0565b9150509250929050565b600060208284031215611cb757600080fd5b600082013567ffffffffffffffff811115611cd157600080fd5b611cdd84828501611b76565b91505092915050565b600080600060608486031215611cfb57600080fd5b600084013567ffffffffffffffff811115611d1557600080fd5b611d2186828701611b76565b9350506020611d3286828701611b61565b9250506040611d4386828701611ba0565b9150509250925092565b600080600080600080600080610100898b031215611d6a57600080fd5b6000611d788b828c01611ba0565b9850506020611d898b828c01611b61565b9750506040611d9a8b828c01611b61565b9650506060611dab8b828c01611b61565b9550506080611dbc8b828c01611ba0565b94505060a0611dcd8b828c01611ba0565b93505060c089013567ffffffffffffffff811115611dea57600080fd5b611df68b828c01611b76565b92505060e089013567ffffffffffffffff811115611e1357600080fd5b611e1f8b828c01611b76565b9150509295985092959890939650565b611e3881612259565b82525050565b611e4781612259565b82525050565b611e568161226b565b82525050565b6000611e6782612197565b611e7181856121a2565b9350611e818185602086016122bd565b611e8a816123af565b840191505092915050565b6000611ea082612197565b611eaa81856121b3565b9350611eba8185602086016122bd565b611ec3816123af565b840191505092915050565b6000611ed982612197565b611ee381856121c4565b9350611ef38185602086016122bd565b80840191505092915050565b600061010083016000830151611f186000860182611fb6565b506020830151611f2b6020860182611e2f565b506040830151611f3e6040860182611e2f565b506060830151611f516060860182611e2f565b506080830151611f646080860182611fb6565b5060a0830151611f7760a0860182611fb6565b5060c083015184820360c0860152611f8f8282611e5c565b91505060e083015184820360e0860152611fa98282611e5c565b9150508091505092915050565b611fbf81612297565b82525050565b611fce81612297565b82525050565b611fdd816122a1565b82525050565b6000611fef8284611ece565b915081905092915050565b600060208201905061200f6000830184611e3e565b92915050565b600060208201905061202a6000830184611e4d565b92915050565b6000602082019050818103600083015261204a8184611e95565b905092915050565b6000602082019050818103600083015261206c8184611eff565b905092915050565b60006020820190506120896000830184611fc5565b92915050565b6000610100820190506120a5600083018b611fc5565b6120b2602083018a611e3e565b6120bf6040830189611e3e565b6120cc6060830188611e3e565b6120d96080830187611fc5565b6120e660a0830186611fc5565b81810360c08301526120f88185611e95565b905081810360e083015261210c8184611e95565b90509998505050505050505050565b60006020820190506121306000830184611fd4565b92915050565b6000604051905081810181811067ffffffffffffffff8211171561215d5761215c612380565b5b8060405250919050565b600067ffffffffffffffff82111561218257612181612380565b5b601f19601f8301169050602081019050919050565b600081519050919050565b600082825260208201905092915050565b600082825260208201905092915050565b600081905092915050565b60006121da82612297565b91506121e583612297565b9250827fffffffffffffffffffffffffffffffffffffffffffffffffffffffffffffffff0382111561221a57612219612322565b5b828201905092915050565b600061223082612297565b915061223b83612297565b92508282101561224e5761224d612322565b5b828203905092915050565b600061226482612277565b9050919050565b60008115159050919050565b600073ffffffffffffffffffffffffffffffffffffffff82169050919050565b6000819050919050565b600060ff82169050919050565b82818337600083830152505050565b60005b838110156122db5780820151818401526020810190506122c0565b838111156122ea576000848401525b50505050565b6000600282049050600182168061230857607f821691505b6020821081141561231c5761231b612351565b5b50919050565b7f4e487b7100000000000000000000000000000000000000000000000000000000600052601160045260246000fd5b7f4e487b7100000000000000000000000000000000000000000000000000000000600052602260045260246000fd5b7f4e487b7100000000000000000000000000000000000000000000000000000000600052604160045260246000fd5b6000601f19601f8301169050919050565b6123c981612259565b81146123d457600080fd5b50565b6123e081612297565b81146123eb57600080fd5b5056fea2646970667358221220f94af76c984b119862b343a8854fe9d71d760ed8c59b5b0df1fbfac49001bb9a64736f6c63430008000033",
  "immutableReferences": {},
  "source": "pragma solidity ^0.8.0;\nimport \"./_validators_hub.sol\"; \nimport \"./Hashurance_T.sol\";        //Imports Hashurance token\nimport \"./policy_contract.sol\";     //Imports policy contract to create and manage policies.\n\ncontract _InsurengineC{\n     //Hushurance token contract object.\n    HashuranceTokenC public hashuranceTokenC;\n    \n     //Holds the entire policies in the protocol.\n    PolicyC[] public policyArchieve;\n\n     //Validators hub contract object.\n    voteNvalidateC public validatorsHub;\n\n    // to validate if the require network is selected on metamask\n    bool public networkTypeBSC = true;\n\n     \n\n  struct ApplicationForm{\n      address applicant;       //Who is applying to be insured\n      string whatToInsure;     // Will convert to bytes later. //What item do you want to insure.\n      uint estimatedCost;      //What's your personal valuaton of this item.\n      uint applicationTime;    //Time of application.\n      uint toApproveCount;     //Number of validators who approved this application.\n      uint toDenyCount;        //Number of validators who declined this application. \n      uint finalDecision;      //0 = not decided, 2 = Declined, 4 = Approved.\n      string reasonForDenial;  //Possible reasons for a rejection.\n      string applicationID;      //Application Id.\n      uint prequelID;          //Previous application Id if this is a re-application.\n    }\n\n    \n\n  struct receiptTemplate{\n        uint blockNumber;\n        address from_;\n        address to_contract_addr;\n        address receiver;\n        uint paymentTime;\n        uint value;\n        string transactionHash;\n        string applicationID;\n    }\n\n//Stores all insurance applications, before they get approved and transformed to a policy.\n    ApplicationForm[] public applications;\n\n    // struct for input data of form \n     struct inputApplyForm{ \n      string insureName; \n      uint estimatedCost;\n      string applicationID;  \n      uint prequelID;  \n      string insurerAddress;\n      string initialDeposit;\n      string estimatedTenure;\n            \n    }\n\n  constructor(address vHubAddress){\n      hashuranceTokenC = new HashuranceTokenC(msg.sender); //Creates instance of Hashurance token.\n      validatorsHub = voteNvalidateC(vHubAddress);\n      }\n\n  function getAppication(string memory applicationID)public view returns(ApplicationForm memory){\n    //   ApplicationForm memory form = applications[applId];\n    //   return form;\n\n      uint i;\n    \n  for(i = 0; i < applications.length; i++)\n  {\n   \n    if((keccak256(abi.encodePacked((applications[i].applicationID))) == keccak256(abi.encodePacked((applicationID)))))\n    {\n        \n        // ApplicationForm memory form = applications[i];\n      return applications[i];\n    }\n  }\n    \n//   if(i >= arr.length)\n//     return false;\n// }\n\n    }\n\n  function submitPremium(address policyAddress, receiptTemplate memory receipt, uint direction)public returns(bool){\n       //Confirm and process funds.\n       receipt.paymentTime = block.timestamp; //Will later change this to the timestamp returned at the front end.\n       hashuranceTokenC.transfer(policyAddress, receipt.value); //Move HSHT to policy contract.\n       PolicyC destinationPolicy = PolicyC(policyAddress);\n       destinationPolicy.logPremiumHistory(receipt.paymentTime, receipt.value);\n       if(direction == 3){ //True when its time to withdraw.\n           //Transfer principal amount of tokens from policy account to holder's account.\n           hashuranceTokenC.transferFrom(policyAddress, destinationPolicy.policy_Holder(), destinationPolicy.Principal());\n       }\n       return true;\n  }\n\n   //Function to apply for an insurance.\n   // @inputData. prequel should be 0 if its a fresh insurance application.\n//    function applyForInsurance(string memory insuring, uint cost, uint prequel, receiptTemplate memory receipt) public returns(bool){\n  function applyForInsurance(inputApplyForm memory inputData, receiptTemplate memory _receipt) public returns(bool){\n                                                \n       \n       //Confirm and process funds.\n       _receipt.paymentTime = block.timestamp;\n       string memory appID = inputData.applicationID;\n       HashuranceTokenC.receiptTemplate memory _data = reformReceipt(_receipt);\n      hashuranceTokenC.updateDepoPoolEx(_data.blockNumber,\n      _data.from_, _data.to_contract_addr,\n      _data.receiver, _data.paymentTime, _data.value,\n      _data.transactionHash, _data.applicationID);\n       //Submit application after successful transfer\n     // ApplicationForm memory newApplicationForm = ApplicationForm(msg.sender, insuring, cost, block.timestamp, 0, 0, 0, \"N/A\", applications.length, prequel); //Application form filled, with approved variable set to false.\n      ApplicationForm memory newApplicationForm = ApplicationForm(msg.sender, inputData.insureName, inputData.estimatedCost, block.timestamp, 0, 0, 0, \"N/A\", inputData.applicationID, inputData.prequelID); //Application form filled, with approved variable set to false.\n      applications.push(newApplicationForm);\n\n       //Add user to validator's court, since he now has hashurance tokens locked within the contract.\n      validatorsHub.addToCourt(msg.sender, _receipt.value);/////////////////\n      return true;\n    }\n\n    function reformReceipt(receiptTemplate memory _receipt_)private view returns(HashuranceTokenC.receiptTemplate memory){\n      //Transfer BUSD to Hashurance Engine at frontend and wait for a response (transaction hash).\n      //Use the response to create a receipt then call this function.\n\n      //Confirm payment of BUSD from the CALLER of this function (applicant).\n      //Use the response to send (separate and lock) the Hashsurance token equivalent of BUSD that was sent by the applicant.\n    \n    \n      HashuranceTokenC.receiptTemplate memory receipt_toToken;  //Expensive means, but it can work till we find an alternative. \n      receipt_toToken.from_ = _receipt_.from_;\n      receipt_toToken.to_contract_addr = _receipt_.to_contract_addr;\n      receipt_toToken.paymentTime = block.timestamp;\n      receipt_toToken.receiver = _receipt_.receiver;\n      receipt_toToken.value = _receipt_.value;\n      receipt_toToken.transactionHash = _receipt_.transactionHash;\n      return receipt_toToken;\n  }\n\n  function prepForInspection(string memory applicationID, uint decision,\n   string memory reason)public returns(bool){\n      \n    uint i;\n    \n  for(i = 0; i < applications.length; i++)\n  {\n    if((keccak256(abi.encodePacked((applications[i].applicationID))) == keccak256(abi.encodePacked((applicationID)))))\n    {\n      ApplicationForm memory aForm = applications[i];\n      aForm.reasonForDenial = reason; //Save the lastest reason, if its not empty.\n      uint[3] memory returnedValues = validatorsHub.inspect(applicationID,decision, aForm.toApproveCount, aForm.toDenyCount);\n      aForm.toApproveCount = returnedValues[0];\n      aForm.toDenyCount = returnedValues[1];\n      aForm.finalDecision = returnedValues[2];\n      if(aForm.finalDecision == 4){\n           //Clear reasons for denial, entered by validators, if the application was approved.\n          aForm.reasonForDenial = \"N/A\";\n      }\n      applications[i] = aForm;\n      return true;\n    }\n  }\n    \n  \n}\n      \n  \n\n  function prepForClaimInspection(address policyAddress, uint decision, string memory reason)public returns(bool){\n      PolicyC destinationPolicy = PolicyC(policyAddress);\n      uint[3] memory returnedValues = validatorsHub.inspectClaimRequest(\n          policyAddress,\n          decision,\n          destinationPolicy.toApproveCount(),\n          destinationPolicy.toDenyCount());\n      destinationPolicy.enterInspectionResult(returnedValues[0], returnedValues[1], returnedValues[2]);\n      destinationPolicy.prepForWithdrawal(address(hashuranceTokenC));\n      return true;\n  }\n\n  function createPolicyC(string memory applicationID) public{\n      uint i;\n      for(i = 0; i < applications.length; i++)\n  {\n    if((keccak256(abi.encodePacked((applications[i].applicationID))) == keccak256(abi.encodePacked((applicationID)))))\n    {\n        ApplicationForm memory approvedApplication = applications[i]; //Might conme back to this later.\n      require(msg.sender == approvedApplication.applicant, \"Not the applicant\");\n      require(approvedApplication.finalDecision == 4, \"Not approved\");  //If its approved;\n      HashuranceTokenC.receiptTemplate memory _templat = hashuranceTokenC.getReceipts(applicationID);\n      PolicyC policy_ = new PolicyC(\n          approvedApplication.applicant, \n          applicationID, \n          approvedApplication.whatToInsure, \n          approvedApplication.estimatedCost,\n          _templat.value,\n          _templat.paymentTime,\n          address(hashuranceTokenC));\n      policy_.computeVariables();\n      policyArchieve.push(policy_);\n       //Release equivalent HSHT funds, previously minted, to newly created policy contract.\n      hashuranceTokenC.purgeDepoPool(applicationID, address(policy_), _templat.value);\n    }\n  }\n      \n    }\n\n    function claimInsurance(address policyAddress)public{\n        PolicyC destinationPolicy = PolicyC(policyAddress);\n         //Ensures the claimer is the holder of this policy.\n        require(msg.sender == destinationPolicy.policy_Holder(), \"Cannot claim!\");\n        destinationPolicy.claim();\n    }\n\n    function withdrawFromPolicy(address policyAddress)public{\n        PolicyC destinationPolicy = PolicyC(policyAddress);\n         //Ensures the claimer is the holder of this policy.\n        require(msg.sender == destinationPolicy.policy_Holder(), \"Restricted!\");\n        hashuranceTokenC.transferFrom(address(destinationPolicy), destinationPolicy.policy_Holder(), destinationPolicy.Principal());\n    }\n\n     // to check network selected\n    function checkNetwork() external view returns(bool) {\n    return networkTypeBSC;\n  }\n\n    // to get token name\nfunction getHashTokenName() external view returns(string memory) {\n    return hashuranceTokenC.getTokenName();\n      \n  }\n\n  // return all the list of policies\n  function getPolicies() public view returns(PolicyC[] memory) {\n    return policyArchieve;\n  }\n\n// return list of policy for a particular user\n  function getPolicy() public view returns(PolicyC[] memory) {\n    return policyArchieve;\n  }\n\n  // return total count of all policies\n  function getPoliciesCount() public view returns(uint) {\n    uint countPolicy = policyArchieve.length;\n    return countPolicy;\n  }\n\n  function getApplications() public view returns(ApplicationForm[] memory) {\n      return applications;\n  } \n\n\n}",
  "sourcePath": "/Users/temitopealabi/Documents/personal/blockchain_training/videos/web3/CryptoInsurance15_demo/contracts/_Hashurance_engine.sol",
  "compiler": {
    "name": "solc",
    "version": "0.8.0+commit.c7dfd78e.Emscripten.clang"
  },
  "schemaVersion": "3.3.4",
  "updatedAt": "2021-05-04T16:12:01.539Z",
  "networkType": "ethereum",
  "devdoc": {
    "kind": "dev",
    "methods": {},
    "version": 1
  },
  "userdoc": {
    "kind": "user",
    "methods": {},
    "version": 1
  }
}