{
  "contractName": "_InsurengineC",
  "abi": [
    {
      "inputs": [
        {
          "internalType": "address",
          "name": "vHubAddress",
          "type": "address"
        }
      ],
      "stateMutability": "nonpayable",
      "type": "constructor"
    },
    {
      "inputs": [
        {
          "internalType": "uint256",
          "name": "",
          "type": "uint256"
        }
      ],
      "name": "applications",
      "outputs": [
        {
          "internalType": "address",
          "name": "applicant",
          "type": "address"
        },
        {
          "internalType": "string",
          "name": "whatToInsure",
          "type": "string"
        },
        {
          "internalType": "uint256",
          "name": "estimatedCost",
          "type": "uint256"
        },
        {
          "internalType": "uint256",
          "name": "applicationTime",
          "type": "uint256"
        },
        {
          "internalType": "uint256",
          "name": "toApproveCount",
          "type": "uint256"
        },
        {
          "internalType": "uint256",
          "name": "toDenyCount",
          "type": "uint256"
        },
        {
          "internalType": "uint256",
          "name": "finalDecision",
          "type": "uint256"
        },
        {
          "internalType": "string",
          "name": "reasonForDenial",
          "type": "string"
        },
        {
          "internalType": "string",
          "name": "applicationID",
          "type": "string"
        },
        {
          "internalType": "uint256",
          "name": "prequelID",
          "type": "uint256"
        }
      ],
      "stateMutability": "view",
      "type": "function",
      "constant": true
    },
    {
      "inputs": [],
      "name": "hashuranceTokenC",
      "outputs": [
        {
          "internalType": "contract HashuranceTokenC",
          "name": "",
          "type": "address"
        }
      ],
      "stateMutability": "view",
      "type": "function",
      "constant": true
    },
    {
      "inputs": [],
      "name": "networkTypeBSC",
      "outputs": [
        {
          "internalType": "bool",
          "name": "",
          "type": "bool"
        }
      ],
      "stateMutability": "view",
      "type": "function",
      "constant": true
    },
    {
      "inputs": [
        {
          "internalType": "uint256",
          "name": "",
          "type": "uint256"
        }
      ],
      "name": "policyArchieve",
      "outputs": [
        {
          "internalType": "contract PolicyC",
          "name": "",
          "type": "address"
        }
      ],
      "stateMutability": "view",
      "type": "function",
      "constant": true
    },
    {
      "inputs": [],
      "name": "validatorsHub",
      "outputs": [
        {
          "internalType": "contract voteNvalidateC",
          "name": "",
          "type": "address"
        }
      ],
      "stateMutability": "view",
      "type": "function",
      "constant": true
    },
    {
      "inputs": [
        {
          "internalType": "string",
          "name": "applicationID",
          "type": "string"
        }
      ],
      "name": "getAppication",
      "outputs": [
        {
          "components": [
            {
              "internalType": "address",
              "name": "applicant",
              "type": "address"
            },
            {
              "internalType": "string",
              "name": "whatToInsure",
              "type": "string"
            },
            {
              "internalType": "uint256",
              "name": "estimatedCost",
              "type": "uint256"
            },
            {
              "internalType": "uint256",
              "name": "applicationTime",
              "type": "uint256"
            },
            {
              "internalType": "uint256",
              "name": "toApproveCount",
              "type": "uint256"
            },
            {
              "internalType": "uint256",
              "name": "toDenyCount",
              "type": "uint256"
            },
            {
              "internalType": "uint256",
              "name": "finalDecision",
              "type": "uint256"
            },
            {
              "internalType": "string",
              "name": "reasonForDenial",
              "type": "string"
            },
            {
              "internalType": "string",
              "name": "applicationID",
              "type": "string"
            },
            {
              "internalType": "uint256",
              "name": "prequelID",
              "type": "uint256"
            }
          ],
          "internalType": "struct _InsurengineC.ApplicationForm",
          "name": "",
          "type": "tuple"
        }
      ],
      "stateMutability": "view",
      "type": "function",
      "constant": true
    },
    {
      "inputs": [
        {
          "internalType": "address",
          "name": "policyAddress",
          "type": "address"
        },
        {
          "components": [
            {
              "internalType": "uint256",
              "name": "blockNumber",
              "type": "uint256"
            },
            {
              "internalType": "address",
              "name": "from_",
              "type": "address"
            },
            {
              "internalType": "address",
              "name": "to_contract_addr",
              "type": "address"
            },
            {
              "internalType": "address",
              "name": "receiver",
              "type": "address"
            },
            {
              "internalType": "uint256",
              "name": "paymentTime",
              "type": "uint256"
            },
            {
              "internalType": "uint256",
              "name": "value",
              "type": "uint256"
            },
            {
              "internalType": "string",
              "name": "transactionHash",
              "type": "string"
            },
            {
              "internalType": "string",
              "name": "applicationID",
              "type": "string"
            }
          ],
          "internalType": "struct _InsurengineC.receiptTest",
          "name": "receipt",
          "type": "tuple"
        },
        {
          "internalType": "uint256",
          "name": "direction",
          "type": "uint256"
        }
      ],
      "name": "submitPremium",
      "outputs": [
        {
          "internalType": "bool",
          "name": "",
          "type": "bool"
        }
      ],
      "stateMutability": "nonpayable",
      "type": "function"
    },
    {
      "inputs": [
        {
          "internalType": "string",
          "name": "applicationID",
          "type": "string"
        },
        {
          "internalType": "uint256",
          "name": "decision",
          "type": "uint256"
        },
        {
          "internalType": "string",
          "name": "reason",
          "type": "string"
        }
      ],
      "name": "prepForInspection",
      "outputs": [
        {
          "internalType": "bool",
          "name": "",
          "type": "bool"
        }
      ],
      "stateMutability": "nonpayable",
      "type": "function"
    },
    {
      "inputs": [
        {
          "internalType": "address",
          "name": "policyAddress",
          "type": "address"
        },
        {
          "internalType": "uint256",
          "name": "decision",
          "type": "uint256"
        },
        {
          "internalType": "string",
          "name": "reason",
          "type": "string"
        }
      ],
      "name": "prepForClaimInspection",
      "outputs": [
        {
          "internalType": "bool",
          "name": "",
          "type": "bool"
        }
      ],
      "stateMutability": "nonpayable",
      "type": "function"
    },
    {
      "inputs": [
        {
          "internalType": "string",
          "name": "applicationID",
          "type": "string"
        }
      ],
      "name": "createPolicyC",
      "outputs": [],
      "stateMutability": "nonpayable",
      "type": "function"
    },
    {
      "inputs": [
        {
          "internalType": "address",
          "name": "policyAddress",
          "type": "address"
        }
      ],
      "name": "claimInsurance",
      "outputs": [],
      "stateMutability": "nonpayable",
      "type": "function"
    },
    {
      "inputs": [
        {
          "internalType": "address",
          "name": "policyAddress",
          "type": "address"
        }
      ],
      "name": "withdrawFromPolicy",
      "outputs": [],
      "stateMutability": "nonpayable",
      "type": "function"
    },
    {
      "inputs": [],
      "name": "checkNetwork",
      "outputs": [
        {
          "internalType": "bool",
          "name": "",
          "type": "bool"
        }
      ],
      "stateMutability": "view",
      "type": "function",
      "constant": true
    },
    {
      "inputs": [],
      "name": "getHashTokenName",
      "outputs": [
        {
          "internalType": "string",
          "name": "",
          "type": "string"
        }
      ],
      "stateMutability": "view",
      "type": "function",
      "constant": true
    },
    {
      "inputs": [],
      "name": "getPolicies",
      "outputs": [
        {
          "internalType": "contract PolicyC[]",
          "name": "",
          "type": "address[]"
        }
      ],
      "stateMutability": "view",
      "type": "function",
      "constant": true
    },
    {
      "inputs": [],
      "name": "getPolicy",
      "outputs": [
        {
          "internalType": "contract PolicyC[]",
          "name": "",
          "type": "address[]"
        }
      ],
      "stateMutability": "view",
      "type": "function",
      "constant": true
    },
    {
      "inputs": [],
      "name": "getPoliciesCount",
      "outputs": [
        {
          "internalType": "uint256",
          "name": "",
          "type": "uint256"
        }
      ],
      "stateMutability": "view",
      "type": "function",
      "constant": true
    },
    {
      "inputs": [],
      "name": "getApplications",
      "outputs": [
        {
          "components": [
            {
              "internalType": "address",
              "name": "applicant",
              "type": "address"
            },
            {
              "internalType": "string",
              "name": "whatToInsure",
              "type": "string"
            },
            {
              "internalType": "uint256",
              "name": "estimatedCost",
              "type": "uint256"
            },
            {
              "internalType": "uint256",
              "name": "applicationTime",
              "type": "uint256"
            },
            {
              "internalType": "uint256",
              "name": "toApproveCount",
              "type": "uint256"
            },
            {
              "internalType": "uint256",
              "name": "toDenyCount",
              "type": "uint256"
            },
            {
              "internalType": "uint256",
              "name": "finalDecision",
              "type": "uint256"
            },
            {
              "internalType": "string",
              "name": "reasonForDenial",
              "type": "string"
            },
            {
              "internalType": "string",
              "name": "applicationID",
              "type": "string"
            },
            {
              "internalType": "uint256",
              "name": "prequelID",
              "type": "uint256"
            }
          ],
          "internalType": "struct _InsurengineC.ApplicationForm[]",
          "name": "",
          "type": "tuple[]"
        }
      ],
      "stateMutability": "view",
      "type": "function",
      "constant": true
    },
    {
      "inputs": [
        {
          "components": [
            {
              "internalType": "string",
              "name": "insureName",
              "type": "string"
            },
            {
              "internalType": "uint256",
              "name": "estimatedCost",
              "type": "uint256"
            },
            {
              "internalType": "string",
              "name": "applicationID",
              "type": "string"
            },
            {
              "internalType": "uint256",
              "name": "prequelID",
              "type": "uint256"
            },
            {
              "internalType": "string",
              "name": "insurerAddress",
              "type": "string"
            },
            {
              "internalType": "uint256",
              "name": "initialDeposit",
              "type": "uint256"
            },
            {
              "internalType": "string",
              "name": "estimatedTenure",
              "type": "string"
            }
          ],
          "internalType": "struct _InsurengineC.inputApplyForm",
          "name": "inputData",
          "type": "tuple"
        },
        {
          "components": [
            {
              "internalType": "uint256",
              "name": "blockNumber",
              "type": "uint256"
            },
            {
              "internalType": "address",
              "name": "from_",
              "type": "address"
            },
            {
              "internalType": "address",
              "name": "to_contract_addr",
              "type": "address"
            },
            {
              "internalType": "address",
              "name": "receiver",
              "type": "address"
            },
            {
              "internalType": "uint256",
              "name": "paymentTime",
              "type": "uint256"
            },
            {
              "internalType": "uint256",
              "name": "value",
              "type": "uint256"
            },
            {
              "internalType": "string",
              "name": "transactionHash",
              "type": "string"
            },
            {
              "internalType": "string",
              "name": "applicationID",
              "type": "string"
            }
          ],
          "internalType": "struct _InsurengineC.receiptTest",
          "name": "_receipt",
          "type": "tuple"
        }
      ],
      "name": "testInpt",
      "outputs": [
        {
          "internalType": "uint256",
          "name": "",
          "type": "uint256"
        },
        {
          "internalType": "string",
          "name": "",
          "type": "string"
        }
      ],
      "stateMutability": "nonpayable",
      "type": "function"
    },
    {
      "inputs": [
        {
          "components": [
            {
              "internalType": "string",
              "name": "insureName",
              "type": "string"
            },
            {
              "internalType": "uint256",
              "name": "estimatedCost",
              "type": "uint256"
            },
            {
              "internalType": "string",
              "name": "applicationID",
              "type": "string"
            },
            {
              "internalType": "uint256",
              "name": "prequelID",
              "type": "uint256"
            },
            {
              "internalType": "string",
              "name": "insurerAddress",
              "type": "string"
            },
            {
              "internalType": "uint256",
              "name": "initialDeposit",
              "type": "uint256"
            },
            {
              "internalType": "string",
              "name": "estimatedTenure",
              "type": "string"
            }
          ],
          "internalType": "struct _InsurengineC.inputApplyForm",
          "name": "inputData",
          "type": "tuple"
        },
        {
          "components": [
            {
              "internalType": "uint256",
              "name": "blockNumber",
              "type": "uint256"
            },
            {
              "internalType": "address",
              "name": "from_",
              "type": "address"
            },
            {
              "internalType": "address",
              "name": "to_contract_addr",
              "type": "address"
            },
            {
              "internalType": "address",
              "name": "receiver",
              "type": "address"
            },
            {
              "internalType": "uint256",
              "name": "paymentTime",
              "type": "uint256"
            },
            {
              "internalType": "uint256",
              "name": "value",
              "type": "uint256"
            },
            {
              "internalType": "string",
              "name": "transactionHash",
              "type": "string"
            },
            {
              "internalType": "string",
              "name": "applicationID",
              "type": "string"
            }
          ],
          "internalType": "struct _InsurengineC.receiptTest",
          "name": "_receipt",
          "type": "tuple"
        }
      ],
      "name": "applyForInsurance",
      "outputs": [
        {
          "internalType": "bool",
          "name": "",
          "type": "bool"
        }
      ],
      "stateMutability": "nonpayable",
      "type": "function"
    },
    {
      "inputs": [],
      "name": "getChidNumOfValidators",
      "outputs": [
        {
          "internalType": "uint256",
          "name": "",
          "type": "uint256"
        }
      ],
      "stateMutability": "nonpayable",
      "type": "function"
    }
  ],
  "bytecode": "0x60806040526001600260146101000a81548160ff0219169083151502179055503480156200002c57600080fd5b506040516200882038038062008820833981810160405281019062000052919062000137565b33604051620000619062000112565b6200006d919062000174565b604051809103906000f0801580156200008a573d6000803e3d6000fd5b506000806101000a81548173ffffffffffffffffffffffffffffffffffffffff021916908373ffffffffffffffffffffffffffffffffffffffff16021790555080600260006101000a81548173ffffffffffffffffffffffffffffffffffffffff021916908373ffffffffffffffffffffffffffffffffffffffff16021790555050620001df565b61277580620060ab83390190565b6000815190506200013181620001c5565b92915050565b6000602082840312156200014a57600080fd5b60006200015a8482850162000120565b91505092915050565b6200016e8162000191565b82525050565b60006020820190506200018b600083018462000163565b92915050565b60006200019e82620001a5565b9050919050565b600073ffffffffffffffffffffffffffffffffffffffff82169050919050565b620001d08162000191565b8114620001dc57600080fd5b50565b615ebc80620001ef6000396000f3fe60806040523480156200001157600080fd5b5060043610620001545760003560e01c80638af4787111620000c9578063d6d644731162000087578063d6d6447314620003a4578063dad867fb14620003c6578063dfefadff14620003e6578063e7d3eb831462000425578063eebf1f97146200045b578063f5791f0614620004915762000154565b80638af4787114620002fa578063965abf67146200031c578063a0345cf1146200033e578063aa53c5731462000360578063ce1e462614620003825762000154565b806355de9913116200011757806355de9913146200022a57806361c5a24f14620002605780636c2a7831146200028257806375c4434214620002a2578063874132ba14620002d85762000154565b80631239c2711462000159578063167d2cb6146200017957806339feb70514620001b05780633b04f6f114620001e657806343900e781462000208575b600080fd5b620001776004803603810190620001719190620034f9565b620004c7565b005b62000197600480360381019062000191919062003799565b62000647565b604051620001a7929190620043d4565b60405180910390f35b620001ce6004803603810190620001c8919062003687565b6200066c565b604051620001dd9190620042f7565b60405180910390f35b620001f062000a06565b604051620001ff9190620040f7565b60405180910390f35b6200021262000a96565b6040516200022191906200411b565b60405180910390f35b62000248600480360381019062000242919062003799565b62000d58565b6040516200025791906200413f565b60405180910390f35b6200026a62001136565b6040516200027991906200413f565b60405180910390f35b620002a060048036038101906200029a919062003687565b6200114d565b005b620002c06004803603810190620002ba919062003551565b6200182a565b604051620002cf91906200413f565b60405180910390f35b620002e262001b3b565b604051620002f191906200415c565b60405180910390f35b6200030462001b5f565b604051620003139190620041b3565b60405180910390f35b6200032662001c0d565b6040516200033591906200431b565b60405180910390f35b6200034862001c1f565b60405162000357919062004196565b60405180910390f35b6200036a62001c45565b6040516200037991906200431b565b60405180910390f35b6200038c62001cf2565b6040516200039b9190620040f7565b60405180910390f35b620003ae62001d82565b604051620003bd91906200413f565b60405180910390f35b620003e46004803603810190620003de9190620034f9565b62001d95565b005b620004046004803603810190620003fe919062003851565b62002048565b6040516200041c9a9998979695949392919062003fb8565b60405180910390f35b6200044360048036038101906200043d9190620035c0565b6200227d565b6040516200045291906200413f565b60405180910390f35b62000479600480360381019062000473919062003711565b6200260e565b6040516200048891906200413f565b60405180910390f35b620004af6004803603810190620004a9919062003851565b62002cd2565b604051620004be919062004179565b60405180910390f35b60008190508073ffffffffffffffffffffffffffffffffffffffff1663168426566040518163ffffffff1660e01b815260040160206040518083038186803b1580156200051357600080fd5b505afa15801562000528573d6000803e3d6000fd5b505050506040513d601f19601f820116820180604052508101906200054e919062003525565b73ffffffffffffffffffffffffffffffffffffffff163373ffffffffffffffffffffffffffffffffffffffff1614620005be576040517f08c379a0000000000000000000000000000000000000000000000000000000008152600401620005b5906200426f565b60405180910390fd5b8073ffffffffffffffffffffffffffffffffffffffff16634e71d92d6040518163ffffffff1660e01b8152600401602060405180830381600087803b1580156200060757600080fd5b505af11580156200061c573d6000803e3d6000fd5b505050506040513d601f19601f820116820180604052508101906200064291906200365b565b505050565b6000606060008360e00151905060008560200151905080829350935050509250929050565b6200067662002e23565b60005b600380549050811015620009ff57826040516020016200069a919062003ea1565b6040516020818303038152906040528051906020012060038281548110620006eb577f4e487b7100000000000000000000000000000000000000000000000000000000600052603260045260246000fd5b90600052602060002090600a02016008016040516020016200070e919062003eba565b604051602081830303815290604052805190602001201415620009e9576003818154811062000766577f4e487b7100000000000000000000000000000000000000000000000000000000600052603260045260246000fd5b90600052602060002090600a0201604051806101400160405290816000820160009054906101000a900473ffffffffffffffffffffffffffffffffffffffff1673ffffffffffffffffffffffffffffffffffffffff1673ffffffffffffffffffffffffffffffffffffffff168152602001600182018054620007e890620046c8565b80601f01602080910402602001604051908101604052809291908181526020018280546200081690620046c8565b8015620008675780601f106200083b5761010080835404028352916020019162000867565b820191906000526020600020905b8154815290600101906020018083116200084957829003601f168201915b505050505081526020016002820154815260200160038201548152602001600482015481526020016005820154815260200160068201548152602001600782018054620008b490620046c8565b80601f0160208091040260200160405190810160405280929190818152602001828054620008e290620046c8565b8015620009335780601f10620009075761010080835404028352916020019162000933565b820191906000526020600020905b8154815290600101906020018083116200091557829003601f168201915b505050505081526020016008820180546200094e90620046c8565b80601f01602080910402602001604051908101604052809291908181526020018280546200097c90620046c8565b8015620009cd5780601f10620009a157610100808354040283529160200191620009cd565b820191906000526020600020905b815481529060010190602001808311620009af57829003601f168201915b5050505050815260200160098201548152505091505062000a01565b8080620009f690620046fe565b91505062000679565b505b919050565b6060600180548060200260200160405190810160405280929190818152602001828054801562000a8c57602002820191906000526020600020905b8160009054906101000a900473ffffffffffffffffffffffffffffffffffffffff1673ffffffffffffffffffffffffffffffffffffffff168152602001906001019080831162000a41575b5050505050905090565b60606003805480602002602001604051908101604052809291908181526020016000905b8282101562000d4f57838290600052602060002090600a0201604051806101400160405290816000820160009054906101000a900473ffffffffffffffffffffffffffffffffffffffff1673ffffffffffffffffffffffffffffffffffffffff1673ffffffffffffffffffffffffffffffffffffffff16815260200160018201805462000b4790620046c8565b80601f016020809104026020016040519081016040528092919081815260200182805462000b7590620046c8565b801562000bc65780601f1062000b9a5761010080835404028352916020019162000bc6565b820191906000526020600020905b81548152906001019060200180831162000ba857829003601f168201915b50505050508152602001600282015481526020016003820154815260200160048201548152602001600582015481526020016006820154815260200160078201805462000c1390620046c8565b80601f016020809104026020016040519081016040528092919081815260200182805462000c4190620046c8565b801562000c925780601f1062000c665761010080835404028352916020019162000c92565b820191906000526020600020905b81548152906001019060200180831162000c7457829003601f168201915b5050505050815260200160088201805462000cad90620046c8565b80601f016020809104026020016040519081016040528092919081815260200182805462000cdb90620046c8565b801562000d2c5780601f1062000d005761010080835404028352916020019162000d2c565b820191906000526020600020905b81548152906001019060200180831162000d0e57829003601f168201915b505050505081526020016009820154815250508152602001906001019062000aba565b50505050905090565b600042826080018181525050600083604001519050600060405180610100016040528085600001518152602001856020015173ffffffffffffffffffffffffffffffffffffffff168152602001856040015173ffffffffffffffffffffffffffffffffffffffff168152602001856060015173ffffffffffffffffffffffffffffffffffffffff168152602001856080015181526020018560a0015181526020018560c0015181526020018560e001518152509050600062000e1a8262002d12565b905060008054906101000a900473ffffffffffffffffffffffffffffffffffffffff1673ffffffffffffffffffffffffffffffffffffffff1663c279cc20826000015183602001518460400151856060015186608001518760a001518860c001518960e001516040518963ffffffff1660e01b815260040162000ea598979695949392919062004338565b600060405180830381600087803b15801562000ec057600080fd5b505af115801562000ed5573d6000803e3d6000fd5b5050505060006040518061014001604052803373ffffffffffffffffffffffffffffffffffffffff16815260200188600001518152602001886020015181526020014281526020016000815260200160008152602001600081526020016040518060400160405280600381526020017f4e2f4100000000000000000000000000000000000000000000000000000000008152508152602001886040015181526020018860600151815250905060038190806001815401808255809150506001900390600052602060002090600a020160009091909190915060008201518160000160006101000a81548173ffffffffffffffffffffffffffffffffffffffff021916908373ffffffffffffffffffffffffffffffffffffffff16021790555060208201518160010190805190602001906200101292919062002e8c565b5060408201518160020155606082015181600301556080820151816004015560a0820151816005015560c0820151816006015560e08201518160070190805190602001906200106392919062002e8c565b506101008201518160080190805190602001906200108392919062002e8c565b5061012082015181600901555050600260009054906101000a900473ffffffffffffffffffffffffffffffffffffffff1673ffffffffffffffffffffffffffffffffffffffff1663dec66ecf338860a001516040518363ffffffff1660e01b8152600401620010f49291906200407d565b600060405180830381600087803b1580156200110f57600080fd5b505af115801562001124573d6000803e3d6000fd5b50505050600194505050505092915050565b6000600260149054906101000a900460ff16905090565b60005b60038054905081101562001826578160405160200162001171919062003ea1565b6040516020818303038152906040528051906020012060038281548110620011c2577f4e487b7100000000000000000000000000000000000000000000000000000000600052603260045260246000fd5b90600052602060002090600a0201600801604051602001620011e5919062003eba565b60405160208183030381529060405280519060200120141562001810576000600382815481106200123f577f4e487b7100000000000000000000000000000000000000000000000000000000600052603260045260246000fd5b90600052602060002090600a0201604051806101400160405290816000820160009054906101000a900473ffffffffffffffffffffffffffffffffffffffff1673ffffffffffffffffffffffffffffffffffffffff1673ffffffffffffffffffffffffffffffffffffffff168152602001600182018054620012c190620046c8565b80601f0160208091040260200160405190810160405280929190818152602001828054620012ef90620046c8565b8015620013405780601f10620013145761010080835404028352916020019162001340565b820191906000526020600020905b8154815290600101906020018083116200132257829003601f168201915b5050505050815260200160028201548152602001600382015481526020016004820154815260200160058201548152602001600682015481526020016007820180546200138d90620046c8565b80601f0160208091040260200160405190810160405280929190818152602001828054620013bb90620046c8565b80156200140c5780601f10620013e0576101008083540402835291602001916200140c565b820191906000526020600020905b815481529060010190602001808311620013ee57829003601f168201915b505050505081526020016008820180546200142790620046c8565b80601f01602080910402602001604051908101604052809291908181526020018280546200145590620046c8565b8015620014a65780601f106200147a57610100808354040283529160200191620014a6565b820191906000526020600020905b8154815290600101906020018083116200148857829003601f168201915b505050505081526020016009820154815250509050806000015173ffffffffffffffffffffffffffffffffffffffff163373ffffffffffffffffffffffffffffffffffffffff161462001530576040517f08c379a00000000000000000000000000000000000000000000000000000000081526004016200152790620042d5565b60405180910390fd5b60048160c00151146200157a576040517f08c379a0000000000000000000000000000000000000000000000000000000008152600401620015719062004291565b60405180910390fd5b60008060009054906101000a900473ffffffffffffffffffffffffffffffffffffffff1673ffffffffffffffffffffffffffffffffffffffff16633d5b62c4856040518263ffffffff1660e01b8152600401620015d89190620041b3565b60006040518083038186803b158015620015f157600080fd5b505afa15801562001606573d6000803e3d6000fd5b505050506040513d6000823e3d601f19601f820116820180604052508101906200163191906200380c565b90506000826000015185846020015185604001518560a00151866080015160008054906101000a900473ffffffffffffffffffffffffffffffffffffffff166040516200167e9062002f1d565b62001690979695949392919062003f2d565b604051809103906000f080158015620016ad573d6000803e3d6000fd5b5090508073ffffffffffffffffffffffffffffffffffffffff166369d9c0326040518163ffffffff1660e01b8152600401600060405180830381600087803b158015620016f957600080fd5b505af11580156200170e573d6000803e3d6000fd5b505050506001819080600181540180825580915050600190039060005260206000200160009091909190916101000a81548173ffffffffffffffffffffffffffffffffffffffff021916908373ffffffffffffffffffffffffffffffffffffffff16021790555060008054906101000a900473ffffffffffffffffffffffffffffffffffffffff1673ffffffffffffffffffffffffffffffffffffffff1663d69a0efc86838560a001516040518463ffffffff1660e01b8152600401620017d893929190620041d7565b600060405180830381600087803b158015620017f357600080fd5b505af115801562001808573d6000803e3d6000fd5b505050505050505b80806200181d90620046fe565b91505062001150565b5050565b60004283608001818152505060008054906101000a900473ffffffffffffffffffffffffffffffffffffffff1673ffffffffffffffffffffffffffffffffffffffff1663a9059cbb858560a001516040518363ffffffff1660e01b8152600401620018979291906200407d565b602060405180830381600087803b158015620018b257600080fd5b505af1158015620018c7573d6000803e3d6000fd5b505050506040513d601f19601f82011682018060405250810190620018ed91906200365b565b5060008490508073ffffffffffffffffffffffffffffffffffffffff1663343a2e7585608001518660a001516040518363ffffffff1660e01b81526004016200193892919062004408565b600060405180830381600087803b1580156200195357600080fd5b505af115801562001968573d6000803e3d6000fd5b50505050600383141562001b2f5760008054906101000a900473ffffffffffffffffffffffffffffffffffffffff1673ffffffffffffffffffffffffffffffffffffffff166323b872dd868373ffffffffffffffffffffffffffffffffffffffff1663168426566040518163ffffffff1660e01b815260040160206040518083038186803b158015620019fa57600080fd5b505afa15801562001a0f573d6000803e3d6000fd5b505050506040513d601f19601f8201168201806040525081019062001a35919062003525565b8473ffffffffffffffffffffffffffffffffffffffff1663af125c8a6040518163ffffffff1660e01b815260040160206040518083038186803b15801562001a7c57600080fd5b505afa15801562001a91573d6000803e3d6000fd5b505050506040513d601f19601f8201168201806040525081019062001ab791906200387d565b6040518463ffffffff1660e01b815260040162001ad79392919062003ef0565b602060405180830381600087803b15801562001af257600080fd5b505af115801562001b07573d6000803e3d6000fd5b505050506040513d601f19601f8201168201806040525081019062001b2d91906200365b565b505b60019150509392505050565b60008054906101000a900473ffffffffffffffffffffffffffffffffffffffff1681565b606060008054906101000a900473ffffffffffffffffffffffffffffffffffffffff1673ffffffffffffffffffffffffffffffffffffffff1663862b092b6040518163ffffffff1660e01b815260040160006040518083038186803b15801562001bc857600080fd5b505afa15801562001bdd573d6000803e3d6000fd5b505050506040513d6000823e3d601f19601f8201168201806040525081019062001c089190620036cc565b905090565b60008060018054905090508091505090565b600260009054906101000a900473ffffffffffffffffffffffffffffffffffffffff1681565b6000600260009054906101000a900473ffffffffffffffffffffffffffffffffffffffff1673ffffffffffffffffffffffffffffffffffffffff1663cf353ca46040518163ffffffff1660e01b8152600401602060405180830381600087803b15801562001cb257600080fd5b505af115801562001cc7573d6000803e3d6000fd5b505050506040513d601f19601f8201168201806040525081019062001ced91906200387d565b905090565b6060600180548060200260200160405190810160405280929190818152602001828054801562001d7857602002820191906000526020600020905b8160009054906101000a900473ffffffffffffffffffffffffffffffffffffffff1673ffffffffffffffffffffffffffffffffffffffff168152602001906001019080831162001d2d575b5050505050905090565b600260149054906101000a900460ff1681565b60008190508073ffffffffffffffffffffffffffffffffffffffff1663168426566040518163ffffffff1660e01b815260040160206040518083038186803b15801562001de157600080fd5b505afa15801562001df6573d6000803e3d6000fd5b505050506040513d601f19601f8201168201806040525081019062001e1c919062003525565b73ffffffffffffffffffffffffffffffffffffffff163373ffffffffffffffffffffffffffffffffffffffff161462001e8c576040517f08c379a000000000000000000000000000000000000000000000000000000000815260040162001e8390620042b3565b60405180910390fd5b60008054906101000a900473ffffffffffffffffffffffffffffffffffffffff1673ffffffffffffffffffffffffffffffffffffffff166323b872dd828373ffffffffffffffffffffffffffffffffffffffff1663168426566040518163ffffffff1660e01b815260040160206040518083038186803b15801562001f1057600080fd5b505afa15801562001f25573d6000803e3d6000fd5b505050506040513d601f19601f8201168201806040525081019062001f4b919062003525565b8473ffffffffffffffffffffffffffffffffffffffff1663af125c8a6040518163ffffffff1660e01b815260040160206040518083038186803b15801562001f9257600080fd5b505afa15801562001fa7573d6000803e3d6000fd5b505050506040513d601f19601f8201168201806040525081019062001fcd91906200387d565b6040518463ffffffff1660e01b815260040162001fed9392919062003ef0565b602060405180830381600087803b1580156200200857600080fd5b505af11580156200201d573d6000803e3d6000fd5b505050506040513d601f19601f820116820180604052508101906200204391906200365b565b505050565b600381815481106200205957600080fd5b90600052602060002090600a02016000915090508060000160009054906101000a900473ffffffffffffffffffffffffffffffffffffffff1690806001018054620020a490620046c8565b80601f0160208091040260200160405190810160405280929190818152602001828054620020d290620046c8565b8015620021235780601f10620020f75761010080835404028352916020019162002123565b820191906000526020600020905b8154815290600101906020018083116200210557829003601f168201915b5050505050908060020154908060030154908060040154908060050154908060060154908060070180546200215890620046c8565b80601f01602080910402602001604051908101604052809291908181526020018280546200218690620046c8565b8015620021d75780601f10620021ab57610100808354040283529160200191620021d7565b820191906000526020600020905b815481529060010190602001808311620021b957829003601f168201915b505050505090806008018054620021ee90620046c8565b80601f01602080910402602001604051908101604052809291908181526020018280546200221c90620046c8565b80156200226d5780601f1062002241576101008083540402835291602001916200226d565b820191906000526020600020905b8154815290600101906020018083116200224f57829003601f168201915b505050505090806009015490508a565b6000808490506000600260009054906101000a900473ffffffffffffffffffffffffffffffffffffffff1673ffffffffffffffffffffffffffffffffffffffff16630cef66ce87878573ffffffffffffffffffffffffffffffffffffffff16638080d3076040518163ffffffff1660e01b815260040160206040518083038186803b1580156200230c57600080fd5b505afa15801562002321573d6000803e3d6000fd5b505050506040513d601f19601f820116820180604052508101906200234791906200387d565b8673ffffffffffffffffffffffffffffffffffffffff166331b8214d6040518163ffffffff1660e01b815260040160206040518083038186803b1580156200238e57600080fd5b505afa158015620023a3573d6000803e3d6000fd5b505050506040513d601f19601f82011682018060405250810190620023c991906200387d565b6040518563ffffffff1660e01b8152600401620023ea9493929190620040aa565b606060405180830381600087803b1580156200240557600080fd5b505af11580156200241a573d6000803e3d6000fd5b505050506040513d601f19601f820116820180604052508101906200244091906200362f565b90508173ffffffffffffffffffffffffffffffffffffffff16636f9c29c68260006003811062002499577f4e487b7100000000000000000000000000000000000000000000000000000000600052603260045260246000fd5b602002015183600160038110620024d9577f4e487b7100000000000000000000000000000000000000000000000000000000600052603260045260246000fd5b60200201518460026003811062002519577f4e487b7100000000000000000000000000000000000000000000000000000000600052603260045260246000fd5b60200201516040518463ffffffff1660e01b81526004016200253e9392919062004435565b600060405180830381600087803b1580156200255957600080fd5b505af11580156200256e573d6000803e3d6000fd5b505050508173ffffffffffffffffffffffffffffffffffffffff1663889f59b260008054906101000a900473ffffffffffffffffffffffffffffffffffffffff166040518263ffffffff1660e01b8152600401620025cd919062003ed3565b600060405180830381600087803b158015620025e857600080fd5b505af1158015620025fd573d6000803e3d6000fd5b505050506001925050509392505050565b600080600090505b60038054905081101562002cc9578460405160200162002637919062003ea1565b604051602081830303815290604052805190602001206003828154811062002688577f4e487b7100000000000000000000000000000000000000000000000000000000600052603260045260246000fd5b90600052602060002090600a0201600801604051602001620026ab919062003eba565b60405160208183030381529060405280519060200120141562002cb35760006003828154811062002705577f4e487b7100000000000000000000000000000000000000000000000000000000600052603260045260246000fd5b90600052602060002090600a0201604051806101400160405290816000820160009054906101000a900473ffffffffffffffffffffffffffffffffffffffff1673ffffffffffffffffffffffffffffffffffffffff1673ffffffffffffffffffffffffffffffffffffffff1681526020016001820180546200278790620046c8565b80601f0160208091040260200160405190810160405280929190818152602001828054620027b590620046c8565b8015620028065780601f10620027da5761010080835404028352916020019162002806565b820191906000526020600020905b815481529060010190602001808311620027e857829003601f168201915b5050505050815260200160028201548152602001600382015481526020016004820154815260200160058201548152602001600682015481526020016007820180546200285390620046c8565b80601f01602080910402602001604051908101604052809291908181526020018280546200288190620046c8565b8015620028d25780601f10620028a657610100808354040283529160200191620028d2565b820191906000526020600020905b815481529060010190602001808311620028b457829003601f168201915b50505050508152602001600882018054620028ed90620046c8565b80601f01602080910402602001604051908101604052809291908181526020018280546200291b90620046c8565b80156200296c5780601f1062002940576101008083540402835291602001916200296c565b820191906000526020600020905b8154815290600101906020018083116200294e57829003601f168201915b505050505081526020016009820154815250509050838160e001819052506000600260009054906101000a900473ffffffffffffffffffffffffffffffffffffffff1673ffffffffffffffffffffffffffffffffffffffff16637d0e593c888885608001518660a001516040518563ffffffff1660e01b8152600401620029f794939291906200421b565b606060405180830381600087803b15801562002a1257600080fd5b505af115801562002a27573d6000803e3d6000fd5b505050506040513d601f19601f8201168201806040525081019062002a4d91906200362f565b90508060006003811062002a8a577f4e487b7100000000000000000000000000000000000000000000000000000000600052603260045260246000fd5b60200201518260800181815250508060016003811062002ad3577f4e487b7100000000000000000000000000000000000000000000000000000000600052603260045260246000fd5b60200201518260a00181815250508060026003811062002b1c577f4e487b7100000000000000000000000000000000000000000000000000000000600052603260045260246000fd5b60200201518260c001818152505060048260c00151141562002b77576040518060400160405280600381526020017f4e2f4100000000000000000000000000000000000000000000000000000000008152508260e001819052505b816003848154811062002bb3577f4e487b7100000000000000000000000000000000000000000000000000000000600052603260045260246000fd5b90600052602060002090600a020160008201518160000160006101000a81548173ffffffffffffffffffffffffffffffffffffffff021916908373ffffffffffffffffffffffffffffffffffffffff160217905550602082015181600101908051906020019062002c2692919062002e8c565b5060408201518160020155606082015181600301556080820151816004015560a0820151816005015560c0820151816006015560e082015181600701908051906020019062002c7792919062002e8c565b5061010082015181600801908051906020019062002c9792919062002e8c565b5061012082015181600901559050506001935050505062002ccb565b808062002cc090620046fe565b91505062002616565b505b9392505050565b6001818154811062002ce357600080fd5b906000526020600020016000915054906101000a900473ffffffffffffffffffffffffffffffffffffffff1681565b62002d1c62002f2b565b62002d2662002f2b565b8260200151816020019073ffffffffffffffffffffffffffffffffffffffff16908173ffffffffffffffffffffffffffffffffffffffff16815250508260400151816040019073ffffffffffffffffffffffffffffffffffffffff16908173ffffffffffffffffffffffffffffffffffffffff1681525050428160800181815250508260600151816060019073ffffffffffffffffffffffffffffffffffffffff16908173ffffffffffffffffffffffffffffffffffffffff16815250508260a001518160a00181815250508260c001518160c001819052508260e001518160e00181905250826000015181600001818152505080915050919050565b604051806101400160405280600073ffffffffffffffffffffffffffffffffffffffff1681526020016060815260200160008152602001600081526020016000815260200160008152602001600081526020016060815260200160608152602001600081525090565b82805462002e9a90620046c8565b90600052602060002090601f01602090048101928262002ebe576000855562002f0a565b82601f1062002ed957805160ff191683800117855562002f0a565b8280016001018555821562002f0a579182015b8281111562002f0957825182559160200191906001019062002eec565b5b50905062002f19919062002fb2565b5090565b61164e806200483983390190565b60405180610100016040528060008152602001600073ffffffffffffffffffffffffffffffffffffffff168152602001600073ffffffffffffffffffffffffffffffffffffffff168152602001600073ffffffffffffffffffffffffffffffffffffffff168152602001600081526020016000815260200160608152602001606081525090565b5b8082111562002fcd57600081600090555060010162002fb3565b5090565b600062002fe862002fe284620044a6565b62004472565b9050808285602086028201111562002fff57600080fd5b60005b85811015620030335781620030188882620034e2565b84526020840193506020830192505060018101905062003002565b5050509392505050565b6000620030546200304e84620044cf565b62004472565b9050828152602081018484840111156200306d57600080fd5b6200307a84828562004683565b509392505050565b6000620030996200309384620044cf565b62004472565b905082815260208101848484011115620030b257600080fd5b620030bf84828562004692565b509392505050565b600081359050620030d881620047ea565b92915050565b600081519050620030ef81620047ea565b92915050565b600082601f8301126200310757600080fd5b60036200311684828562002fd1565b91505092915050565b600081519050620031308162004804565b92915050565b600082601f8301126200314857600080fd5b81356200315a8482602086016200303d565b91505092915050565b600082601f8301126200317557600080fd5b81516200318784826020860162003082565b91505092915050565b600060e08284031215620031a357600080fd5b620031af60e062004472565b9050600082013567ffffffffffffffff811115620031cc57600080fd5b620031da8482850162003136565b6000830152506020620031f084828501620034cb565b602083015250604082013567ffffffffffffffff8111156200321157600080fd5b6200321f8482850162003136565b60408301525060606200323584828501620034cb565b606083015250608082013567ffffffffffffffff8111156200325657600080fd5b620032648482850162003136565b60808301525060a06200327a84828501620034cb565b60a08301525060c082013567ffffffffffffffff8111156200329b57600080fd5b620032a98482850162003136565b60c08301525092915050565b60006101008284031215620032c957600080fd5b620032d661010062004472565b90506000620032e884828501620034e2565b6000830152506020620032fe84828501620030de565b60208301525060406200331484828501620030de565b60408301525060606200332a84828501620030de565b60608301525060806200334084828501620034e2565b60808301525060a06200335684828501620034e2565b60a08301525060c082015167ffffffffffffffff8111156200337757600080fd5b620033858482850162003163565b60c08301525060e082015167ffffffffffffffff811115620033a657600080fd5b620033b48482850162003163565b60e08301525092915050565b60006101008284031215620033d457600080fd5b620033e161010062004472565b90506000620033f384828501620034cb565b60008301525060206200340984828501620030c7565b60208301525060406200341f84828501620030c7565b60408301525060606200343584828501620030c7565b60608301525060806200344b84828501620034cb565b60808301525060a06200346184828501620034cb565b60a08301525060c082013567ffffffffffffffff8111156200348257600080fd5b620034908482850162003136565b60c08301525060e082013567ffffffffffffffff811115620034b157600080fd5b620034bf8482850162003136565b60e08301525092915050565b600081359050620034dc816200481e565b92915050565b600081519050620034f3816200481e565b92915050565b6000602082840312156200350c57600080fd5b60006200351c84828501620030c7565b91505092915050565b6000602082840312156200353857600080fd5b60006200354884828501620030de565b91505092915050565b6000806000606084860312156200356757600080fd5b60006200357786828701620030c7565b935050602084013567ffffffffffffffff8111156200359557600080fd5b620035a386828701620033c0565b9250506040620035b686828701620034cb565b9150509250925092565b600080600060608486031215620035d657600080fd5b6000620035e686828701620030c7565b9350506020620035f986828701620034cb565b925050604084013567ffffffffffffffff8111156200361757600080fd5b620036258682870162003136565b9150509250925092565b6000606082840312156200364257600080fd5b60006200365284828501620030f5565b91505092915050565b6000602082840312156200366e57600080fd5b60006200367e848285016200311f565b91505092915050565b6000602082840312156200369a57600080fd5b600082013567ffffffffffffffff811115620036b557600080fd5b620036c38482850162003136565b91505092915050565b600060208284031215620036df57600080fd5b600082015167ffffffffffffffff811115620036fa57600080fd5b620037088482850162003163565b91505092915050565b6000806000606084860312156200372757600080fd5b600084013567ffffffffffffffff8111156200374257600080fd5b620037508682870162003136565b93505060206200376386828701620034cb565b925050604084013567ffffffffffffffff8111156200378157600080fd5b6200378f8682870162003136565b9150509250925092565b60008060408385031215620037ad57600080fd5b600083013567ffffffffffffffff811115620037c857600080fd5b620037d68582860162003190565b925050602083013567ffffffffffffffff811115620037f457600080fd5b6200380285828601620033c0565b9150509250929050565b6000602082840312156200381f57600080fd5b600082015167ffffffffffffffff8111156200383a57600080fd5b6200384884828501620032b5565b91505092915050565b6000602082840312156200386457600080fd5b60006200387484828501620034cb565b91505092915050565b6000602082840312156200389057600080fd5b6000620038a084828501620034e2565b91505092915050565b6000620038b7838362003a08565b60208301905092915050565b6000620038d1838362003c87565b905092915050565b620038e481620045c1565b82525050565b620038f581620045c1565b82525050565b6000620039088262004537565b62003914818562004572565b9350620039218362004502565b8060005b83811015620039585781516200393c8882620038a9565b9750620039498362004558565b92505060018101905062003925565b5085935050505092915050565b6000620039728262004542565b6200397e818562004583565b935083602082028501620039928562004512565b8060005b85811015620039d45784840389528151620039b28582620038c3565b9450620039bf8362004565565b925060208a0199505060018101905062003996565b50829750879550505050505092915050565b620039f181620045d5565b82525050565b62003a02816200460b565b82525050565b62003a138162004633565b82525050565b62003a248162004633565b82525050565b62003a35816200465b565b82525050565b600062003a48826200454d565b62003a54818562004594565b935062003a6681856020860162004692565b62003a7181620047d9565b840191505092915050565b600062003a89826200454d565b62003a958185620045a5565b935062003aa781856020860162004692565b62003ab281620047d9565b840191505092915050565b600062003aca826200454d565b62003ad68185620045b6565b935062003ae881856020860162004692565b80840191505092915050565b6000815462003b0381620046c8565b62003b0f8186620045b6565b9450600182166000811462003b2d576001811462003b3f5762003b76565b60ff1983168652818601935062003b76565b62003b4a8562004522565b60005b8381101562003b6e5781548189015260018201915060208101905062003b4d565b838801955050505b50505092915050565b600062003b8e600d83620045a5565b91507f43616e6e6f7420636c61696d21000000000000000000000000000000000000006000830152602082019050919050565b600062003bd0600c83620045a5565b91507f4e6f7420617070726f76656400000000000000000000000000000000000000006000830152602082019050919050565b600062003c12600b83620045a5565b91507f52657374726963746564210000000000000000000000000000000000000000006000830152602082019050919050565b600062003c54601183620045a5565b91507f4e6f7420746865206170706c6963616e740000000000000000000000000000006000830152602082019050919050565b60006101408301600083015162003ca26000860182620038d9565b506020830151848203602086015262003cbc828262003a3b565b915050604083015162003cd3604086018262003e7f565b50606083015162003ce8606086018262003e7f565b50608083015162003cfd608086018262003e7f565b5060a083015162003d1260a086018262003e7f565b5060c083015162003d2760c086018262003e7f565b5060e083015184820360e086015262003d41828262003a3b565b91505061010083015184820361010086015262003d5f828262003a3b565b91505061012083015162003d7861012086018262003e7f565b508091505092915050565b60006101408301600083015162003d9e6000860182620038d9565b506020830151848203602086015262003db8828262003a3b565b915050604083015162003dcf604086018262003e7f565b50606083015162003de4606086018262003e7f565b50608083015162003df9608086018262003e7f565b5060a083015162003e0e60a086018262003e7f565b5060c083015162003e2360c086018262003e7f565b5060e083015184820360e086015262003e3d828262003a3b565b91505061010083015184820361010086015262003e5b828262003a3b565b91505061012083015162003e7461012086018262003e7f565b508091505092915050565b62003e8a8162004601565b82525050565b62003e9b8162004601565b82525050565b600062003eaf828462003abd565b915081905092915050565b600062003ec8828462003af4565b915081905092915050565b600060208201905062003eea6000830184620038ea565b92915050565b600060608201905062003f076000830186620038ea565b62003f166020830185620038ea565b62003f25604083018462003e90565b949350505050565b600060e08201905062003f44600083018a620038ea565b818103602083015262003f58818962003a7c565b9050818103604083015262003f6e818862003a7c565b905062003f7f606083018762003e90565b62003f8e608083018662003e90565b62003f9d60a083018562003e90565b62003fac60c0830184620038ea565b98975050505050505050565b60006101408201905062003fd0600083018d620038ea565b818103602083015262003fe4818c62003a7c565b905062003ff5604083018b62003e90565b62004004606083018a62003e90565b62004013608083018962003e90565b6200402260a083018862003e90565b6200403160c083018762003e90565b81810360e083015262004045818662003a7c565b90508181036101008301526200405c818562003a7c565b90506200406e61012083018462003e90565b9b9a5050505050505050505050565b6000604082019050620040946000830185620038ea565b620040a3602083018462003e90565b9392505050565b6000608082019050620040c16000830187620038ea565b620040d0602083018662003e90565b620040df604083018562003e90565b620040ee606083018462003e90565b95945050505050565b60006020820190508181036000830152620041138184620038fb565b905092915050565b6000602082019050818103600083015262004137818462003965565b905092915050565b6000602082019050620041566000830184620039e6565b92915050565b6000602082019050620041736000830184620039f7565b92915050565b600060208201905062004190600083018462003a19565b92915050565b6000602082019050620041ad600083018462003a2a565b92915050565b60006020820190508181036000830152620041cf818462003a7c565b905092915050565b60006060820190508181036000830152620041f3818662003a7c565b9050620042046020830185620038ea565b62004213604083018462003e90565b949350505050565b6000608082019050818103600083015262004237818762003a7c565b905062004248602083018662003e90565b62004257604083018562003e90565b62004266606083018462003e90565b95945050505050565b600060208201905081810360008301526200428a8162003b7f565b9050919050565b60006020820190508181036000830152620042ac8162003bc1565b9050919050565b60006020820190508181036000830152620042ce8162003c03565b9050919050565b60006020820190508181036000830152620042f08162003c45565b9050919050565b6000602082019050818103600083015262004313818462003d83565b905092915050565b600060208201905062004332600083018462003e90565b92915050565b60006101008201905062004350600083018b62003e90565b6200435f602083018a620038ea565b6200436e6040830189620038ea565b6200437d6060830188620038ea565b6200438c608083018762003e90565b6200439b60a083018662003e90565b81810360c0830152620043af818562003a7c565b905081810360e0830152620043c5818462003a7c565b90509998505050505050505050565b6000604082019050620043eb600083018562003e90565b8181036020830152620043ff818462003a7c565b90509392505050565b60006040820190506200441f600083018562003e90565b6200442e602083018462003e90565b9392505050565b60006060820190506200444c600083018662003e90565b6200445b602083018562003e90565b6200446a604083018462003e90565b949350505050565b6000604051905081810181811067ffffffffffffffff821117156200449c576200449b620047aa565b5b8060405250919050565b600067ffffffffffffffff821115620044c457620044c3620047aa565b5b602082029050919050565b600067ffffffffffffffff821115620044ed57620044ec620047aa565b5b601f19601f8301169050602081019050919050565b6000819050602082019050919050565b6000819050602082019050919050565b60008190508160005260206000209050919050565b600081519050919050565b600081519050919050565b600081519050919050565b6000602082019050919050565b6000602082019050919050565b600082825260208201905092915050565b600082825260208201905092915050565b600082825260208201905092915050565b600082825260208201905092915050565b600081905092915050565b6000620045ce82620045e1565b9050919050565b60008115159050919050565b600073ffffffffffffffffffffffffffffffffffffffff82169050919050565b6000819050919050565b600062004618826200461f565b9050919050565b60006200462c82620045e1565b9050919050565b6000620046408262004647565b9050919050565b60006200465482620045e1565b9050919050565b600062004668826200466f565b9050919050565b60006200467c82620045e1565b9050919050565b82818337600083830152505050565b60005b83811015620046b257808201518184015260208101905062004695565b83811115620046c2576000848401525b50505050565b60006002820490506001821680620046e157607f821691505b60208210811415620046f857620046f76200477b565b5b50919050565b60006200470b8262004601565b91507fffffffffffffffffffffffffffffffffffffffffffffffffffffffffffffffff8214156200474157620047406200474c565b5b600182019050919050565b7f4e487b7100000000000000000000000000000000000000000000000000000000600052601160045260246000fd5b7f4e487b7100000000000000000000000000000000000000000000000000000000600052602260045260246000fd5b7f4e487b7100000000000000000000000000000000000000000000000000000000600052604160045260246000fd5b6000601f19601f8301169050919050565b620047f581620045c1565b81146200480157600080fd5b50565b6200480f81620045d5565b81146200481b57600080fd5b50565b620048298162004601565b81146200483557600080fd5b5056fe60806040523480156200001157600080fd5b506040516200164e3803806200164e8339818101604052810190620000379190620002b0565b86600160006101000a81548173ffffffffffffffffffffffffffffffffffffffff021916908373ffffffffffffffffffffffffffffffffffffffff16021790555085600090805190602001906200009092919062000160565b508460029080519060200190620000a992919062000160565b50426003819055508360048190555082600560008481526020019081526020016000208190555062278d00600354620000e39190620003f6565b600a81905550600683908060018154018082558091505060019003906000526020600020016000909190919091505580600760006101000a81548173ffffffffffffffffffffffffffffffffffffffff021916908373ffffffffffffffffffffffffffffffffffffffff16021790555050505050505050620005be565b8280546200016e90620004c7565b90600052602060002090601f016020900481019282620001925760008555620001de565b82601f10620001ad57805160ff1916838001178555620001de565b82800160010185558215620001de579182015b82811115620001dd578251825591602001919060010190620001c0565b5b509050620001ed9190620001f1565b5090565b5b808211156200020c576000816000905550600101620001f2565b5090565b6000620002276200022184620003c3565b6200038f565b9050828152602081018484840111156200024057600080fd5b6200024d84828562000491565b509392505050565b60008151905062000266816200058a565b92915050565b600082601f8301126200027e57600080fd5b81516200029084826020860162000210565b91505092915050565b600081519050620002aa81620005a4565b92915050565b600080600080600080600060e0888a031215620002cc57600080fd5b6000620002dc8a828b0162000255565b975050602088015167ffffffffffffffff811115620002fa57600080fd5b620003088a828b016200026c565b965050604088015167ffffffffffffffff8111156200032657600080fd5b620003348a828b016200026c565b9550506060620003478a828b0162000299565b94505060806200035a8a828b0162000299565b93505060a06200036d8a828b0162000299565b92505060c0620003808a828b0162000255565b91505092959891949750929550565b6000604051905081810181811067ffffffffffffffff82111715620003b957620003b86200055b565b5b8060405250919050565b600067ffffffffffffffff821115620003e157620003e06200055b565b5b601f19601f8301169050602081019050919050565b6000620004038262000487565b9150620004108362000487565b9250827fffffffffffffffffffffffffffffffffffffffffffffffffffffffffffffffff03821115620004485762000447620004fd565b5b828201905092915050565b6000620004608262000467565b9050919050565b600073ffffffffffffffffffffffffffffffffffffffff82169050919050565b6000819050919050565b60005b83811015620004b157808201518184015260208101905062000494565b83811115620004c1576000848401525b50505050565b60006002820490506001821680620004e057607f821691505b60208210811415620004f757620004f66200052c565b5b50919050565b7f4e487b7100000000000000000000000000000000000000000000000000000000600052601160045260246000fd5b7f4e487b7100000000000000000000000000000000000000000000000000000000600052602260045260246000fd5b7f4e487b7100000000000000000000000000000000000000000000000000000000600052604160045260246000fd5b620005958162000453565b8114620005a157600080fd5b50565b620005af8162000487565b8114620005bb57600080fd5b50565b61108080620005ce6000396000f3fe608060405234801561001057600080fd5b506004361061018e5760003560e01c80638080d307116100de578063a3f82eb811610097578063d474b9ce11610071578063d474b9ce14610443578063d5f92b1b14610461578063de36e39c1461047f578063e5901ea11461049d5761018e565b8063a3f82eb8146103d7578063af125c8a146103f5578063aff06064146104135761018e565b80638080d30714610313578063889f59b2146103315780638efa77461461034d57806390c6b18a1461036b57806393873b481461038957806396fd1b5c146103a75761018e565b80635d5463131161014b578063680418461161012557806368041846146102b157806369d9c032146102cf5780636de84ae9146102d95780636f9c29c6146102f75761018e565b80635d5463131461024557806360a9903414610263578063658bb5e5146102935761018e565b8063168426561461019357806331b8214d146101b1578063343a2e75146101cf57806338271924146101eb5780634e71d92d1461020957806359cbd20714610227575b600080fd5b61019b6104bb565b6040516101a89190610d87565b60405180910390f35b6101b96104e1565b6040516101c69190610e28565b60405180910390f35b6101e960048036038101906101e49190610c56565b6104e7565b005b6101f3610565565b6040516102009190610de6565b60405180910390f35b610211610611565b60405161021e9190610dcb565b60405180910390f35b61022f6106cf565b60405161023c9190610e28565b60405180910390f35b61024d6106d5565b60405161025a9190610e28565b60405180910390f35b61027d60048036038101906102789190610c2d565b6106db565b60405161028a9190610e28565b60405180910390f35b61029b6106ff565b6040516102a89190610de6565b60405180910390f35b6102b961078d565b6040516102c69190610e28565b60405180910390f35b6102d7610793565b005b6102e16107cc565b6040516102ee9190610d87565b60405180910390f35b610311600480360381019061030c9190610c92565b6107f2565b005b61031b610861565b6040516103289190610e28565b60405180910390f35b61034b60048036038101906103469190610bdb565b610867565b005b61035561094b565b6040516103629190610de6565b60405180910390f35b6103736109d9565b6040516103809190610e28565b60405180910390f35b6103916109df565b60405161039e9190610e28565b60405180910390f35b6103c160048036038101906103bc9190610c2d565b6109e9565b6040516103ce9190610e28565b60405180910390f35b6103df610a0d565b6040516103ec9190610d87565b60405180910390f35b6103fd610a37565b60405161040a9190610e28565b60405180910390f35b61042d60048036038101906104289190610c2d565b610a3d565b60405161043a9190610e28565b60405180910390f35b61044b610a55565b6040516104589190610e28565b60405180910390f35b610469610a5b565b6040516104769190610e28565b60405180910390f35b610487610a61565b6040516104949190610e28565b60405180910390f35b6104a5610a6b565b6040516104b29190610de6565b60405180910390f35b600160009054906101000a900473ffffffffffffffffffffffffffffffffffffffff1681565b600e5481565b600160009054906101000a900473ffffffffffffffffffffffffffffffffffffffff1673ffffffffffffffffffffffffffffffffffffffff163373ffffffffffffffffffffffffffffffffffffffff161461054157600080fd5b806005600084815260200190815260200160002081905550610561610793565b5050565b606062278d00600354426105799190610eb5565b11156105bc576040518060400160405280600781526020017f496e76616c696400000000000000000000000000000000000000000000000000815250905061060e565b62278d00600354426105ce9190610eb5565b101561060d576040518060400160405280600581526020017f56616c696400000000000000000000000000000000000000000000000000000081525090505b5b90565b6000600160009054906101000a900473ffffffffffffffffffffffffffffffffffffffff1673ffffffffffffffffffffffffffffffffffffffff163373ffffffffffffffffffffffffffffffffffffffff16146106a3576040517f08c379a000000000000000000000000000000000000000000000000000000000815260040161069a90610e08565b60405180910390fd5b600c42908060018154018082558091505060019003906000526020600020016000909190919091505590565b60095481565b600a5481565b600c81815481106106eb57600080fd5b906000526020600020016000915090505481565b6000805461070c90610f64565b80601f016020809104026020016040519081016040528092919081815260200182805461073890610f64565b80156107855780601f1061075a57610100808354040283529160200191610785565b820191906000526020600020905b81548152906001019060200180831161076857829003601f168201915b505050505081565b600b5481565b600c6008819055506096600981905550600a544211156107ca5762278d00600a60008282546107c29190610e5f565b925050819055505b565b600760009054906101000a900473ffffffffffffffffffffffffffffffffffffffff1681565b6000600c805490501161080457600080fd5b6004600f54141561085c576040518060400160405280600381526020017f4e2f4100000000000000000000000000000000000000000000000000000000008152506010908051906020019061085a929190610af9565b505b505050565b600d5481565b6000600c805490501161087957600080fd5b6000819050600454600680549050116108955760c86009819055505b8073ffffffffffffffffffffffffffffffffffffffff1663095ea7b3600160009054906101000a900473ffffffffffffffffffffffffffffffffffffffff166004546040518363ffffffff1660e01b81526004016108f4929190610da2565b602060405180830381600087803b15801561090e57600080fd5b505af1158015610922573d6000803e3d6000fd5b505050506040513d601f19601f820116820180604052508101906109469190610c04565b505050565b6002805461095890610f64565b80601f016020809104026020016040519081016040528092919081815260200182805461098490610f64565b80156109d15780601f106109a6576101008083540402835291602001916109d1565b820191906000526020600020905b8154815290600101906020018083116109b457829003601f168201915b505050505081565b60035481565b6000600a54905090565b600681815481106109f957600080fd5b906000526020600020016000915090505481565b6000600160009054906101000a900473ffffffffffffffffffffffffffffffffffffffff16905090565b60045481565b60056020528060005260406000206000915090505481565b600f5481565b60085481565b6000600954905090565b60108054610a7890610f64565b80601f0160208091040260200160405190810160405280929190818152602001828054610aa490610f64565b8015610af15780601f10610ac657610100808354040283529160200191610af1565b820191906000526020600020905b815481529060010190602001808311610ad457829003601f168201915b505050505081565b828054610b0590610f64565b90600052602060002090601f016020900481019282610b275760008555610b6e565b82601f10610b4057805160ff1916838001178555610b6e565b82800160010185558215610b6e579182015b82811115610b6d578251825591602001919060010190610b52565b5b509050610b7b9190610b7f565b5090565b5b80821115610b98576000816000905550600101610b80565b5090565b600081359050610bab81611005565b92915050565b600081519050610bc08161101c565b92915050565b600081359050610bd581611033565b92915050565b600060208284031215610bed57600080fd5b6000610bfb84828501610b9c565b91505092915050565b600060208284031215610c1657600080fd5b6000610c2484828501610bb1565b91505092915050565b600060208284031215610c3f57600080fd5b6000610c4d84828501610bc6565b91505092915050565b60008060408385031215610c6957600080fd5b6000610c7785828601610bc6565b9250506020610c8885828601610bc6565b9150509250929050565b600080600060608486031215610ca757600080fd5b6000610cb586828701610bc6565b9350506020610cc686828701610bc6565b9250506040610cd786828701610bc6565b9150509250925092565b610cea81610ee9565b82525050565b610cf981610efb565b82525050565b6000610d0a82610e43565b610d148185610e4e565b9350610d24818560208601610f31565b610d2d81610ff4565b840191505092915050565b6000610d45600e83610e4e565b91507f43616e6e6f7420636c61696d21210000000000000000000000000000000000006000830152602082019050919050565b610d8181610f27565b82525050565b6000602082019050610d9c6000830184610ce1565b92915050565b6000604082019050610db76000830185610ce1565b610dc46020830184610d78565b9392505050565b6000602082019050610de06000830184610cf0565b92915050565b60006020820190508181036000830152610e008184610cff565b905092915050565b60006020820190508181036000830152610e2181610d38565b9050919050565b6000602082019050610e3d6000830184610d78565b92915050565b600081519050919050565b600082825260208201905092915050565b6000610e6a82610f27565b9150610e7583610f27565b9250827fffffffffffffffffffffffffffffffffffffffffffffffffffffffffffffffff03821115610eaa57610ea9610f96565b5b828201905092915050565b6000610ec082610f27565b9150610ecb83610f27565b925082821015610ede57610edd610f96565b5b828203905092915050565b6000610ef482610f07565b9050919050565b60008115159050919050565b600073ffffffffffffffffffffffffffffffffffffffff82169050919050565b6000819050919050565b60005b83811015610f4f578082015181840152602081019050610f34565b83811115610f5e576000848401525b50505050565b60006002820490506001821680610f7c57607f821691505b60208210811415610f9057610f8f610fc5565b5b50919050565b7f4e487b7100000000000000000000000000000000000000000000000000000000600052601160045260246000fd5b7f4e487b7100000000000000000000000000000000000000000000000000000000600052602260045260246000fd5b6000601f19601f8301169050919050565b61100e81610ee9565b811461101957600080fd5b50565b61102581610efb565b811461103057600080fd5b50565b61103c81610f27565b811461104757600080fd5b5056fea26469706673582212206706ed7b4f7872e285b7bf0ab218861c169f923d07f3a71aa9422af6526bdd1a64736f6c63430008000033a2646970667358221220ec23d28d66284ecd58d4cd35ae237cb5193982ba3e7106fe819bf1fb476d892064736f6c6343000800003360806040526040518060400160405280601081526020017f486173687572616e636520546f6b656e0000000000000000000000000000000081525060019080519060200190620000519291906200019b565b506040518060400160405280600481526020017f4853485400000000000000000000000000000000000000000000000000000000815250600290805190602001906200009f9291906200019b565b506a01bcb13a657b26388000006003556012600560006101000a81548160ff021916908360ff160217905550348015620000d857600080fd5b5060405162002775380380620027758339818101604052810190620000fe919062000262565b806000806101000a81548173ffffffffffffffffffffffffffffffffffffffff021916908373ffffffffffffffffffffffffffffffffffffffff160217905550600354600760008373ffffffffffffffffffffffffffffffffffffffff1673ffffffffffffffffffffffffffffffffffffffff16815260200190815260200160002081905550600060048190555060006006819055505062000341565b828054620001a990620002c2565b90600052602060002090601f016020900481019282620001cd576000855562000219565b82601f10620001e857805160ff191683800117855562000219565b8280016001018555821562000219579182015b8281111562000218578251825591602001919060010190620001fb565b5b5090506200022891906200022c565b5090565b5b80821115620002475760008160009055506001016200022d565b5090565b6000815190506200025c8162000327565b92915050565b6000602082840312156200027557600080fd5b600062000285848285016200024b565b91505092915050565b60006200029b82620002a2565b9050919050565b600073ffffffffffffffffffffffffffffffffffffffff82169050919050565b60006002820490506001821680620002db57607f821691505b60208210811415620002f257620002f1620002f8565b5b50919050565b7f4e487b7100000000000000000000000000000000000000000000000000000000600052602260045260246000fd5b62000332816200028e565b81146200033e57600080fd5b50565b61242480620003516000396000f3fe608060405234801561001057600080fd5b506004361061014d5760003560e01c80635c658165116100c357806395d89b411161007c57806395d89b41146103e7578063a9059cbb14610405578063b8a84cdc14610435578063c279cc2014610453578063d69a0efc1461046f578063dd62ed3e1461048b5761014d565b80635c658165146102f657806363bedff61461032657806370a082311461034457806380721bb914610374578063862b092b146103ab5780639358928b146103c95761014d565b806327e235e31161011557806327e235e31461020c578063313ce5671461023c578063324536eb1461025a57806339fa66c9146102785780633d5b62c4146102a85780635275dadc146102d85761014d565b806302d3bd161461015257806306fdde0314610170578063095ea7b31461018e57806318160ddd146101be57806323b872dd146101dc575b600080fd5b61015a6104bb565b6040516101679190612074565b60405180910390f35b6101786104c1565b6040516101859190612030565b60405180910390f35b6101a860048036038101906101a39190611c69565b61054f565b6040516101b59190612015565b60405180910390f35b6101c6610641565b6040516101d39190612074565b60405180910390f35b6101f660048036038101906101f19190611c1a565b61064b565b6040516102039190612015565b60405180910390f35b61022660048036038101906102219190611bb5565b6109b2565b6040516102339190612074565b60405180910390f35b6102446109ca565b604051610251919061211b565b60405180910390f35b6102626109dd565b60405161026f9190612074565b60405180910390f35b610292600480360381019061028d9190611ca5565b6109e3565b60405161029f9190612052565b60405180910390f35b6102c260048036038101906102bd9190611ca5565b610c60565b6040516102cf9190612052565b60405180910390f35b6102e0610edd565b6040516102ed9190611ffa565b60405180910390f35b610310600480360381019061030b9190611bde565b610f01565b60405161031d9190612074565b60405180910390f35b61032e610f26565b60405161033b9190612074565b60405180910390f35b61035e60048036038101906103599190611bb5565b610f2c565b60405161036b9190612074565b60405180910390f35b61038e60048036038101906103899190611ca5565b610f75565b6040516103a298979695949392919061208f565b60405180910390f35b6103b3611143565b6040516103c09190612030565b60405180910390f35b6103d161122d565b6040516103de9190612074565b60405180910390f35b6103ef611237565b6040516103fc9190612030565b60405180910390f35b61041f600480360381019061041a9190611c69565b6112c5565b60405161042c9190612015565b60405180910390f35b61043d611548565b60405161044a9190612074565b60405180910390f35b61046d60048036038101906104689190611d4d565b611552565b005b61048960048036038101906104849190611ce6565b6118bc565b005b6104a560048036038101906104a09190611bde565b611972565b6040516104b29190612074565b60405180910390f35b60045481565b600180546104ce906122f0565b80601f01602080910402602001604051908101604052809291908181526020018280546104fa906122f0565b80156105475780601f1061051c57610100808354040283529160200191610547565b820191906000526020600020905b81548152906001019060200180831161052a57829003601f168201915b505050505081565b600081600860003373ffffffffffffffffffffffffffffffffffffffff1673ffffffffffffffffffffffffffffffffffffffff16815260200190815260200160002060008573ffffffffffffffffffffffffffffffffffffffff1673ffffffffffffffffffffffffffffffffffffffff168152602001908152602001600020819055508273ffffffffffffffffffffffffffffffffffffffff163373ffffffffffffffffffffffffffffffffffffffff167f8c5be1e5ebec7d5bd14f71427d1e84f3dd0314c0f7b2291e5b200ac8c7c3b9258460405161062f9190612074565b60405180910390a36001905092915050565b6000600354905090565b6000600760008573ffffffffffffffffffffffffffffffffffffffff1673ffffffffffffffffffffffffffffffffffffffff1681526020019081526020016000205482111561069957600080fd5b600860008573ffffffffffffffffffffffffffffffffffffffff1673ffffffffffffffffffffffffffffffffffffffff16815260200190815260200160002060003373ffffffffffffffffffffffffffffffffffffffff1673ffffffffffffffffffffffffffffffffffffffff1681526020019081526020016000205482111561072257600080fd5b81600760008673ffffffffffffffffffffffffffffffffffffffff1673ffffffffffffffffffffffffffffffffffffffff16815260200190815260200160002060008282546107719190612225565b9250508190555081600760008573ffffffffffffffffffffffffffffffffffffffff1673ffffffffffffffffffffffffffffffffffffffff16815260200190815260200160002060008282546107c791906121cf565b9250508190555081600860008673ffffffffffffffffffffffffffffffffffffffff1673ffffffffffffffffffffffffffffffffffffffff16815260200190815260200160002060003373ffffffffffffffffffffffffffffffffffffffff1673ffffffffffffffffffffffffffffffffffffffff168152602001908152602001600020600082825461085a9190612225565b9250508190555060008054906101000a900473ffffffffffffffffffffffffffffffffffffffff1673ffffffffffffffffffffffffffffffffffffffff168473ffffffffffffffffffffffffffffffffffffffff1614156108d35781600460008282546108c791906121cf565b92505081905550610942565b60008054906101000a900473ffffffffffffffffffffffffffffffffffffffff1673ffffffffffffffffffffffffffffffffffffffff168373ffffffffffffffffffffffffffffffffffffffff1614156109415781600460008282546109399190612225565b925050819055505b5b8273ffffffffffffffffffffffffffffffffffffffff168473ffffffffffffffffffffffffffffffffffffffff167fddf252ad1be2c89b69c2b068fc378daa952ba7f163c4a11628f55a4df523b3ef8460405161099f9190612074565b60405180910390a3600190509392505050565b60076020528060005260406000206000915090505481565b600560009054906101000a900460ff1681565b60035481565b6109eb6119f9565b6009826040516109fb9190611fe3565b908152602001604051809103902060405180610100016040529081600082015481526020016001820160009054906101000a900473ffffffffffffffffffffffffffffffffffffffff1673ffffffffffffffffffffffffffffffffffffffff1673ffffffffffffffffffffffffffffffffffffffff1681526020016002820160009054906101000a900473ffffffffffffffffffffffffffffffffffffffff1673ffffffffffffffffffffffffffffffffffffffff1673ffffffffffffffffffffffffffffffffffffffff1681526020016003820160009054906101000a900473ffffffffffffffffffffffffffffffffffffffff1673ffffffffffffffffffffffffffffffffffffffff1673ffffffffffffffffffffffffffffffffffffffff1681526020016004820154815260200160058201548152602001600682018054610b45906122f0565b80601f0160208091040260200160405190810160405280929190818152602001828054610b71906122f0565b8015610bbe5780601f10610b9357610100808354040283529160200191610bbe565b820191906000526020600020905b815481529060010190602001808311610ba157829003601f168201915b50505050508152602001600782018054610bd7906122f0565b80601f0160208091040260200160405190810160405280929190818152602001828054610c03906122f0565b8015610c505780601f10610c2557610100808354040283529160200191610c50565b820191906000526020600020905b815481529060010190602001808311610c3357829003601f168201915b5050505050815250509050919050565b610c686119f9565b600982604051610c789190611fe3565b908152602001604051809103902060405180610100016040529081600082015481526020016001820160009054906101000a900473ffffffffffffffffffffffffffffffffffffffff1673ffffffffffffffffffffffffffffffffffffffff1673ffffffffffffffffffffffffffffffffffffffff1681526020016002820160009054906101000a900473ffffffffffffffffffffffffffffffffffffffff1673ffffffffffffffffffffffffffffffffffffffff1673ffffffffffffffffffffffffffffffffffffffff1681526020016003820160009054906101000a900473ffffffffffffffffffffffffffffffffffffffff1673ffffffffffffffffffffffffffffffffffffffff1673ffffffffffffffffffffffffffffffffffffffff1681526020016004820154815260200160058201548152602001600682018054610dc2906122f0565b80601f0160208091040260200160405190810160405280929190818152602001828054610dee906122f0565b8015610e3b5780601f10610e1057610100808354040283529160200191610e3b565b820191906000526020600020905b815481529060010190602001808311610e1e57829003601f168201915b50505050508152602001600782018054610e54906122f0565b80601f0160208091040260200160405190810160405280929190818152602001828054610e80906122f0565b8015610ecd5780601f10610ea257610100808354040283529160200191610ecd565b820191906000526020600020905b815481529060010190602001808311610eb057829003601f168201915b5050505050815250509050919050565b60008054906101000a900473ffffffffffffffffffffffffffffffffffffffff1681565b6008602052816000526040600020602052806000526040600020600091509150505481565b60065481565b6000600760008373ffffffffffffffffffffffffffffffffffffffff1673ffffffffffffffffffffffffffffffffffffffff168152602001908152602001600020549050919050565b6009818051602081018201805184825260208301602085012081835280955050505050506000915090508060000154908060010160009054906101000a900473ffffffffffffffffffffffffffffffffffffffff16908060020160009054906101000a900473ffffffffffffffffffffffffffffffffffffffff16908060030160009054906101000a900473ffffffffffffffffffffffffffffffffffffffff1690806004015490806005015490806006018054611032906122f0565b80601f016020809104026020016040519081016040528092919081815260200182805461105e906122f0565b80156110ab5780601f10611080576101008083540402835291602001916110ab565b820191906000526020600020905b81548152906001019060200180831161108e57829003601f168201915b5050505050908060070180546110c0906122f0565b80601f01602080910402602001604051908101604052809291908181526020018280546110ec906122f0565b80156111395780601f1061110e57610100808354040283529160200191611139565b820191906000526020600020905b81548152906001019060200180831161111c57829003601f168201915b5050505050905088565b606060008054906101000a900473ffffffffffffffffffffffffffffffffffffffff1673ffffffffffffffffffffffffffffffffffffffff163373ffffffffffffffffffffffffffffffffffffffff161461119d57600080fd5b600180546111aa906122f0565b80601f01602080910402602001604051908101604052809291908181526020018280546111d6906122f0565b80156112235780601f106111f857610100808354040283529160200191611223565b820191906000526020600020905b81548152906001019060200180831161120657829003601f168201915b5050505050905090565b6000600454905090565b60028054611244906122f0565b80601f0160208091040260200160405190810160405280929190818152602001828054611270906122f0565b80156112bd5780601f10611292576101008083540402835291602001916112bd565b820191906000526020600020905b8154815290600101906020018083116112a057829003601f168201915b505050505081565b60008273ffffffffffffffffffffffffffffffffffffffff163373ffffffffffffffffffffffffffffffffffffffff16141561130057600080fd5b81600760003373ffffffffffffffffffffffffffffffffffffffff1673ffffffffffffffffffffffffffffffffffffffff16815260200190815260200160002054101561134c57600080fd5b81600760003373ffffffffffffffffffffffffffffffffffffffff1673ffffffffffffffffffffffffffffffffffffffff168152602001908152602001600020600082825461139b9190612225565b9250508190555081600760008573ffffffffffffffffffffffffffffffffffffffff1673ffffffffffffffffffffffffffffffffffffffff16815260200190815260200160002060008282546113f191906121cf565b9250508190555060008054906101000a900473ffffffffffffffffffffffffffffffffffffffff1673ffffffffffffffffffffffffffffffffffffffff163373ffffffffffffffffffffffffffffffffffffffff16141561146a57816004600082825461145e91906121cf565b925050819055506114d9565b60008054906101000a900473ffffffffffffffffffffffffffffffffffffffff1673ffffffffffffffffffffffffffffffffffffffff168373ffffffffffffffffffffffffffffffffffffffff1614156114d85781600460008282546114d09190612225565b925050819055505b5b8273ffffffffffffffffffffffffffffffffffffffff163373ffffffffffffffffffffffffffffffffffffffff167fddf252ad1be2c89b69c2b068fc378daa952ba7f163c4a11628f55a4df523b3ef846040516115369190612074565b60405180910390a36001905092915050565b6000600654905090565b6000819050600084905080600760008060009054906101000a900473ffffffffffffffffffffffffffffffffffffffff1673ffffffffffffffffffffffffffffffffffffffff1673ffffffffffffffffffffffffffffffffffffffff1681526020019081526020016000205410156115c957600080fd5b60006040518061010001604052808c81526020018b73ffffffffffffffffffffffffffffffffffffffff1681526020018a73ffffffffffffffffffffffffffffffffffffffff1681526020018973ffffffffffffffffffffffffffffffffffffffff1681526020018881526020018781526020018681526020018581525090508060098460405161165a9190611fe3565b90815260200160405180910390206000820151816000015560208201518160010160006101000a81548173ffffffffffffffffffffffffffffffffffffffff021916908373ffffffffffffffffffffffffffffffffffffffff16021790555060408201518160020160006101000a81548173ffffffffffffffffffffffffffffffffffffffff021916908373ffffffffffffffffffffffffffffffffffffffff16021790555060608201518160030160006101000a81548173ffffffffffffffffffffffffffffffffffffffff021916908373ffffffffffffffffffffffffffffffffffffffff1602179055506080820151816004015560a0820151816005015560c0820151816006019080519060200190611777929190611a80565b5060e0820151816007019080519060200190611794929190611a80565b5090505085600660008282546117aa91906121cf565b9250508190555085600760008060009054906101000a900473ffffffffffffffffffffffffffffffffffffffff1673ffffffffffffffffffffffffffffffffffffffff1673ffffffffffffffffffffffffffffffffffffffff16815260200190815260200160002060008282546118219190612225565b92505081905550856004600082825461183a91906121cf565b9250508190555060008054906101000a900473ffffffffffffffffffffffffffffffffffffffff1673ffffffffffffffffffffffffffffffffffffffff167f6102287f605478258a2642398d5267cdbd022f0e4d3b21339d8c9a3f541a4f31876040516118a79190612074565b60405180910390a25050505050505050505050565b80600654116118ca57600080fd5b60006009846040516118dc9190611fe3565b908152602001604051809103902060010160009054906101000a900473ffffffffffffffffffffffffffffffffffffffff1690503373ffffffffffffffffffffffffffffffffffffffff168173ffffffffffffffffffffffffffffffffffffffff161461194857600080fd5b816006600082825461195a9190612225565b9250508190555061196b83836112c5565b5050505050565b6000600860008473ffffffffffffffffffffffffffffffffffffffff1673ffffffffffffffffffffffffffffffffffffffff16815260200190815260200160002060008373ffffffffffffffffffffffffffffffffffffffff1673ffffffffffffffffffffffffffffffffffffffff16815260200190815260200160002054905092915050565b60405180610100016040528060008152602001600073ffffffffffffffffffffffffffffffffffffffff168152602001600073ffffffffffffffffffffffffffffffffffffffff168152602001600073ffffffffffffffffffffffffffffffffffffffff168152602001600081526020016000815260200160608152602001606081525090565b828054611a8c906122f0565b90600052602060002090601f016020900481019282611aae5760008555611af5565b82601f10611ac757805160ff1916838001178555611af5565b82800160010185558215611af5579182015b82811115611af4578251825591602001919060010190611ad9565b5b509050611b029190611b06565b5090565b5b80821115611b1f576000816000905550600101611b07565b5090565b6000611b36611b3184612167565b612136565b905082815260208101848484011115611b4e57600080fd5b611b598482856122ae565b509392505050565b600081359050611b70816123c0565b92915050565b600082601f830112611b8757600080fd5b8135611b97848260208601611b23565b91505092915050565b600081359050611baf816123d7565b92915050565b600060208284031215611bc757600080fd5b6000611bd584828501611b61565b91505092915050565b60008060408385031215611bf157600080fd5b6000611bff85828601611b61565b9250506020611c1085828601611b61565b9150509250929050565b600080600060608486031215611c2f57600080fd5b6000611c3d86828701611b61565b9350506020611c4e86828701611b61565b9250506040611c5f86828701611ba0565b9150509250925092565b60008060408385031215611c7c57600080fd5b6000611c8a85828601611b61565b9250506020611c9b85828601611ba0565b9150509250929050565b600060208284031215611cb757600080fd5b600082013567ffffffffffffffff811115611cd157600080fd5b611cdd84828501611b76565b91505092915050565b600080600060608486031215611cfb57600080fd5b600084013567ffffffffffffffff811115611d1557600080fd5b611d2186828701611b76565b9350506020611d3286828701611b61565b9250506040611d4386828701611ba0565b9150509250925092565b600080600080600080600080610100898b031215611d6a57600080fd5b6000611d788b828c01611ba0565b9850506020611d898b828c01611b61565b9750506040611d9a8b828c01611b61565b9650506060611dab8b828c01611b61565b9550506080611dbc8b828c01611ba0565b94505060a0611dcd8b828c01611ba0565b93505060c089013567ffffffffffffffff811115611dea57600080fd5b611df68b828c01611b76565b92505060e089013567ffffffffffffffff811115611e1357600080fd5b611e1f8b828c01611b76565b9150509295985092959890939650565b611e3881612259565b82525050565b611e4781612259565b82525050565b611e568161226b565b82525050565b6000611e6782612197565b611e7181856121a2565b9350611e818185602086016122bd565b611e8a816123af565b840191505092915050565b6000611ea082612197565b611eaa81856121b3565b9350611eba8185602086016122bd565b611ec3816123af565b840191505092915050565b6000611ed982612197565b611ee381856121c4565b9350611ef38185602086016122bd565b80840191505092915050565b600061010083016000830151611f186000860182611fb6565b506020830151611f2b6020860182611e2f565b506040830151611f3e6040860182611e2f565b506060830151611f516060860182611e2f565b506080830151611f646080860182611fb6565b5060a0830151611f7760a0860182611fb6565b5060c083015184820360c0860152611f8f8282611e5c565b91505060e083015184820360e0860152611fa98282611e5c565b9150508091505092915050565b611fbf81612297565b82525050565b611fce81612297565b82525050565b611fdd816122a1565b82525050565b6000611fef8284611ece565b915081905092915050565b600060208201905061200f6000830184611e3e565b92915050565b600060208201905061202a6000830184611e4d565b92915050565b6000602082019050818103600083015261204a8184611e95565b905092915050565b6000602082019050818103600083015261206c8184611eff565b905092915050565b60006020820190506120896000830184611fc5565b92915050565b6000610100820190506120a5600083018b611fc5565b6120b2602083018a611e3e565b6120bf6040830189611e3e565b6120cc6060830188611e3e565b6120d96080830187611fc5565b6120e660a0830186611fc5565b81810360c08301526120f88185611e95565b905081810360e083015261210c8184611e95565b90509998505050505050505050565b60006020820190506121306000830184611fd4565b92915050565b6000604051905081810181811067ffffffffffffffff8211171561215d5761215c612380565b5b8060405250919050565b600067ffffffffffffffff82111561218257612181612380565b5b601f19601f8301169050602081019050919050565b600081519050919050565b600082825260208201905092915050565b600082825260208201905092915050565b600081905092915050565b60006121da82612297565b91506121e583612297565b9250827fffffffffffffffffffffffffffffffffffffffffffffffffffffffffffffffff0382111561221a57612219612322565b5b828201905092915050565b600061223082612297565b915061223b83612297565b92508282101561224e5761224d612322565b5b828203905092915050565b600061226482612277565b9050919050565b60008115159050919050565b600073ffffffffffffffffffffffffffffffffffffffff82169050919050565b6000819050919050565b600060ff82169050919050565b82818337600083830152505050565b60005b838110156122db5780820151818401526020810190506122c0565b838111156122ea576000848401525b50505050565b6000600282049050600182168061230857607f821691505b6020821081141561231c5761231b612351565b5b50919050565b7f4e487b7100000000000000000000000000000000000000000000000000000000600052601160045260246000fd5b7f4e487b7100000000000000000000000000000000000000000000000000000000600052602260045260246000fd5b7f4e487b7100000000000000000000000000000000000000000000000000000000600052604160045260246000fd5b6000601f19601f8301169050919050565b6123c981612259565b81146123d457600080fd5b50565b6123e081612297565b81146123eb57600080fd5b5056fea2646970667358221220f94af76c984b119862b343a8854fe9d71d760ed8c59b5b0df1fbfac49001bb9a64736f6c63430008000033",
  "immutableReferences": {},
  "source": "pragma solidity ^0.8.0;\nimport \"./_validators_hub.sol\"; \nimport \"./Hashurance_T.sol\";        //Imports Hashurance token\nimport \"./policy_contract.sol\";     //Imports policy contract to create and manage policies.\n\ncontract _InsurengineC{\n     //Hushurance token contract object.\n    HashuranceTokenC public hashuranceTokenC;\n    \n     //Holds the entire policies in the protocol.\n    PolicyC[] public policyArchieve;\n\n     //Validators hub contract object.\n    voteNvalidateC public validatorsHub;\n\n    // to validate if the require network is selected on metamask\n    bool public networkTypeBSC = true;\n\n     \n\n  struct ApplicationForm{\n      address applicant;       //Who is applying to be insured\n      string whatToInsure;     // Will convert to bytes later. //What item do you want to insure.\n      uint estimatedCost;      //What's your personal valuaton of this item.\n      uint applicationTime;    //Time of application.\n      uint toApproveCount;     //Number of validators who approved this application.\n      uint toDenyCount;        //Number of validators who declined this application. \n      uint finalDecision;      //0 = not decided, 2 = Declined, 4 = Approved.\n      string reasonForDenial;  //Possible reasons for a rejection.\n      string applicationID;      //Application Id.\n      uint prequelID;          //Previous application Id if this is a re-application.\n    }\n\n    \n\n  struct receiptTest {\n        uint blockNumber;\n        address from_; // use the address copy from etherscan or bscan not the one written through metamask\n        address to_contract_addr;\n        address receiver;\n        uint paymentTime;\n        uint value;\n        string transactionHash;\n        string applicationID;\n    }\n\n\n    struct valDouble {\n      receiptTest receiptTe;\n      inputApplyForm tempForm;\n    }\n\n\n//Stores all insurance applications, before they get approved and transformed to a policy.\n    ApplicationForm[] public applications;\n\n    // struct for input data of form \n     struct inputApplyForm{ \n      string insureName; \n      uint estimatedCost;\n      string applicationID;  \n      uint prequelID;  \n      string insurerAddress;\n      uint initialDeposit;\n      string estimatedTenure;      \n    }\n\n  constructor(address vHubAddress){\n      hashuranceTokenC = new HashuranceTokenC(msg.sender); //Creates instance of Hashurance token.\n      validatorsHub = voteNvalidateC(vHubAddress);\n      }\n\n  function getAppication(string memory applicationID)public view returns(ApplicationForm memory){\n    //   ApplicationForm memory form = applications[applId];\n    //   return form;\n\n      uint i;\n    \n  for(i = 0; i < applications.length; i++)\n  {\n   \n    if((keccak256(abi.encodePacked((applications[i].applicationID))) == keccak256(abi.encodePacked((applicationID)))))\n    {\n        \n        // ApplicationForm memory form = applications[i];\n      return applications[i];\n    }\n  }\n    \n//   if(i >= arr.length)\n//     return false;\n// }\n\n    }\n\n  function submitPremium(address policyAddress, receiptTest memory receipt, uint direction)public returns(bool){\n       //Confirm and process funds.\n       receipt.paymentTime = block.timestamp; //Will later change this to the timestamp returned at the front end.\n       hashuranceTokenC.transfer(policyAddress, receipt.value); //Move HSHT to policy contract.\n       PolicyC destinationPolicy = PolicyC(policyAddress);\n       destinationPolicy.logPremiumHistory(receipt.paymentTime, receipt.value);\n       if(direction == 3){ //True when its time to withdraw.\n           //Transfer principal amount of tokens from policy account to holder's account.\n           hashuranceTokenC.transferFrom(policyAddress, destinationPolicy.policy_Holder(), destinationPolicy.Principal());\n       }\n       return true;\n  }\n\n  \n\n    function reformReceipt(receiptTest memory _receipt_)private view returns(HashuranceTokenC.receiptTemplate memory){\n      //Transfer BUSD to Hashurance Engine at frontend and wait for a response (transaction hash).\n      //Use the response to create a receipt then call this function.\n\n      //Confirm payment of BUSD from the CALLER of this function (applicant).\n      //Use the response to send (separate and lock) the Hashsurance token equivalent of BUSD that was sent by the applicant.\n    \n    \n      HashuranceTokenC.receiptTemplate memory receipt_toToken;  //Expensive means, but it can work till we find an alternative. \n    \n    receipt_toToken.from_ = _receipt_.from_;\n      receipt_toToken.to_contract_addr = _receipt_.to_contract_addr;\n      receipt_toToken.paymentTime = block.timestamp;\n      receipt_toToken.receiver = _receipt_.receiver;\n      receipt_toToken.value = _receipt_.value;\n      receipt_toToken.transactionHash = _receipt_.transactionHash;\n      receipt_toToken.applicationID = _receipt_.applicationID;\n    receipt_toToken.blockNumber = _receipt_.blockNumber;\n      return receipt_toToken;\n  }\n\n  function prepForInspection(string memory applicationID, uint decision,\n   string memory reason)public returns(bool){\n      \n    uint i;\n    \n  for(i = 0; i < applications.length; i++)\n  {\n    if((keccak256(abi.encodePacked((applications[i].applicationID))) == keccak256(abi.encodePacked((applicationID)))))\n    {\n      ApplicationForm memory aForm = applications[i];\n      aForm.reasonForDenial = reason; //Save the lastest reason, if its not empty.\n      uint[3] memory returnedValues = validatorsHub.inspect(applicationID,decision, aForm.toApproveCount, aForm.toDenyCount);\n      aForm.toApproveCount = returnedValues[0];\n      aForm.toDenyCount = returnedValues[1];\n      aForm.finalDecision = returnedValues[2];\n      if(aForm.finalDecision == 4){\n           //Clear reasons for denial, entered by validators, if the application was approved.\n          aForm.reasonForDenial = \"N/A\";\n      }\n      applications[i] = aForm;\n      return true;\n    }\n  }\n    \n  \n}\n      \n  \n\n  function prepForClaimInspection(address policyAddress, uint decision, string memory reason)public returns(bool){\n      PolicyC destinationPolicy = PolicyC(policyAddress);\n      uint[3] memory returnedValues = validatorsHub.inspectClaimRequest(\n          policyAddress,\n          decision,\n          destinationPolicy.toApproveCount(),\n          destinationPolicy.toDenyCount());\n      destinationPolicy.enterInspectionResult(returnedValues[0], returnedValues[1], returnedValues[2]);\n      destinationPolicy.prepForWithdrawal(address(hashuranceTokenC));\n      return true;\n  }\n\n  function createPolicyC(string memory applicationID) public{\n      uint i;\n      for(i = 0; i < applications.length; i++)\n  {\n    if((keccak256(abi.encodePacked((applications[i].applicationID))) == keccak256(abi.encodePacked((applicationID)))))\n    {\n        ApplicationForm memory approvedApplication = applications[i]; //Might conme back to this later.\n      require(msg.sender == approvedApplication.applicant, \"Not the applicant\");\n      require(approvedApplication.finalDecision == 4, \"Not approved\");  //If its approved;\n      HashuranceTokenC.receiptTemplate memory _templat = hashuranceTokenC.getReceipts(applicationID);\n      PolicyC policy_ = new PolicyC(\n          approvedApplication.applicant, \n          applicationID, \n          approvedApplication.whatToInsure, \n          approvedApplication.estimatedCost,\n          _templat.value,\n          _templat.paymentTime,\n          address(hashuranceTokenC));\n      policy_.computeVariables();\n      policyArchieve.push(policy_);\n       //Release equivalent HSHT funds, previously minted, to newly created policy contract.\n      hashuranceTokenC.purgeDepoPool(applicationID, address(policy_), _templat.value);\n    }\n  }\n      \n    }\n\n    function claimInsurance(address policyAddress)public{\n        PolicyC destinationPolicy = PolicyC(policyAddress);\n         //Ensures the claimer is the holder of this policy.\n        require(msg.sender == destinationPolicy.policy_Holder(), \"Cannot claim!\");\n        destinationPolicy.claim();\n    }\n\n    function withdrawFromPolicy(address policyAddress)public{\n        PolicyC destinationPolicy = PolicyC(policyAddress);\n         //Ensures the claimer is the holder of this policy.\n        require(msg.sender == destinationPolicy.policy_Holder(), \"Restricted!\");\n        hashuranceTokenC.transferFrom(address(destinationPolicy), destinationPolicy.policy_Holder(), destinationPolicy.Principal());\n    }\n\n     // to check network selected\n    function checkNetwork() external view returns(bool) {\n    return networkTypeBSC;\n  }\n\n    // to get token name\nfunction getHashTokenName() external view returns(string memory) {\n    return hashuranceTokenC.getTokenName();\n      \n  }\n\n  // return all the list of policies\n  function getPolicies() public view returns(PolicyC[] memory) {\n    return policyArchieve;\n  }\n\n// return list of policy for a particular user\n  function getPolicy() public view returns(PolicyC[] memory) {\n    return policyArchieve;\n  }\n\n  // return total count of all policies\n  function getPoliciesCount() public view returns(uint) {\n    uint countPolicy = policyArchieve.length;\n    return countPolicy;\n  }\n\n  function getApplications() public view returns(ApplicationForm[] memory) {\n      return applications;\n  } \n\n  function testInpt(inputApplyForm memory inputData, receiptTest memory _receipt) public returns(uint, string memory){\n\n      string memory appId= _receipt.applicationID;\n      uint est = inputData.estimatedCost;\n      return (est,appId);\n  }\n\n  function applyForInsurance(inputApplyForm memory inputData, receiptTest memory _receipt) public   returns(bool){\n\n     \n  //Confirm and process funds.\n       _receipt.paymentTime = block.timestamp;\n       string memory appID = inputData.applicationID;\n       receiptTest memory _dataSt = receiptTest(_receipt.blockNumber, _receipt.from_, _receipt.to_contract_addr,_receipt.receiver, _receipt.paymentTime, _receipt.value, _receipt.transactionHash, _receipt.applicationID);\n\n      HashuranceTokenC.receiptTemplate memory _data = reformReceipt(_dataSt);\n      hashuranceTokenC.updateDepoPoolEx(_data.blockNumber,\n      _data.from_, _data.to_contract_addr,\n      _data.receiver, _data.paymentTime, _data.value,\n      _data.transactionHash, _data.applicationID);\n     ApplicationForm memory newApplicationForm = ApplicationForm(msg.sender, inputData.insureName, inputData.estimatedCost, block.timestamp, 0, 0, 0, \"N/A\", inputData.applicationID, inputData.prequelID); //Application form filled, with approved variable set to false.\n      applications.push(newApplicationForm);\n    \n    //Add user to validator's court, since he now has hashurance tokens locked within the contract.\n      validatorsHub.addToCourt(msg.sender, _receipt.value);\n      return true;\n  }\n\nfunction getChidNumOfValidators() public  returns(uint){\n      return validatorsHub.getNumOfValidators();\n  }\n}",
  "sourcePath": "/Users/temitopealabi/Documents/personal/blockchain_training/videos/web3/CryptoInsurance15_demo/contracts/_Hashurance_engine.sol",
  "compiler": {
    "name": "solc",
    "version": "0.8.0+commit.c7dfd78e.Emscripten.clang"
  },
  "schemaVersion": "3.3.4",
  "updatedAt": "2021-05-21T15:30:31.780Z",
  "networkType": "ethereum",
  "devdoc": {
    "kind": "dev",
    "methods": {},
    "version": 1
  },
  "userdoc": {
    "kind": "user",
    "methods": {},
    "version": 1
  }
}