{
  "contractName": "HashuranceTokenC",
  "abi": [
    {
      "inputs": [
        {
          "internalType": "address",
          "name": "owner",
          "type": "address"
        }
      ],
      "stateMutability": "nonpayable",
      "type": "constructor"
    },
    {
      "anonymous": false,
      "inputs": [
        {
          "indexed": true,
          "internalType": "address",
          "name": "_owner",
          "type": "address"
        },
        {
          "indexed": true,
          "internalType": "address",
          "name": "_spender",
          "type": "address"
        },
        {
          "indexed": false,
          "internalType": "uint256",
          "name": "_value",
          "type": "uint256"
        }
      ],
      "name": "Approval",
      "type": "event"
    },
    {
      "anonymous": false,
      "inputs": [
        {
          "indexed": true,
          "internalType": "address",
          "name": "_from",
          "type": "address"
        },
        {
          "indexed": false,
          "internalType": "uint256",
          "name": "_value",
          "type": "uint256"
        }
      ],
      "name": "Pendings",
      "type": "event"
    },
    {
      "anonymous": false,
      "inputs": [
        {
          "indexed": true,
          "internalType": "address",
          "name": "_from",
          "type": "address"
        },
        {
          "indexed": true,
          "internalType": "address",
          "name": "_to",
          "type": "address"
        },
        {
          "indexed": false,
          "internalType": "uint256",
          "name": "_value",
          "type": "uint256"
        }
      ],
      "name": "Transfer",
      "type": "event"
    },
    {
      "inputs": [],
      "name": "Curator",
      "outputs": [
        {
          "internalType": "address",
          "name": "",
          "type": "address"
        }
      ],
      "stateMutability": "view",
      "type": "function"
    },
    {
      "inputs": [
        {
          "internalType": "address",
          "name": "",
          "type": "address"
        },
        {
          "internalType": "address",
          "name": "",
          "type": "address"
        }
      ],
      "name": "allowed",
      "outputs": [
        {
          "internalType": "uint256",
          "name": "",
          "type": "uint256"
        }
      ],
      "stateMutability": "view",
      "type": "function"
    },
    {
      "inputs": [
        {
          "internalType": "address",
          "name": "",
          "type": "address"
        }
      ],
      "name": "balances",
      "outputs": [
        {
          "internalType": "uint256",
          "name": "",
          "type": "uint256"
        }
      ],
      "stateMutability": "view",
      "type": "function"
    },
    {
      "inputs": [],
      "name": "circulatingSupply_",
      "outputs": [
        {
          "internalType": "uint256",
          "name": "",
          "type": "uint256"
        }
      ],
      "stateMutability": "view",
      "type": "function"
    },
    {
      "inputs": [],
      "name": "decimals",
      "outputs": [
        {
          "internalType": "uint8",
          "name": "",
          "type": "uint8"
        }
      ],
      "stateMutability": "view",
      "type": "function"
    },
    {
      "inputs": [],
      "name": "initDepositesTotal",
      "outputs": [
        {
          "internalType": "uint256",
          "name": "",
          "type": "uint256"
        }
      ],
      "stateMutability": "view",
      "type": "function"
    },
    {
      "inputs": [],
      "name": "name",
      "outputs": [
        {
          "internalType": "string",
          "name": "",
          "type": "string"
        }
      ],
      "stateMutability": "view",
      "type": "function"
    },
    {
      "inputs": [
        {
          "internalType": "string",
          "name": "",
          "type": "string"
        }
      ],
      "name": "receipts",
      "outputs": [
        {
          "internalType": "uint256",
          "name": "blockNumber",
          "type": "uint256"
        },
        {
          "internalType": "address",
          "name": "from_",
          "type": "address"
        },
        {
          "internalType": "address",
          "name": "to_contract_addr",
          "type": "address"
        },
        {
          "internalType": "address",
          "name": "receiver",
          "type": "address"
        },
        {
          "internalType": "uint256",
          "name": "paymentTime",
          "type": "uint256"
        },
        {
          "internalType": "uint256",
          "name": "value",
          "type": "uint256"
        },
        {
          "internalType": "string",
          "name": "transactionHash",
          "type": "string"
        },
        {
          "internalType": "string",
          "name": "applicationID",
          "type": "string"
        }
      ],
      "stateMutability": "view",
      "type": "function"
    },
    {
      "inputs": [],
      "name": "symbol",
      "outputs": [
        {
          "internalType": "string",
          "name": "",
          "type": "string"
        }
      ],
      "stateMutability": "view",
      "type": "function"
    },
    {
      "inputs": [],
      "name": "totalSupply_",
      "outputs": [
        {
          "internalType": "uint256",
          "name": "",
          "type": "uint256"
        }
      ],
      "stateMutability": "view",
      "type": "function"
    },
    {
      "inputs": [],
      "name": "totalSupply",
      "outputs": [
        {
          "internalType": "uint256",
          "name": "",
          "type": "uint256"
        }
      ],
      "stateMutability": "view",
      "type": "function"
    },
    {
      "inputs": [
        {
          "internalType": "string",
          "name": "idKey",
          "type": "string"
        }
      ],
      "name": "getReceipt",
      "outputs": [
        {
          "components": [
            {
              "internalType": "uint256",
              "name": "blockNumber",
              "type": "uint256"
            },
            {
              "internalType": "address",
              "name": "from_",
              "type": "address"
            },
            {
              "internalType": "address",
              "name": "to_contract_addr",
              "type": "address"
            },
            {
              "internalType": "address",
              "name": "receiver",
              "type": "address"
            },
            {
              "internalType": "uint256",
              "name": "paymentTime",
              "type": "uint256"
            },
            {
              "internalType": "uint256",
              "name": "value",
              "type": "uint256"
            },
            {
              "internalType": "string",
              "name": "transactionHash",
              "type": "string"
            },
            {
              "internalType": "string",
              "name": "applicationID",
              "type": "string"
            }
          ],
          "internalType": "struct HashuranceTokenC.receiptTemplate",
          "name": "",
          "type": "tuple"
        }
      ],
      "stateMutability": "view",
      "type": "function"
    },
    {
      "inputs": [],
      "name": "circulatingSupply",
      "outputs": [
        {
          "internalType": "uint256",
          "name": "",
          "type": "uint256"
        }
      ],
      "stateMutability": "view",
      "type": "function"
    },
    {
      "inputs": [
        {
          "internalType": "address",
          "name": "_owner",
          "type": "address"
        }
      ],
      "name": "balanceOf",
      "outputs": [
        {
          "internalType": "uint256",
          "name": "",
          "type": "uint256"
        }
      ],
      "stateMutability": "view",
      "type": "function"
    },
    {
      "inputs": [
        {
          "internalType": "address",
          "name": "_owner",
          "type": "address"
        },
        {
          "internalType": "address",
          "name": "_spender",
          "type": "address"
        }
      ],
      "name": "allowance",
      "outputs": [
        {
          "internalType": "uint256",
          "name": "remaining",
          "type": "uint256"
        }
      ],
      "stateMutability": "view",
      "type": "function"
    },
    {
      "inputs": [
        {
          "internalType": "address",
          "name": "_spender",
          "type": "address"
        },
        {
          "internalType": "uint256",
          "name": "_value",
          "type": "uint256"
        }
      ],
      "name": "approve",
      "outputs": [
        {
          "internalType": "bool",
          "name": "success",
          "type": "bool"
        }
      ],
      "stateMutability": "nonpayable",
      "type": "function"
    },
    {
      "inputs": [
        {
          "internalType": "address",
          "name": "_to",
          "type": "address"
        },
        {
          "internalType": "uint256",
          "name": "_value",
          "type": "uint256"
        }
      ],
      "name": "transfer",
      "outputs": [
        {
          "internalType": "bool",
          "name": "",
          "type": "bool"
        }
      ],
      "stateMutability": "nonpayable",
      "type": "function"
    },
    {
      "inputs": [
        {
          "internalType": "address",
          "name": "_from",
          "type": "address"
        },
        {
          "internalType": "address",
          "name": "_to",
          "type": "address"
        },
        {
          "internalType": "uint256",
          "name": "_value",
          "type": "uint256"
        }
      ],
      "name": "transferFrom",
      "outputs": [
        {
          "internalType": "bool",
          "name": "",
          "type": "bool"
        }
      ],
      "stateMutability": "nonpayable",
      "type": "function"
    },
    {
      "inputs": [
        {
          "internalType": "uint256",
          "name": "blockNumber",
          "type": "uint256"
        },
        {
          "internalType": "address",
          "name": "_from_",
          "type": "address"
        },
        {
          "internalType": "address",
          "name": "_to_contract_addr",
          "type": "address"
        },
        {
          "internalType": "address",
          "name": "_receiver",
          "type": "address"
        },
        {
          "internalType": "uint256",
          "name": "_paymentTime",
          "type": "uint256"
        },
        {
          "internalType": "uint256",
          "name": "_value",
          "type": "uint256"
        },
        {
          "internalType": "string",
          "name": "_transactionHash",
          "type": "string"
        },
        {
          "internalType": "string",
          "name": "_applicationID",
          "type": "string"
        }
      ],
      "name": "updateDepoPoolEx",
      "outputs": [],
      "stateMutability": "nonpayable",
      "type": "function"
    },
    {
      "inputs": [
        {
          "internalType": "string",
          "name": "appliId",
          "type": "string"
        },
        {
          "internalType": "address",
          "name": "to_contract_addr",
          "type": "address"
        },
        {
          "internalType": "uint256",
          "name": "_value",
          "type": "uint256"
        }
      ],
      "name": "purgeDepoPool",
      "outputs": [],
      "stateMutability": "nonpayable",
      "type": "function"
    },
    {
      "inputs": [],
      "name": "getTokenName",
      "outputs": [
        {
          "internalType": "string",
          "name": "",
          "type": "string"
        }
      ],
      "stateMutability": "view",
      "type": "function"
    },
    {
      "inputs": [
        {
          "internalType": "string",
          "name": "applicationID",
          "type": "string"
        }
      ],
      "name": "getReceipts",
      "outputs": [
        {
          "components": [
            {
              "internalType": "uint256",
              "name": "blockNumber",
              "type": "uint256"
            },
            {
              "internalType": "address",
              "name": "from_",
              "type": "address"
            },
            {
              "internalType": "address",
              "name": "to_contract_addr",
              "type": "address"
            },
            {
              "internalType": "address",
              "name": "receiver",
              "type": "address"
            },
            {
              "internalType": "uint256",
              "name": "paymentTime",
              "type": "uint256"
            },
            {
              "internalType": "uint256",
              "name": "value",
              "type": "uint256"
            },
            {
              "internalType": "string",
              "name": "transactionHash",
              "type": "string"
            },
            {
              "internalType": "string",
              "name": "applicationID",
              "type": "string"
            }
          ],
          "internalType": "struct HashuranceTokenC.receiptTemplate",
          "name": "",
          "type": "tuple"
        }
      ],
      "stateMutability": "view",
      "type": "function"
    },
    {
      "inputs": [],
      "name": "getDepositesTotals",
      "outputs": [
        {
          "internalType": "uint256",
          "name": "",
          "type": "uint256"
        }
      ],
      "stateMutability": "view",
      "type": "function"
    }
  ],
  "bytecode": "0x60806040526040518060400160405280601081526020017f486173687572616e636520546f6b656e0000000000000000000000000000000081525060019080519060200190620000519291906200019b565b506040518060400160405280600481526020017f4853485400000000000000000000000000000000000000000000000000000000815250600290805190602001906200009f9291906200019b565b506a01bcb13a657b26388000006003556012600560006101000a81548160ff021916908360ff160217905550348015620000d857600080fd5b5060405162002775380380620027758339818101604052810190620000fe919062000262565b806000806101000a81548173ffffffffffffffffffffffffffffffffffffffff021916908373ffffffffffffffffffffffffffffffffffffffff160217905550600354600760008373ffffffffffffffffffffffffffffffffffffffff1673ffffffffffffffffffffffffffffffffffffffff16815260200190815260200160002081905550600060048190555060006006819055505062000341565b828054620001a990620002c2565b90600052602060002090601f016020900481019282620001cd576000855562000219565b82601f10620001e857805160ff191683800117855562000219565b8280016001018555821562000219579182015b8281111562000218578251825591602001919060010190620001fb565b5b5090506200022891906200022c565b5090565b5b80821115620002475760008160009055506001016200022d565b5090565b6000815190506200025c8162000327565b92915050565b6000602082840312156200027557600080fd5b600062000285848285016200024b565b91505092915050565b60006200029b82620002a2565b9050919050565b600073ffffffffffffffffffffffffffffffffffffffff82169050919050565b60006002820490506001821680620002db57607f821691505b60208210811415620002f257620002f1620002f8565b5b50919050565b7f4e487b7100000000000000000000000000000000000000000000000000000000600052602260045260246000fd5b62000332816200028e565b81146200033e57600080fd5b50565b61242480620003516000396000f3fe608060405234801561001057600080fd5b506004361061014d5760003560e01c80635c658165116100c357806395d89b411161007c57806395d89b41146103e7578063a9059cbb14610405578063b8a84cdc14610435578063c279cc2014610453578063d69a0efc1461046f578063dd62ed3e1461048b5761014d565b80635c658165146102f657806363bedff61461032657806370a082311461034457806380721bb914610374578063862b092b146103ab5780639358928b146103c95761014d565b806327e235e31161011557806327e235e31461020c578063313ce5671461023c578063324536eb1461025a57806339fa66c9146102785780633d5b62c4146102a85780635275dadc146102d85761014d565b806302d3bd161461015257806306fdde0314610170578063095ea7b31461018e57806318160ddd146101be57806323b872dd146101dc575b600080fd5b61015a6104bb565b6040516101679190612074565b60405180910390f35b6101786104c1565b6040516101859190612030565b60405180910390f35b6101a860048036038101906101a39190611c69565b61054f565b6040516101b59190612015565b60405180910390f35b6101c6610641565b6040516101d39190612074565b60405180910390f35b6101f660048036038101906101f19190611c1a565b61064b565b6040516102039190612015565b60405180910390f35b61022660048036038101906102219190611bb5565b6109b2565b6040516102339190612074565b60405180910390f35b6102446109ca565b604051610251919061211b565b60405180910390f35b6102626109dd565b60405161026f9190612074565b60405180910390f35b610292600480360381019061028d9190611ca5565b6109e3565b60405161029f9190612052565b60405180910390f35b6102c260048036038101906102bd9190611ca5565b610c60565b6040516102cf9190612052565b60405180910390f35b6102e0610edd565b6040516102ed9190611ffa565b60405180910390f35b610310600480360381019061030b9190611bde565b610f01565b60405161031d9190612074565b60405180910390f35b61032e610f26565b60405161033b9190612074565b60405180910390f35b61035e60048036038101906103599190611bb5565b610f2c565b60405161036b9190612074565b60405180910390f35b61038e60048036038101906103899190611ca5565b610f75565b6040516103a298979695949392919061208f565b60405180910390f35b6103b3611143565b6040516103c09190612030565b60405180910390f35b6103d161122d565b6040516103de9190612074565b60405180910390f35b6103ef611237565b6040516103fc9190612030565b60405180910390f35b61041f600480360381019061041a9190611c69565b6112c5565b60405161042c9190612015565b60405180910390f35b61043d611548565b60405161044a9190612074565b60405180910390f35b61046d60048036038101906104689190611d4d565b611552565b005b61048960048036038101906104849190611ce6565b6118bc565b005b6104a560048036038101906104a09190611bde565b611972565b6040516104b29190612074565b60405180910390f35b60045481565b600180546104ce906122f0565b80601f01602080910402602001604051908101604052809291908181526020018280546104fa906122f0565b80156105475780601f1061051c57610100808354040283529160200191610547565b820191906000526020600020905b81548152906001019060200180831161052a57829003601f168201915b505050505081565b600081600860003373ffffffffffffffffffffffffffffffffffffffff1673ffffffffffffffffffffffffffffffffffffffff16815260200190815260200160002060008573ffffffffffffffffffffffffffffffffffffffff1673ffffffffffffffffffffffffffffffffffffffff168152602001908152602001600020819055508273ffffffffffffffffffffffffffffffffffffffff163373ffffffffffffffffffffffffffffffffffffffff167f8c5be1e5ebec7d5bd14f71427d1e84f3dd0314c0f7b2291e5b200ac8c7c3b9258460405161062f9190612074565b60405180910390a36001905092915050565b6000600354905090565b6000600760008573ffffffffffffffffffffffffffffffffffffffff1673ffffffffffffffffffffffffffffffffffffffff1681526020019081526020016000205482111561069957600080fd5b600860008573ffffffffffffffffffffffffffffffffffffffff1673ffffffffffffffffffffffffffffffffffffffff16815260200190815260200160002060003373ffffffffffffffffffffffffffffffffffffffff1673ffffffffffffffffffffffffffffffffffffffff1681526020019081526020016000205482111561072257600080fd5b81600760008673ffffffffffffffffffffffffffffffffffffffff1673ffffffffffffffffffffffffffffffffffffffff16815260200190815260200160002060008282546107719190612225565b9250508190555081600760008573ffffffffffffffffffffffffffffffffffffffff1673ffffffffffffffffffffffffffffffffffffffff16815260200190815260200160002060008282546107c791906121cf565b9250508190555081600860008673ffffffffffffffffffffffffffffffffffffffff1673ffffffffffffffffffffffffffffffffffffffff16815260200190815260200160002060003373ffffffffffffffffffffffffffffffffffffffff1673ffffffffffffffffffffffffffffffffffffffff168152602001908152602001600020600082825461085a9190612225565b9250508190555060008054906101000a900473ffffffffffffffffffffffffffffffffffffffff1673ffffffffffffffffffffffffffffffffffffffff168473ffffffffffffffffffffffffffffffffffffffff1614156108d35781600460008282546108c791906121cf565b92505081905550610942565b60008054906101000a900473ffffffffffffffffffffffffffffffffffffffff1673ffffffffffffffffffffffffffffffffffffffff168373ffffffffffffffffffffffffffffffffffffffff1614156109415781600460008282546109399190612225565b925050819055505b5b8273ffffffffffffffffffffffffffffffffffffffff168473ffffffffffffffffffffffffffffffffffffffff167fddf252ad1be2c89b69c2b068fc378daa952ba7f163c4a11628f55a4df523b3ef8460405161099f9190612074565b60405180910390a3600190509392505050565b60076020528060005260406000206000915090505481565b600560009054906101000a900460ff1681565b60035481565b6109eb6119f9565b6009826040516109fb9190611fe3565b908152602001604051809103902060405180610100016040529081600082015481526020016001820160009054906101000a900473ffffffffffffffffffffffffffffffffffffffff1673ffffffffffffffffffffffffffffffffffffffff1673ffffffffffffffffffffffffffffffffffffffff1681526020016002820160009054906101000a900473ffffffffffffffffffffffffffffffffffffffff1673ffffffffffffffffffffffffffffffffffffffff1673ffffffffffffffffffffffffffffffffffffffff1681526020016003820160009054906101000a900473ffffffffffffffffffffffffffffffffffffffff1673ffffffffffffffffffffffffffffffffffffffff1673ffffffffffffffffffffffffffffffffffffffff1681526020016004820154815260200160058201548152602001600682018054610b45906122f0565b80601f0160208091040260200160405190810160405280929190818152602001828054610b71906122f0565b8015610bbe5780601f10610b9357610100808354040283529160200191610bbe565b820191906000526020600020905b815481529060010190602001808311610ba157829003601f168201915b50505050508152602001600782018054610bd7906122f0565b80601f0160208091040260200160405190810160405280929190818152602001828054610c03906122f0565b8015610c505780601f10610c2557610100808354040283529160200191610c50565b820191906000526020600020905b815481529060010190602001808311610c3357829003601f168201915b5050505050815250509050919050565b610c686119f9565b600982604051610c789190611fe3565b908152602001604051809103902060405180610100016040529081600082015481526020016001820160009054906101000a900473ffffffffffffffffffffffffffffffffffffffff1673ffffffffffffffffffffffffffffffffffffffff1673ffffffffffffffffffffffffffffffffffffffff1681526020016002820160009054906101000a900473ffffffffffffffffffffffffffffffffffffffff1673ffffffffffffffffffffffffffffffffffffffff1673ffffffffffffffffffffffffffffffffffffffff1681526020016003820160009054906101000a900473ffffffffffffffffffffffffffffffffffffffff1673ffffffffffffffffffffffffffffffffffffffff1673ffffffffffffffffffffffffffffffffffffffff1681526020016004820154815260200160058201548152602001600682018054610dc2906122f0565b80601f0160208091040260200160405190810160405280929190818152602001828054610dee906122f0565b8015610e3b5780601f10610e1057610100808354040283529160200191610e3b565b820191906000526020600020905b815481529060010190602001808311610e1e57829003601f168201915b50505050508152602001600782018054610e54906122f0565b80601f0160208091040260200160405190810160405280929190818152602001828054610e80906122f0565b8015610ecd5780601f10610ea257610100808354040283529160200191610ecd565b820191906000526020600020905b815481529060010190602001808311610eb057829003601f168201915b5050505050815250509050919050565b60008054906101000a900473ffffffffffffffffffffffffffffffffffffffff1681565b6008602052816000526040600020602052806000526040600020600091509150505481565b60065481565b6000600760008373ffffffffffffffffffffffffffffffffffffffff1673ffffffffffffffffffffffffffffffffffffffff168152602001908152602001600020549050919050565b6009818051602081018201805184825260208301602085012081835280955050505050506000915090508060000154908060010160009054906101000a900473ffffffffffffffffffffffffffffffffffffffff16908060020160009054906101000a900473ffffffffffffffffffffffffffffffffffffffff16908060030160009054906101000a900473ffffffffffffffffffffffffffffffffffffffff1690806004015490806005015490806006018054611032906122f0565b80601f016020809104026020016040519081016040528092919081815260200182805461105e906122f0565b80156110ab5780601f10611080576101008083540402835291602001916110ab565b820191906000526020600020905b81548152906001019060200180831161108e57829003601f168201915b5050505050908060070180546110c0906122f0565b80601f01602080910402602001604051908101604052809291908181526020018280546110ec906122f0565b80156111395780601f1061110e57610100808354040283529160200191611139565b820191906000526020600020905b81548152906001019060200180831161111c57829003601f168201915b5050505050905088565b606060008054906101000a900473ffffffffffffffffffffffffffffffffffffffff1673ffffffffffffffffffffffffffffffffffffffff163373ffffffffffffffffffffffffffffffffffffffff161461119d57600080fd5b600180546111aa906122f0565b80601f01602080910402602001604051908101604052809291908181526020018280546111d6906122f0565b80156112235780601f106111f857610100808354040283529160200191611223565b820191906000526020600020905b81548152906001019060200180831161120657829003601f168201915b5050505050905090565b6000600454905090565b60028054611244906122f0565b80601f0160208091040260200160405190810160405280929190818152602001828054611270906122f0565b80156112bd5780601f10611292576101008083540402835291602001916112bd565b820191906000526020600020905b8154815290600101906020018083116112a057829003601f168201915b505050505081565b60008273ffffffffffffffffffffffffffffffffffffffff163373ffffffffffffffffffffffffffffffffffffffff16141561130057600080fd5b81600760003373ffffffffffffffffffffffffffffffffffffffff1673ffffffffffffffffffffffffffffffffffffffff16815260200190815260200160002054101561134c57600080fd5b81600760003373ffffffffffffffffffffffffffffffffffffffff1673ffffffffffffffffffffffffffffffffffffffff168152602001908152602001600020600082825461139b9190612225565b9250508190555081600760008573ffffffffffffffffffffffffffffffffffffffff1673ffffffffffffffffffffffffffffffffffffffff16815260200190815260200160002060008282546113f191906121cf565b9250508190555060008054906101000a900473ffffffffffffffffffffffffffffffffffffffff1673ffffffffffffffffffffffffffffffffffffffff163373ffffffffffffffffffffffffffffffffffffffff16141561146a57816004600082825461145e91906121cf565b925050819055506114d9565b60008054906101000a900473ffffffffffffffffffffffffffffffffffffffff1673ffffffffffffffffffffffffffffffffffffffff168373ffffffffffffffffffffffffffffffffffffffff1614156114d85781600460008282546114d09190612225565b925050819055505b5b8273ffffffffffffffffffffffffffffffffffffffff163373ffffffffffffffffffffffffffffffffffffffff167fddf252ad1be2c89b69c2b068fc378daa952ba7f163c4a11628f55a4df523b3ef846040516115369190612074565b60405180910390a36001905092915050565b6000600654905090565b6000819050600084905080600760008060009054906101000a900473ffffffffffffffffffffffffffffffffffffffff1673ffffffffffffffffffffffffffffffffffffffff1673ffffffffffffffffffffffffffffffffffffffff1681526020019081526020016000205410156115c957600080fd5b60006040518061010001604052808c81526020018b73ffffffffffffffffffffffffffffffffffffffff1681526020018a73ffffffffffffffffffffffffffffffffffffffff1681526020018973ffffffffffffffffffffffffffffffffffffffff1681526020018881526020018781526020018681526020018581525090508060098460405161165a9190611fe3565b90815260200160405180910390206000820151816000015560208201518160010160006101000a81548173ffffffffffffffffffffffffffffffffffffffff021916908373ffffffffffffffffffffffffffffffffffffffff16021790555060408201518160020160006101000a81548173ffffffffffffffffffffffffffffffffffffffff021916908373ffffffffffffffffffffffffffffffffffffffff16021790555060608201518160030160006101000a81548173ffffffffffffffffffffffffffffffffffffffff021916908373ffffffffffffffffffffffffffffffffffffffff1602179055506080820151816004015560a0820151816005015560c0820151816006019080519060200190611777929190611a80565b5060e0820151816007019080519060200190611794929190611a80565b5090505085600660008282546117aa91906121cf565b9250508190555085600760008060009054906101000a900473ffffffffffffffffffffffffffffffffffffffff1673ffffffffffffffffffffffffffffffffffffffff1673ffffffffffffffffffffffffffffffffffffffff16815260200190815260200160002060008282546118219190612225565b92505081905550856004600082825461183a91906121cf565b9250508190555060008054906101000a900473ffffffffffffffffffffffffffffffffffffffff1673ffffffffffffffffffffffffffffffffffffffff167f6102287f605478258a2642398d5267cdbd022f0e4d3b21339d8c9a3f541a4f31876040516118a79190612074565b60405180910390a25050505050505050505050565b80600654116118ca57600080fd5b60006009846040516118dc9190611fe3565b908152602001604051809103902060010160009054906101000a900473ffffffffffffffffffffffffffffffffffffffff1690503373ffffffffffffffffffffffffffffffffffffffff168173ffffffffffffffffffffffffffffffffffffffff161461194857600080fd5b816006600082825461195a9190612225565b9250508190555061196b83836112c5565b5050505050565b6000600860008473ffffffffffffffffffffffffffffffffffffffff1673ffffffffffffffffffffffffffffffffffffffff16815260200190815260200160002060008373ffffffffffffffffffffffffffffffffffffffff1673ffffffffffffffffffffffffffffffffffffffff16815260200190815260200160002054905092915050565b60405180610100016040528060008152602001600073ffffffffffffffffffffffffffffffffffffffff168152602001600073ffffffffffffffffffffffffffffffffffffffff168152602001600073ffffffffffffffffffffffffffffffffffffffff168152602001600081526020016000815260200160608152602001606081525090565b828054611a8c906122f0565b90600052602060002090601f016020900481019282611aae5760008555611af5565b82601f10611ac757805160ff1916838001178555611af5565b82800160010185558215611af5579182015b82811115611af4578251825591602001919060010190611ad9565b5b509050611b029190611b06565b5090565b5b80821115611b1f576000816000905550600101611b07565b5090565b6000611b36611b3184612167565b612136565b905082815260208101848484011115611b4e57600080fd5b611b598482856122ae565b509392505050565b600081359050611b70816123c0565b92915050565b600082601f830112611b8757600080fd5b8135611b97848260208601611b23565b91505092915050565b600081359050611baf816123d7565b92915050565b600060208284031215611bc757600080fd5b6000611bd584828501611b61565b91505092915050565b60008060408385031215611bf157600080fd5b6000611bff85828601611b61565b9250506020611c1085828601611b61565b9150509250929050565b600080600060608486031215611c2f57600080fd5b6000611c3d86828701611b61565b9350506020611c4e86828701611b61565b9250506040611c5f86828701611ba0565b9150509250925092565b60008060408385031215611c7c57600080fd5b6000611c8a85828601611b61565b9250506020611c9b85828601611ba0565b9150509250929050565b600060208284031215611cb757600080fd5b600082013567ffffffffffffffff811115611cd157600080fd5b611cdd84828501611b76565b91505092915050565b600080600060608486031215611cfb57600080fd5b600084013567ffffffffffffffff811115611d1557600080fd5b611d2186828701611b76565b9350506020611d3286828701611b61565b9250506040611d4386828701611ba0565b9150509250925092565b600080600080600080600080610100898b031215611d6a57600080fd5b6000611d788b828c01611ba0565b9850506020611d898b828c01611b61565b9750506040611d9a8b828c01611b61565b9650506060611dab8b828c01611b61565b9550506080611dbc8b828c01611ba0565b94505060a0611dcd8b828c01611ba0565b93505060c089013567ffffffffffffffff811115611dea57600080fd5b611df68b828c01611b76565b92505060e089013567ffffffffffffffff811115611e1357600080fd5b611e1f8b828c01611b76565b9150509295985092959890939650565b611e3881612259565b82525050565b611e4781612259565b82525050565b611e568161226b565b82525050565b6000611e6782612197565b611e7181856121a2565b9350611e818185602086016122bd565b611e8a816123af565b840191505092915050565b6000611ea082612197565b611eaa81856121b3565b9350611eba8185602086016122bd565b611ec3816123af565b840191505092915050565b6000611ed982612197565b611ee381856121c4565b9350611ef38185602086016122bd565b80840191505092915050565b600061010083016000830151611f186000860182611fb6565b506020830151611f2b6020860182611e2f565b506040830151611f3e6040860182611e2f565b506060830151611f516060860182611e2f565b506080830151611f646080860182611fb6565b5060a0830151611f7760a0860182611fb6565b5060c083015184820360c0860152611f8f8282611e5c565b91505060e083015184820360e0860152611fa98282611e5c565b9150508091505092915050565b611fbf81612297565b82525050565b611fce81612297565b82525050565b611fdd816122a1565b82525050565b6000611fef8284611ece565b915081905092915050565b600060208201905061200f6000830184611e3e565b92915050565b600060208201905061202a6000830184611e4d565b92915050565b6000602082019050818103600083015261204a8184611e95565b905092915050565b6000602082019050818103600083015261206c8184611eff565b905092915050565b60006020820190506120896000830184611fc5565b92915050565b6000610100820190506120a5600083018b611fc5565b6120b2602083018a611e3e565b6120bf6040830189611e3e565b6120cc6060830188611e3e565b6120d96080830187611fc5565b6120e660a0830186611fc5565b81810360c08301526120f88185611e95565b905081810360e083015261210c8184611e95565b90509998505050505050505050565b60006020820190506121306000830184611fd4565b92915050565b6000604051905081810181811067ffffffffffffffff8211171561215d5761215c612380565b5b8060405250919050565b600067ffffffffffffffff82111561218257612181612380565b5b601f19601f8301169050602081019050919050565b600081519050919050565b600082825260208201905092915050565b600082825260208201905092915050565b600081905092915050565b60006121da82612297565b91506121e583612297565b9250827fffffffffffffffffffffffffffffffffffffffffffffffffffffffffffffffff0382111561221a57612219612322565b5b828201905092915050565b600061223082612297565b915061223b83612297565b92508282101561224e5761224d612322565b5b828203905092915050565b600061226482612277565b9050919050565b60008115159050919050565b600073ffffffffffffffffffffffffffffffffffffffff82169050919050565b6000819050919050565b600060ff82169050919050565b82818337600083830152505050565b60005b838110156122db5780820151818401526020810190506122c0565b838111156122ea576000848401525b50505050565b6000600282049050600182168061230857607f821691505b6020821081141561231c5761231b612351565b5b50919050565b7f4e487b7100000000000000000000000000000000000000000000000000000000600052601160045260246000fd5b7f4e487b7100000000000000000000000000000000000000000000000000000000600052602260045260246000fd5b7f4e487b7100000000000000000000000000000000000000000000000000000000600052604160045260246000fd5b6000601f19601f8301169050919050565b6123c981612259565b81146123d457600080fd5b50565b6123e081612297565b81146123eb57600080fd5b5056fea2646970667358221220f94af76c984b119862b343a8854fe9d71d760ed8c59b5b0df1fbfac49001bb9a64736f6c63430008000033",
  "immutableReferences": {},
  "source": "pragma solidity ^0.8.0;\n\ncontract HashuranceTokenC{\n\n    struct receiptTemplate{\n        uint blockNumber;\n        address from_;\n        address to_contract_addr;\n        address receiver;\n        uint paymentTime;\n        uint value;\n        string transactionHash;\n        string applicationID;\n    }\n\n    address public Curator;\n    string  public name = \"Hashurance Token\";                      \n    string  public symbol = \"HSHT\";                             \n    uint256 public totalSupply_ = 2100000000000000000000000; //8 groups of 3zeros.\n    uint256 public circulatingSupply_;\n    uint8   public decimals = 18;\n    uint256 public initDepositesTotal; \n    mapping(address => uint256) public balances;\n    mapping(address => mapping(address => uint256)) public allowed;\n    //ApplicationID => receipt. Payment references to BUSD deposites;\n    mapping(string => receiptTemplate)public receipts;  //Still not so secure.\n\n\n    event Transfer(\n        address indexed _from,\n        address indexed _to,\n        uint256 _value\n    );\n\n    event Approval(\n        address indexed _owner,\n        address indexed _spender,\n        uint256 _value\n    );\n\n    event Pendings(\n        address indexed _from,\n        uint256 _value\n    );\n\n    //Hashurance engine will create hashsurance token and become owner (curator).\n    //Insurance engine token will be minted by this contract tranferring to users addresses\n    //and burnt by doing the reverse.\n    constructor(address owner) public{\n        Curator = owner;\n        balances[owner] = totalSupply_;\n        circulatingSupply_ = 0;\n        initDepositesTotal = 0;\n    }\n\n    // set modifier\n    modifier onlyCurator{\n        require(msg.sender == Curator);\n        _; \n    }\n\n    // Return total amount of tokens\n    function totalSupply() public view returns(uint256){\n        return totalSupply_;\n    }\n\n    function getReceipt(string memory idKey)public view returns(receiptTemplate memory){\n        return receipts[idKey];\n    }\n\n    // Return total amount of tokens in Circulation.\n    function circulatingSupply() public view returns (uint256) {\n        return circulatingSupply_;\n    }\n\n    function balanceOf(address _owner) public view returns(uint256){\n        return balances[_owner];\n    }\n\n    function allowance(address _owner, address _spender) public view returns (uint256 remaining) {\n        return allowed[_owner][_spender];\n    }\n\n    function approve(address _spender, uint256 _value) public returns(bool success){\n        allowed[msg.sender][_spender] = _value;\n        emit Approval(msg.sender, _spender, _value);\n        return true;\n    }\n\n    function transfer(address _to, uint256 _value) public returns(bool){\n        require(msg.sender != _to); //Avoids sending to yourself and wasting gas. Promote to modifier.\n        require(balances[msg.sender] >= _value);\n        balances[msg.sender] -= _value;\n        balances[_to] += _value;\n        if(msg.sender == Curator){ //Curator is sending tokens out.\n            //Increase the number of tokens in circulation, by _value.\n            circulatingSupply_ += _value;\n        }else if(_to == Curator){ //If someone sends to curator.\n            circulatingSupply_ -= _value;\n        }\n        emit Transfer(msg.sender, _to, _value);\n        return true;\n    }\n\n    function transferFrom(address _from, address _to, uint256 _value) public returns (bool) {\n        //require(_from != _to); //Avoids sending to yourself and wasting gas. Promote to modifier.\n        require(_value <= balances[_from]);\n        require(_value <= allowed[_from][msg.sender]);\n        balances[_from] -= _value;\n        balances[_to] += _value;\n        allowed[_from][msg.sender] -= _value;\n        if(_from == Curator){ //Curator is sending tokens out.\n            //Increase the number of tokens in circulation, by _value.\n            circulatingSupply_ += _value;\n        }else if(_to == Curator){ //If someone sends to curator.\n            circulatingSupply_ -= _value;\n        }\n        emit Transfer(_from, _to, _value);\n        return true;\n    }\n   \n    /* Used to store the total equivalent amount of application deposites prior approval.\n    Later tranfer to policy contract address after approval and creation.\n    Error Answer: The error which the function formerly has passing OnlyCurator to call updateDepoPool\n    function\n    */\n     function updateDepoPool(receiptTemplate memory _receipt) private {\n    // function updateDepoPool() public onlyCurator {  //Only the Hushurance engine can create tellers.\n        \n        // receiptTemplate memory _receipt = receiptTemplate(2,\n        // 0x424e4a2AD3A92cE9B4B617155dB224EF34a53410,\n        // 0xeD24FC36d5Ee211Ea25A80239Fb8C4Cfd80f12Ee, \n        // 0xDf4D56b47C5d1223f5FAbB49089e8AF7De418C24,  \n        // 67545788, 10, \n        // 0x77cdc6215ec865c8967ab8365ccc2a9fd2ad8288c63aee96f13450ad304cf580, \"dggdhdjjdjd\");\n        string memory applicationID = _receipt.applicationID;\n        uint _value = _receipt.value;\n        require(balances[Curator] >= _value);\n        receipts[applicationID] = _receipt; //Store the BUSD payment receipt.\n        \n        //Compute the Hashurance equivalent of BUSD (value) sent.\n        //Assuming 1HSHT = 1BUSD. NOTE this will not always be the case.\n        initDepositesTotal += _value; //Adds to the pool of depositors funds.\n        balances[Curator] -= _value;  //Deducts from curators funds.\n        circulatingSupply_ += _value; //Suspect this if bugs arise.\n        emit Pendings(Curator, _value);\n    }\n\n    function updateDepoPoolEx(uint blockNumber,\n        address _from_,\n        address _to_contract_addr,\n        address _receiver,\n        uint _paymentTime,\n        uint _value,\n        string memory _transactionHash,\n        string memory _applicationID) public {\n    // function updateDepoPoolEx() public onlyCurator {  //Only the Hushurance engine can create tellers.\n        \n        // receiptTemplate memory _receipt = receiptTemplate(2,\n        // 0x424e4a2AD3A92cE9B4B617155dB224EF34a53410,\n        // 0xeD24FC36d5Ee211Ea25A80239Fb8C4Cfd80f12Ee, \n        // 0xDf4D56b47C5d1223f5FAbB49089e8AF7De418C24,  \n        // 67545788, 10, \n        // 0x77cdc6215ec865c8967ab8365ccc2a9fd2ad8288c63aee96f13450ad304cf580, \"dggdhdjjdjd\");\n        string memory applicationID = _applicationID;\n        uint value = _value;\n        require(balances[Curator] >= value);\n        receiptTemplate memory _receipt = receiptTemplate(blockNumber, _from_, _to_contract_addr,\n         _receiver,_paymentTime, _value,_transactionHash, _applicationID);\n        receipts[applicationID] = _receipt; //Store the BUSD payment receipt.\n        \n        //Compute the Hashurance equivalent of BUSD (value) sent.\n        //Assuming 1HSHT = 1BUSD. NOTE this will not always be the case.\n        initDepositesTotal += _value; //Adds to the pool of depositors funds.\n        balances[Curator] -= _value;  //Deducts from curators funds.\n        circulatingSupply_ += _value; //Suspect this if bugs arise.\n        emit Pendings(Curator, _value);\n    }\n\n    function purgeDepoPool(string memory appliId, address to_contract_addr, uint _value)public{\n        require(initDepositesTotal > _value);\n         //Can only use this function if you are the user that deposited BUSD.\n        address who = receipts[appliId].from_;\n        require(who == msg.sender);\n        initDepositesTotal -= _value;\n        transfer(to_contract_addr, _value);\n    }\n\n     // to get token name\n    function getTokenName() public view onlyCurator returns(string memory)  {\n      return name;\n  }\n\n  function getReceipts(string memory applicationID) public view returns(receiptTemplate memory) {\n      return receipts[applicationID];\n  }\n\n  function getDepositesTotals() public view returns(uint256){\n      return initDepositesTotal;\n  }\n\n  \n}\n",
  "sourcePath": "/Users/temitopealabi/Documents/personal/blockchain_training/videos/web3/CryptoInsurance15_demo/contracts/Hashurance_T.sol",
  "compiler": {
    "name": "solc",
    "version": "0.8.0+commit.c7dfd78e.Emscripten.clang"
  },
  "schemaVersion": "3.3.4",
  "updatedAt": "2021-05-08T15:44:47.083Z",
  "devdoc": {
    "kind": "dev",
    "methods": {},
    "version": 1
  },
  "userdoc": {
    "kind": "user",
    "methods": {},
    "version": 1
  }
}