{
  "contractName": "PolicyC",
  "abi": [
    {
      "inputs": [
        {
          "internalType": "address",
          "name": "holder",
          "type": "address"
        },
        {
          "internalType": "string",
          "name": "applyId",
          "type": "string"
        },
        {
          "internalType": "string",
          "name": "insured",
          "type": "string"
        },
        {
          "internalType": "uint256",
          "name": "principal",
          "type": "uint256"
        },
        {
          "internalType": "uint256",
          "name": "initialPayment",
          "type": "uint256"
        },
        {
          "internalType": "uint256",
          "name": "paymentTime",
          "type": "uint256"
        },
        {
          "internalType": "address",
          "name": "_HSHTaddress",
          "type": "address"
        }
      ],
      "stateMutability": "nonpayable",
      "type": "constructor"
    },
    {
      "inputs": [],
      "name": "ApprovedapplyId",
      "outputs": [
        {
          "internalType": "string",
          "name": "",
          "type": "string"
        }
      ],
      "stateMutability": "view",
      "type": "function"
    },
    {
      "inputs": [],
      "name": "CreationTime",
      "outputs": [
        {
          "internalType": "uint256",
          "name": "",
          "type": "uint256"
        }
      ],
      "stateMutability": "view",
      "type": "function"
    },
    {
      "inputs": [],
      "name": "HSHTAddress",
      "outputs": [
        {
          "internalType": "address",
          "name": "",
          "type": "address"
        }
      ],
      "stateMutability": "view",
      "type": "function"
    },
    {
      "inputs": [],
      "name": "InsuredItem",
      "outputs": [
        {
          "internalType": "string",
          "name": "",
          "type": "string"
        }
      ],
      "stateMutability": "view",
      "type": "function"
    },
    {
      "inputs": [],
      "name": "Principal",
      "outputs": [
        {
          "internalType": "uint256",
          "name": "",
          "type": "uint256"
        }
      ],
      "stateMutability": "view",
      "type": "function"
    },
    {
      "inputs": [],
      "name": "Rprofit",
      "outputs": [
        {
          "internalType": "uint256",
          "name": "",
          "type": "uint256"
        }
      ],
      "stateMutability": "view",
      "type": "function"
    },
    {
      "inputs": [
        {
          "internalType": "uint256",
          "name": "",
          "type": "uint256"
        }
      ],
      "name": "claimRequestCount",
      "outputs": [
        {
          "internalType": "uint256",
          "name": "",
          "type": "uint256"
        }
      ],
      "stateMutability": "view",
      "type": "function"
    },
    {
      "inputs": [],
      "name": "finalDecision",
      "outputs": [
        {
          "internalType": "uint256",
          "name": "",
          "type": "uint256"
        }
      ],
      "stateMutability": "view",
      "type": "function"
    },
    {
      "inputs": [],
      "name": "nextPremium",
      "outputs": [
        {
          "internalType": "uint256",
          "name": "",
          "type": "uint256"
        }
      ],
      "stateMutability": "view",
      "type": "function"
    },
    {
      "inputs": [],
      "name": "policy_Holder",
      "outputs": [
        {
          "internalType": "address",
          "name": "",
          "type": "address"
        }
      ],
      "stateMutability": "view",
      "type": "function"
    },
    {
      "inputs": [],
      "name": "predictedTenure",
      "outputs": [
        {
          "internalType": "uint256",
          "name": "",
          "type": "uint256"
        }
      ],
      "stateMutability": "view",
      "type": "function"
    },
    {
      "inputs": [],
      "name": "premiumDeadline",
      "outputs": [
        {
          "internalType": "uint256",
          "name": "",
          "type": "uint256"
        }
      ],
      "stateMutability": "view",
      "type": "function"
    },
    {
      "inputs": [
        {
          "internalType": "uint256",
          "name": "",
          "type": "uint256"
        }
      ],
      "name": "premiumHistory",
      "outputs": [
        {
          "internalType": "uint256",
          "name": "",
          "type": "uint256"
        }
      ],
      "stateMutability": "view",
      "type": "function"
    },
    {
      "inputs": [],
      "name": "reasonForDenial",
      "outputs": [
        {
          "internalType": "string",
          "name": "",
          "type": "string"
        }
      ],
      "stateMutability": "view",
      "type": "function"
    },
    {
      "inputs": [],
      "name": "toApproveCount",
      "outputs": [
        {
          "internalType": "uint256",
          "name": "",
          "type": "uint256"
        }
      ],
      "stateMutability": "view",
      "type": "function"
    },
    {
      "inputs": [],
      "name": "toDenyCount",
      "outputs": [
        {
          "internalType": "uint256",
          "name": "",
          "type": "uint256"
        }
      ],
      "stateMutability": "view",
      "type": "function"
    },
    {
      "inputs": [
        {
          "internalType": "uint256",
          "name": "",
          "type": "uint256"
        }
      ],
      "name": "totalPremiumPaid",
      "outputs": [
        {
          "internalType": "uint256",
          "name": "",
          "type": "uint256"
        }
      ],
      "stateMutability": "view",
      "type": "function"
    },
    {
      "inputs": [],
      "name": "claim",
      "outputs": [
        {
          "internalType": "bool",
          "name": "",
          "type": "bool"
        }
      ],
      "stateMutability": "nonpayable",
      "type": "function"
    },
    {
      "inputs": [
        {
          "internalType": "uint256",
          "name": "payTime",
          "type": "uint256"
        },
        {
          "internalType": "uint256",
          "name": "payAmount",
          "type": "uint256"
        }
      ],
      "name": "logPremiumHistory",
      "outputs": [],
      "stateMutability": "nonpayable",
      "type": "function"
    },
    {
      "inputs": [],
      "name": "getNextPaymentTime",
      "outputs": [
        {
          "internalType": "uint256",
          "name": "",
          "type": "uint256"
        }
      ],
      "stateMutability": "view",
      "type": "function"
    },
    {
      "inputs": [],
      "name": "getNextPaymentAmount",
      "outputs": [
        {
          "internalType": "uint256",
          "name": "",
          "type": "uint256"
        }
      ],
      "stateMutability": "view",
      "type": "function"
    },
    {
      "inputs": [],
      "name": "validityStatus",
      "outputs": [
        {
          "internalType": "string",
          "name": "validity",
          "type": "string"
        }
      ],
      "stateMutability": "view",
      "type": "function"
    },
    {
      "inputs": [],
      "name": "computeVariables",
      "outputs": [],
      "stateMutability": "nonpayable",
      "type": "function"
    },
    {
      "inputs": [
        {
          "internalType": "uint256",
          "name": "_toApproveCount",
          "type": "uint256"
        },
        {
          "internalType": "uint256",
          "name": "_toDenyCount",
          "type": "uint256"
        },
        {
          "internalType": "uint256",
          "name": "_finalDecision",
          "type": "uint256"
        }
      ],
      "name": "enterInspectionResult",
      "outputs": [],
      "stateMutability": "nonpayable",
      "type": "function"
    },
    {
      "inputs": [
        {
          "internalType": "address",
          "name": "_HSHTAddress",
          "type": "address"
        }
      ],
      "name": "prepForWithdrawal",
      "outputs": [],
      "stateMutability": "nonpayable",
      "type": "function"
    },
    {
      "inputs": [],
      "name": "getPolicyHolder",
      "outputs": [
        {
          "internalType": "address",
          "name": "",
          "type": "address"
        }
      ],
      "stateMutability": "view",
      "type": "function"
    }
  ],
  "bytecode": "0x60806040523480156200001157600080fd5b506040516200164e3803806200164e8339818101604052810190620000379190620002b0565b86600160006101000a81548173ffffffffffffffffffffffffffffffffffffffff021916908373ffffffffffffffffffffffffffffffffffffffff16021790555085600090805190602001906200009092919062000160565b508460029080519060200190620000a992919062000160565b50426003819055508360048190555082600560008481526020019081526020016000208190555062278d00600354620000e39190620003f6565b600a81905550600683908060018154018082558091505060019003906000526020600020016000909190919091505580600760006101000a81548173ffffffffffffffffffffffffffffffffffffffff021916908373ffffffffffffffffffffffffffffffffffffffff16021790555050505050505050620005be565b8280546200016e90620004c7565b90600052602060002090601f016020900481019282620001925760008555620001de565b82601f10620001ad57805160ff1916838001178555620001de565b82800160010185558215620001de579182015b82811115620001dd578251825591602001919060010190620001c0565b5b509050620001ed9190620001f1565b5090565b5b808211156200020c576000816000905550600101620001f2565b5090565b6000620002276200022184620003c3565b6200038f565b9050828152602081018484840111156200024057600080fd5b6200024d84828562000491565b509392505050565b60008151905062000266816200058a565b92915050565b600082601f8301126200027e57600080fd5b81516200029084826020860162000210565b91505092915050565b600081519050620002aa81620005a4565b92915050565b600080600080600080600060e0888a031215620002cc57600080fd5b6000620002dc8a828b0162000255565b975050602088015167ffffffffffffffff811115620002fa57600080fd5b620003088a828b016200026c565b965050604088015167ffffffffffffffff8111156200032657600080fd5b620003348a828b016200026c565b9550506060620003478a828b0162000299565b94505060806200035a8a828b0162000299565b93505060a06200036d8a828b0162000299565b92505060c0620003808a828b0162000255565b91505092959891949750929550565b6000604051905081810181811067ffffffffffffffff82111715620003b957620003b86200055b565b5b8060405250919050565b600067ffffffffffffffff821115620003e157620003e06200055b565b5b601f19601f8301169050602081019050919050565b6000620004038262000487565b9150620004108362000487565b9250827fffffffffffffffffffffffffffffffffffffffffffffffffffffffffffffffff03821115620004485762000447620004fd565b5b828201905092915050565b6000620004608262000467565b9050919050565b600073ffffffffffffffffffffffffffffffffffffffff82169050919050565b6000819050919050565b60005b83811015620004b157808201518184015260208101905062000494565b83811115620004c1576000848401525b50505050565b60006002820490506001821680620004e057607f821691505b60208210811415620004f757620004f66200052c565b5b50919050565b7f4e487b7100000000000000000000000000000000000000000000000000000000600052601160045260246000fd5b7f4e487b7100000000000000000000000000000000000000000000000000000000600052602260045260246000fd5b7f4e487b7100000000000000000000000000000000000000000000000000000000600052604160045260246000fd5b620005958162000453565b8114620005a157600080fd5b50565b620005af8162000487565b8114620005bb57600080fd5b50565b61108080620005ce6000396000f3fe608060405234801561001057600080fd5b506004361061018e5760003560e01c80638080d307116100de578063a3f82eb811610097578063d474b9ce11610071578063d474b9ce14610443578063d5f92b1b14610461578063de36e39c1461047f578063e5901ea11461049d5761018e565b8063a3f82eb8146103d7578063af125c8a146103f5578063aff06064146104135761018e565b80638080d30714610313578063889f59b2146103315780638efa77461461034d57806390c6b18a1461036b57806393873b481461038957806396fd1b5c146103a75761018e565b80635d5463131161014b578063680418461161012557806368041846146102b157806369d9c032146102cf5780636de84ae9146102d95780636f9c29c6146102f75761018e565b80635d5463131461024557806360a9903414610263578063658bb5e5146102935761018e565b8063168426561461019357806331b8214d146101b1578063343a2e75146101cf57806338271924146101eb5780634e71d92d1461020957806359cbd20714610227575b600080fd5b61019b6104bb565b6040516101a89190610d87565b60405180910390f35b6101b96104e1565b6040516101c69190610e28565b60405180910390f35b6101e960048036038101906101e49190610c56565b6104e7565b005b6101f3610565565b6040516102009190610de6565b60405180910390f35b610211610611565b60405161021e9190610dcb565b60405180910390f35b61022f6106cf565b60405161023c9190610e28565b60405180910390f35b61024d6106d5565b60405161025a9190610e28565b60405180910390f35b61027d60048036038101906102789190610c2d565b6106db565b60405161028a9190610e28565b60405180910390f35b61029b6106ff565b6040516102a89190610de6565b60405180910390f35b6102b961078d565b6040516102c69190610e28565b60405180910390f35b6102d7610793565b005b6102e16107cc565b6040516102ee9190610d87565b60405180910390f35b610311600480360381019061030c9190610c92565b6107f2565b005b61031b610861565b6040516103289190610e28565b60405180910390f35b61034b60048036038101906103469190610bdb565b610867565b005b61035561094b565b6040516103629190610de6565b60405180910390f35b6103736109d9565b6040516103809190610e28565b60405180910390f35b6103916109df565b60405161039e9190610e28565b60405180910390f35b6103c160048036038101906103bc9190610c2d565b6109e9565b6040516103ce9190610e28565b60405180910390f35b6103df610a0d565b6040516103ec9190610d87565b60405180910390f35b6103fd610a37565b60405161040a9190610e28565b60405180910390f35b61042d60048036038101906104289190610c2d565b610a3d565b60405161043a9190610e28565b60405180910390f35b61044b610a55565b6040516104589190610e28565b60405180910390f35b610469610a5b565b6040516104769190610e28565b60405180910390f35b610487610a61565b6040516104949190610e28565b60405180910390f35b6104a5610a6b565b6040516104b29190610de6565b60405180910390f35b600160009054906101000a900473ffffffffffffffffffffffffffffffffffffffff1681565b600e5481565b600160009054906101000a900473ffffffffffffffffffffffffffffffffffffffff1673ffffffffffffffffffffffffffffffffffffffff163373ffffffffffffffffffffffffffffffffffffffff161461054157600080fd5b806005600084815260200190815260200160002081905550610561610793565b5050565b606062278d00600354426105799190610eb5565b11156105bc576040518060400160405280600781526020017f496e76616c696400000000000000000000000000000000000000000000000000815250905061060e565b62278d00600354426105ce9190610eb5565b101561060d576040518060400160405280600581526020017f56616c696400000000000000000000000000000000000000000000000000000081525090505b5b90565b6000600160009054906101000a900473ffffffffffffffffffffffffffffffffffffffff1673ffffffffffffffffffffffffffffffffffffffff163373ffffffffffffffffffffffffffffffffffffffff16146106a3576040517f08c379a000000000000000000000000000000000000000000000000000000000815260040161069a90610e08565b60405180910390fd5b600c42908060018154018082558091505060019003906000526020600020016000909190919091505590565b60095481565b600a5481565b600c81815481106106eb57600080fd5b906000526020600020016000915090505481565b6000805461070c90610f64565b80601f016020809104026020016040519081016040528092919081815260200182805461073890610f64565b80156107855780601f1061075a57610100808354040283529160200191610785565b820191906000526020600020905b81548152906001019060200180831161076857829003601f168201915b505050505081565b600b5481565b600c6008819055506096600981905550600a544211156107ca5762278d00600a60008282546107c29190610e5f565b925050819055505b565b600760009054906101000a900473ffffffffffffffffffffffffffffffffffffffff1681565b6000600c805490501161080457600080fd5b6004600f54141561085c576040518060400160405280600381526020017f4e2f4100000000000000000000000000000000000000000000000000000000008152506010908051906020019061085a929190610af9565b505b505050565b600d5481565b6000600c805490501161087957600080fd5b6000819050600454600680549050116108955760c86009819055505b8073ffffffffffffffffffffffffffffffffffffffff1663095ea7b3600160009054906101000a900473ffffffffffffffffffffffffffffffffffffffff166004546040518363ffffffff1660e01b81526004016108f4929190610da2565b602060405180830381600087803b15801561090e57600080fd5b505af1158015610922573d6000803e3d6000fd5b505050506040513d601f19601f820116820180604052508101906109469190610c04565b505050565b6002805461095890610f64565b80601f016020809104026020016040519081016040528092919081815260200182805461098490610f64565b80156109d15780601f106109a6576101008083540402835291602001916109d1565b820191906000526020600020905b8154815290600101906020018083116109b457829003601f168201915b505050505081565b60035481565b6000600a54905090565b600681815481106109f957600080fd5b906000526020600020016000915090505481565b6000600160009054906101000a900473ffffffffffffffffffffffffffffffffffffffff16905090565b60045481565b60056020528060005260406000206000915090505481565b600f5481565b60085481565b6000600954905090565b60108054610a7890610f64565b80601f0160208091040260200160405190810160405280929190818152602001828054610aa490610f64565b8015610af15780601f10610ac657610100808354040283529160200191610af1565b820191906000526020600020905b815481529060010190602001808311610ad457829003601f168201915b505050505081565b828054610b0590610f64565b90600052602060002090601f016020900481019282610b275760008555610b6e565b82601f10610b4057805160ff1916838001178555610b6e565b82800160010185558215610b6e579182015b82811115610b6d578251825591602001919060010190610b52565b5b509050610b7b9190610b7f565b5090565b5b80821115610b98576000816000905550600101610b80565b5090565b600081359050610bab81611005565b92915050565b600081519050610bc08161101c565b92915050565b600081359050610bd581611033565b92915050565b600060208284031215610bed57600080fd5b6000610bfb84828501610b9c565b91505092915050565b600060208284031215610c1657600080fd5b6000610c2484828501610bb1565b91505092915050565b600060208284031215610c3f57600080fd5b6000610c4d84828501610bc6565b91505092915050565b60008060408385031215610c6957600080fd5b6000610c7785828601610bc6565b9250506020610c8885828601610bc6565b9150509250929050565b600080600060608486031215610ca757600080fd5b6000610cb586828701610bc6565b9350506020610cc686828701610bc6565b9250506040610cd786828701610bc6565b9150509250925092565b610cea81610ee9565b82525050565b610cf981610efb565b82525050565b6000610d0a82610e43565b610d148185610e4e565b9350610d24818560208601610f31565b610d2d81610ff4565b840191505092915050565b6000610d45600e83610e4e565b91507f43616e6e6f7420636c61696d21210000000000000000000000000000000000006000830152602082019050919050565b610d8181610f27565b82525050565b6000602082019050610d9c6000830184610ce1565b92915050565b6000604082019050610db76000830185610ce1565b610dc46020830184610d78565b9392505050565b6000602082019050610de06000830184610cf0565b92915050565b60006020820190508181036000830152610e008184610cff565b905092915050565b60006020820190508181036000830152610e2181610d38565b9050919050565b6000602082019050610e3d6000830184610d78565b92915050565b600081519050919050565b600082825260208201905092915050565b6000610e6a82610f27565b9150610e7583610f27565b9250827fffffffffffffffffffffffffffffffffffffffffffffffffffffffffffffffff03821115610eaa57610ea9610f96565b5b828201905092915050565b6000610ec082610f27565b9150610ecb83610f27565b925082821015610ede57610edd610f96565b5b828203905092915050565b6000610ef482610f07565b9050919050565b60008115159050919050565b600073ffffffffffffffffffffffffffffffffffffffff82169050919050565b6000819050919050565b60005b83811015610f4f578082015181840152602081019050610f34565b83811115610f5e576000848401525b50505050565b60006002820490506001821680610f7c57607f821691505b60208210811415610f9057610f8f610fc5565b5b50919050565b7f4e487b7100000000000000000000000000000000000000000000000000000000600052601160045260246000fd5b7f4e487b7100000000000000000000000000000000000000000000000000000000600052602260045260246000fd5b6000601f19601f8301169050919050565b61100e81610ee9565b811461101957600080fd5b50565b61102581610efb565b811461103057600080fd5b50565b61103c81610f27565b811461104757600080fd5b5056fea26469706673582212206706ed7b4f7872e285b7bf0ab218861c169f923d07f3a71aa9422af6526bdd1a64736f6c63430008000033",
  "immutableReferences": {},
  "source": "pragma solidity ^0.8.0;\nimport \"./Hashurance_T.sol\";        //Imports Hashurance token\n\ncontract PolicyC{\n  string public ApprovedapplyId;\n  address public policy_Holder;\n  string public InsuredItem;\n  uint public CreationTime;\n  uint public Principal;        //The amount we will pay back after a claim\n   //Time of Payment => Amount paid\n  mapping(uint => uint) public premiumHistory; //History of premium payment.\n  uint[] public totalPremiumPaid;\n  address public HSHTAddress;\n\n  uint public predictedTenure;  //How long the policy will last in months before a claim.\n  uint public nextPremium;      //The amount of stablecoin the policy holder will pay next.\n  uint public premiumDeadline;\n  uint public Rprofit; //a constant\n\n  uint[] public claimRequestCount; //Used to signify and track claims by policy holders.\n  uint public toApproveCount;     //Number of validators who approved this application.\n  uint public toDenyCount;        //Number of validators who declined this application. \n  uint public finalDecision;      //0 = not decided, 2 = Declined, 4 = Approved.\n  string public reasonForDenial;  //Possible reasons for a rejection.\n\n  constructor(\n      address holder, \n      string memory applyId, \n      string memory insured, \n      uint principal,\n      uint initialPayment,\n      uint paymentTime, //1478431966\n      address _HSHTaddress){\n    policy_Holder = holder;\n    ApprovedapplyId = applyId;\n    InsuredItem = insured;\n    CreationTime = block.timestamp;\n    Principal = principal;\n    premiumHistory[paymentTime] = initialPayment;\n    premiumDeadline = CreationTime + 2592000;//1 month from now\n    totalPremiumPaid.push(initialPayment);\n    //Rprofit = 0.3 * principal;\n    HSHTAddress = _HSHTaddress;\n  }\n\n    function claim()public returns(bool){\n        require(msg.sender == policy_Holder, \"Cannot claim!!\");\n        claimRequestCount.push(block.timestamp);\n    }\n\n    function logPremiumHistory(uint payTime, uint payAmount)public{\n        require(msg.sender == policy_Holder); //Restricts access to this function.\n        premiumHistory[payTime] = payAmount;\n        computeVariables();\n    }\n    \n    function getNextPaymentTime()public view returns(uint){\n        return premiumDeadline;\n    }\n\n    function getNextPaymentAmount()public view returns(uint){\n        return nextPremium;\n    }\n    \n    function validityStatus() public view returns(string memory validity){\n      if(block.timestamp - CreationTime > 2592000){ //One month in UNIX timestamp\n          validity = \"Invalid\";\n        } else if(block.timestamp - CreationTime < 2592000){\n            validity = \"Valid\";\n        }\n    }\n\n    function computeVariables() public{\n      //require(premiumDeadline < block.timestamp); //Might change this.\n       //Estimate and predict the policy period or tenure.\n      predictedTenure = 12;\n       //Compute the next premium amount.\n      nextPremium = 150; //Principal / predictedTenure;\n       //Compute prmium deadline.\n       if(block.timestamp > premiumDeadline){\n           premiumDeadline += 2592000;//1 month from now.\n       }\n    }\n\n    function enterInspectionResult(uint _toApproveCount, uint _toDenyCount, uint _finalDecision)public{\n        //Find another way to secure this function\n        require(claimRequestCount.length > 0);\n        if(finalDecision == 4){\n           //Clear reasons for denial, entered by validators, if the application was approved.\n          reasonForDenial = \"N/A\";\n        }\n    }\n\n    function prepForWithdrawal(address _HSHTAddress)public{\n        require(claimRequestCount.length > 0);\n        HashuranceTokenC HSHTobject = HashuranceTokenC(_HSHTAddress);\n        //Checks which case has occurred.\n        if(totalPremiumPaid.length <= Principal){\n            //Case 1: Total Pm < P.\n            //Case 2: Total Pm = P.\n            nextPremium = 200; //Ask for Rprofit(deductible) to be paid in BUSD.\n            //Pay policy holder all HSHT that's in the policy account.\n            //Minter should balance up.\n        }/*else if(totalPremiumPaid.length > Principal){\n            //Case 3: Total Pm > P.\n            //Dont ask for Rprofit.\n            //Pay policy holder principal amount of HSHT, from policy account.\n        }*/\n\n        //Call HSHT contract and approve Hashurance engine to transfer the principal amount.\n        HSHTobject.approve(policy_Holder, Principal);\n        //HSHTAddress.call(approve, policy_Holder, principal);\n    }\n    function getPolicyHolder()public view returns(address){\n        return policy_Holder;\n    }\n}",
  "sourcePath": "/Users/temitopealabi/Documents/personal/blockchain_training/videos/web3/CryptoInsurance15_demo/contracts/policy_contract.sol",
  "compiler": {
    "name": "solc",
    "version": "0.8.0+commit.c7dfd78e.Emscripten.clang"
  },
  "schemaVersion": "3.3.4",
  "updatedAt": "2021-05-21T15:29:14.544Z",
  "devdoc": {
    "kind": "dev",
    "methods": {},
    "version": 1
  },
  "userdoc": {
    "kind": "user",
    "methods": {},
    "version": 1
  }
}