{
  "contractName": "StructTemi",
  "abi": [
    {
      "inputs": [],
      "name": "greetings",
      "outputs": [
        {
          "internalType": "string",
          "name": "",
          "type": "string"
        }
      ],
      "stateMutability": "view",
      "type": "function",
      "constant": true
    },
    {
      "inputs": [
        {
          "internalType": "address",
          "name": "",
          "type": "address"
        }
      ],
      "name": "students",
      "outputs": [
        {
          "internalType": "uint256",
          "name": "score",
          "type": "uint256"
        },
        {
          "internalType": "string",
          "name": "class",
          "type": "string"
        },
        {
          "internalType": "address",
          "name": "addr",
          "type": "address"
        }
      ],
      "stateMutability": "view",
      "type": "function",
      "constant": true
    },
    {
      "inputs": [],
      "name": "y",
      "outputs": [
        {
          "internalType": "string",
          "name": "",
          "type": "string"
        }
      ],
      "stateMutability": "view",
      "type": "function",
      "constant": true
    },
    {
      "inputs": [
        {
          "internalType": "string",
          "name": "s",
          "type": "string"
        },
        {
          "components": [
            {
              "internalType": "uint256",
              "name": "score",
              "type": "uint256"
            },
            {
              "internalType": "string",
              "name": "class",
              "type": "string"
            },
            {
              "internalType": "address",
              "name": "addr",
              "type": "address"
            }
          ],
          "internalType": "struct StructTemi.Student",
          "name": "b",
          "type": "tuple"
        }
      ],
      "name": "foo",
      "outputs": [],
      "stateMutability": "nonpayable",
      "type": "function"
    },
    {
      "inputs": [
        {
          "internalType": "uint256",
          "name": "_score",
          "type": "uint256"
        },
        {
          "internalType": "string",
          "name": "_class",
          "type": "string"
        },
        {
          "internalType": "address",
          "name": "_addr",
          "type": "address"
        }
      ],
      "name": "addStudent",
      "outputs": [],
      "stateMutability": "nonpayable",
      "type": "function"
    },
    {
      "inputs": [
        {
          "components": [
            {
              "internalType": "uint256",
              "name": "score",
              "type": "uint256"
            },
            {
              "internalType": "string",
              "name": "class",
              "type": "string"
            },
            {
              "internalType": "address",
              "name": "addr",
              "type": "address"
            }
          ],
          "internalType": "struct StructTemi.InputStudent[]",
          "name": "_inputStudent",
          "type": "tuple[]"
        }
      ],
      "name": "addStudentStructArrData",
      "outputs": [],
      "stateMutability": "nonpayable",
      "type": "function"
    },
    {
      "inputs": [
        {
          "components": [
            {
              "internalType": "uint256",
              "name": "score",
              "type": "uint256"
            },
            {
              "internalType": "string",
              "name": "class",
              "type": "string"
            },
            {
              "internalType": "address",
              "name": "addr",
              "type": "address"
            }
          ],
          "internalType": "struct StructTemi.InputStudent[]",
          "name": "_inputStudent",
          "type": "tuple[]"
        }
      ],
      "name": "addStudentStructArr",
      "outputs": [
        {
          "internalType": "uint256",
          "name": "",
          "type": "uint256"
        }
      ],
      "stateMutability": "view",
      "type": "function",
      "constant": true
    },
    {
      "inputs": [
        {
          "components": [
            {
              "internalType": "uint256",
              "name": "score",
              "type": "uint256"
            },
            {
              "internalType": "string",
              "name": "class",
              "type": "string"
            },
            {
              "internalType": "address",
              "name": "addr",
              "type": "address"
            }
          ],
          "internalType": "struct StructTemi.InputStudent",
          "name": "_inputStudent",
          "type": "tuple"
        }
      ],
      "name": "addStudentStructSingle",
      "outputs": [
        {
          "internalType": "uint256",
          "name": "",
          "type": "uint256"
        }
      ],
      "stateMutability": "view",
      "type": "function",
      "constant": true
    },
    {
      "inputs": [
        {
          "internalType": "string",
          "name": "_greetings",
          "type": "string"
        },
        {
          "components": [
            {
              "internalType": "uint256",
              "name": "score",
              "type": "uint256"
            },
            {
              "internalType": "string",
              "name": "class",
              "type": "string"
            },
            {
              "internalType": "address",
              "name": "addr",
              "type": "address"
            }
          ],
          "internalType": "struct StructTemi.InputStudent",
          "name": "_inputStudent",
          "type": "tuple"
        }
      ],
      "name": "addStudentStructSingText",
      "outputs": [
        {
          "internalType": "uint256",
          "name": "",
          "type": "uint256"
        }
      ],
      "stateMutability": "view",
      "type": "function",
      "constant": true
    },
    {
      "inputs": [
        {
          "internalType": "string",
          "name": "_greetings",
          "type": "string"
        },
        {
          "components": [
            {
              "internalType": "uint256",
              "name": "score",
              "type": "uint256"
            },
            {
              "internalType": "string",
              "name": "class",
              "type": "string"
            },
            {
              "internalType": "address",
              "name": "addr",
              "type": "address"
            }
          ],
          "internalType": "struct StructTemi.InputStudent[]",
          "name": "_inputStudent",
          "type": "tuple[]"
        }
      ],
      "name": "addStudentStructArrText",
      "outputs": [
        {
          "internalType": "uint256",
          "name": "",
          "type": "uint256"
        }
      ],
      "stateMutability": "nonpayable",
      "type": "function"
    },
    {
      "inputs": [
        {
          "internalType": "address",
          "name": "_addr",
          "type": "address"
        }
      ],
      "name": "getStudent",
      "outputs": [
        {
          "components": [
            {
              "internalType": "uint256",
              "name": "score",
              "type": "uint256"
            },
            {
              "internalType": "string",
              "name": "class",
              "type": "string"
            },
            {
              "internalType": "address",
              "name": "addr",
              "type": "address"
            }
          ],
          "internalType": "struct StructTemi.Student",
          "name": "",
          "type": "tuple"
        }
      ],
      "stateMutability": "view",
      "type": "function",
      "constant": true
    },
    {
      "inputs": [
        {
          "internalType": "uint256",
          "name": "_score",
          "type": "uint256"
        },
        {
          "internalType": "string",
          "name": "_class",
          "type": "string"
        },
        {
          "internalType": "address",
          "name": "_addr",
          "type": "address"
        }
      ],
      "name": "addStudentArr",
      "outputs": [
        {
          "components": [
            {
              "internalType": "uint256",
              "name": "score",
              "type": "uint256"
            },
            {
              "internalType": "string",
              "name": "class",
              "type": "string"
            },
            {
              "internalType": "address",
              "name": "addr",
              "type": "address"
            }
          ],
          "internalType": "struct StructTemi.Student",
          "name": "",
          "type": "tuple"
        }
      ],
      "stateMutability": "nonpayable",
      "type": "function"
    },
    {
      "inputs": [
        {
          "internalType": "string",
          "name": "_class",
          "type": "string"
        }
      ],
      "name": "getStudentListArr",
      "outputs": [
        {
          "internalType": "string",
          "name": "",
          "type": "string"
        }
      ],
      "stateMutability": "view",
      "type": "function",
      "constant": true
    },
    {
      "inputs": [
        {
          "internalType": "address",
          "name": "_addr",
          "type": "address"
        }
      ],
      "name": "deleteStudents",
      "outputs": [
        {
          "components": [
            {
              "internalType": "uint256",
              "name": "score",
              "type": "uint256"
            },
            {
              "internalType": "string",
              "name": "class",
              "type": "string"
            },
            {
              "internalType": "address",
              "name": "addr",
              "type": "address"
            }
          ],
          "internalType": "struct StructTemi.Student",
          "name": "",
          "type": "tuple"
        }
      ],
      "stateMutability": "nonpayable",
      "type": "function"
    }
  ],
  "bytecode": "0x608060405234801561001057600080fd5b50611a01806100206000396000f3fe608060405234801561001057600080fd5b50600436106100ea5760003560e01c8063a6c807a91161008c578063d953115711610066578063d953115714610285578063e7d0f6ee146102b5578063f300b3ab146102d1578063f725a01d14610301576100ea565b8063a6c807a914610205578063acb34ce814610237578063b145c67314610255576100ea565b80635649f73d116100c85780635649f73d1461016b5780636b7b44d7146101875780637b429677146101b7578063a56dfe4a146101e7576100ea565b80630e01abd4146100ef578063170a354c1461010b5780631f8326471461013b575b600080fd5b61010960048036038101906101049190611245565b610331565b005b610125600480360381019061012091906112c7565b610534565b60405161013291906116d3565b60405180910390f35b6101556004803603810190610150919061140b565b6105a1565b60405161016291906116d3565b60405180910390f35b6101856004803603810190610180919061139f565b6105b4565b005b6101a1600480360381019061019c919061121c565b6105cf565b6040516101ae91906116b1565b60405180910390f35b6101d160048036038101906101cc9190611286565b610719565b6040516101de919061168f565b60405180910390f35b6101ef610904565b6040516101fc919061168f565b60405180910390f35b61021f600480360381019061021a919061121c565b610992565b60405161022e939291906116ee565b60405180910390f35b61023f610a64565b60405161024c919061168f565b60405180910390f35b61026f600480360381019061026a9190611245565b610af2565b60405161027c91906116d3565b60405180910390f35b61029f600480360381019061029a919061121c565b610b46565b6040516102ac91906116b1565b60405180910390f35b6102cf60048036038101906102ca919061144c565b610d10565b005b6102eb60048036038101906102e6919061144c565b610dfb565b6040516102f891906116b1565b60405180910390f35b61031b60048036038101906103169190611333565b610edf565b60405161032891906116d3565b60405180910390f35b6000604051806060016040528083600081518110610378577f4e487b7100000000000000000000000000000000000000000000000000000000600052603260045260246000fd5b6020026020010151600001518152602001836000815181106103c3577f4e487b7100000000000000000000000000000000000000000000000000000000600052603260045260246000fd5b60200260200101516020015181526020018360008151811061040e577f4e487b7100000000000000000000000000000000000000000000000000000000600052603260045260246000fd5b60200260200101516040015173ffffffffffffffffffffffffffffffffffffffff168152509050600082600081518110610471577f4e487b7100000000000000000000000000000000000000000000000000000000600052603260045260246000fd5b6020026020010151604001519050816000808373ffffffffffffffffffffffffffffffffffffffff1673ffffffffffffffffffffffffffffffffffffffff1681526020019081526020016000206000820151816000015560208201518160010190805190602001906104e4929190610ef9565b5060408201518160020160006101000a81548173ffffffffffffffffffffffffffffffffffffffff021916908373ffffffffffffffffffffffffffffffffffffffff160217905550905050505050565b6000826003908051906020019061054c929190610ef9565b50600082600081518110610589577f4e487b7100000000000000000000000000000000000000000000000000000000600052603260045260246000fd5b60200260200101516000015190508091505092915050565b6000808260000151905080915050919050565b81600290805190602001906105ca929190610ef9565b505050565b6105d7610f7f565b6000808373ffffffffffffffffffffffffffffffffffffffff1673ffffffffffffffffffffffffffffffffffffffff1681526020019081526020016000206040518060600160405290816000820154815260200160018201805461063a90611884565b80601f016020809104026020016040519081016040528092919081815260200182805461066690611884565b80156106b35780601f10610688576101008083540402835291602001916106b3565b820191906000526020600020905b81548152906001019060200180831161069657829003601f168201915b505050505081526020016002820160009054906101000a900473ffffffffffffffffffffffffffffffffffffffff1673ffffffffffffffffffffffffffffffffffffffff1673ffffffffffffffffffffffffffffffffffffffff16815250509050919050565b60606000806040518060400160405280600881526020017f6e6f206d617463680000000000000000000000000000000000000000000000008152509050600091505b6001805490508210156108f957836040516020016107799190611661565b60405160208183030381529060405280519060200120600183815481106107c9577f4e487b7100000000000000000000000000000000000000000000000000000000600052603260045260246000fd5b90600052602060002090600302016001016040516020016107ea9190611678565b6040516020818303038152906040528051906020012014156108e65760018281548110610840577f4e487b7100000000000000000000000000000000000000000000000000000000600052603260045260246000fd5b9060005260206000209060030201600101805461085c90611884565b80601f016020809104026020016040519081016040528092919081815260200182805461088890611884565b80156108d55780601f106108aa576101008083540402835291602001916108d5565b820191906000526020600020905b8154815290600101906020018083116108b857829003601f168201915b5050505050905080925050506108ff565b81806108f1906118b6565b92505061075b565b80925050505b919050565b6002805461091190611884565b80601f016020809104026020016040519081016040528092919081815260200182805461093d90611884565b801561098a5780601f1061095f5761010080835404028352916020019161098a565b820191906000526020600020905b81548152906001019060200180831161096d57829003601f168201915b505050505081565b60006020528060005260406000206000915090508060000154908060010180546109bb90611884565b80601f01602080910402602001604051908101604052809291908181526020018280546109e790611884565b8015610a345780601f10610a0957610100808354040283529160200191610a34565b820191906000526020600020905b815481529060010190602001808311610a1757829003601f168201915b5050505050908060020160009054906101000a900473ffffffffffffffffffffffffffffffffffffffff16905083565b60038054610a7190611884565b80601f0160208091040260200160405190810160405280929190818152602001828054610a9d90611884565b8015610aea5780601f10610abf57610100808354040283529160200191610aea565b820191906000526020600020905b815481529060010190602001808311610acd57829003601f168201915b505050505081565b60008082600081518110610b2f577f4e487b7100000000000000000000000000000000000000000000000000000000600052603260045260246000fd5b602002602001015160000151905080915050919050565b610b4e610f7f565b6000808373ffffffffffffffffffffffffffffffffffffffff1673ffffffffffffffffffffffffffffffffffffffff168152602001908152602001600020600080820160009055600182016000610ba59190610fb6565b6002820160006101000a81549073ffffffffffffffffffffffffffffffffffffffff021916905550506000808373ffffffffffffffffffffffffffffffffffffffff1673ffffffffffffffffffffffffffffffffffffffff16815260200190815260200160002060405180606001604052908160008201548152602001600182018054610c3190611884565b80601f0160208091040260200160405190810160405280929190818152602001828054610c5d90611884565b8015610caa5780601f10610c7f57610100808354040283529160200191610caa565b820191906000526020600020905b815481529060010190602001808311610c8d57829003601f168201915b505050505081526020016002820160009054906101000a900473ffffffffffffffffffffffffffffffffffffffff1673ffffffffffffffffffffffffffffffffffffffff1673ffffffffffffffffffffffffffffffffffffffff16815250509050919050565b600060405180606001604052808581526020018481526020018373ffffffffffffffffffffffffffffffffffffffff168152509050806000808473ffffffffffffffffffffffffffffffffffffffff1673ffffffffffffffffffffffffffffffffffffffff168152602001908152602001600020600082015181600001556020820151816001019080519060200190610daa929190610ef9565b5060408201518160020160006101000a81548173ffffffffffffffffffffffffffffffffffffffff021916908373ffffffffffffffffffffffffffffffffffffffff16021790555090505050505050565b610e03610f7f565b600060405180606001604052808681526020018581526020018473ffffffffffffffffffffffffffffffffffffffff1681525090506001819080600181540180825580915050600190039060005260206000209060030201600090919091909150600082015181600001556020820151816001019080519060200190610e8a929190610ef9565b5060408201518160020160006101000a81548173ffffffffffffffffffffffffffffffffffffffff021916908373ffffffffffffffffffffffffffffffffffffffff1602179055505050809150509392505050565b600080839050600083600001519050809250505092915050565b828054610f0590611884565b90600052602060002090601f016020900481019282610f275760008555610f6e565b82601f10610f4057805160ff1916838001178555610f6e565b82800160010185558215610f6e579182015b82811115610f6d578251825591602001919060010190610f52565b5b509050610f7b9190610ff6565b5090565b60405180606001604052806000815260200160608152602001600073ffffffffffffffffffffffffffffffffffffffff1681525090565b508054610fc290611884565b6000825580601f10610fd45750610ff3565b601f016020900490600052602060002090810190610ff29190610ff6565b5b50565b5b8082111561100f576000816000905550600101610ff7565b5090565b60006110266110218461175d565b61172c565b9050808382526020820190508260005b85811015611066578135850161104c8882611117565b845260208401935060208301925050600181019050611036565b5050509392505050565b600061108361107e84611789565b61172c565b90508281526020810184848401111561109b57600080fd5b6110a6848285611842565b509392505050565b6000813590506110bd8161199d565b92915050565b600082601f8301126110d457600080fd5b81356110e4848260208601611013565b91505092915050565b600082601f8301126110fe57600080fd5b813561110e848260208601611070565b91505092915050565b60006060828403121561112957600080fd5b611133606061172c565b9050600061114384828501611207565b600083015250602082013567ffffffffffffffff81111561116357600080fd5b61116f848285016110ed565b6020830152506040611183848285016110ae565b60408301525092915050565b6000606082840312156111a157600080fd5b6111ab606061172c565b905060006111bb84828501611207565b600083015250602082013567ffffffffffffffff8111156111db57600080fd5b6111e7848285016110ed565b60208301525060406111fb848285016110ae565b60408301525092915050565b600081359050611216816119b4565b92915050565b60006020828403121561122e57600080fd5b600061123c848285016110ae565b91505092915050565b60006020828403121561125757600080fd5b600082013567ffffffffffffffff81111561127157600080fd5b61127d848285016110c3565b91505092915050565b60006020828403121561129857600080fd5b600082013567ffffffffffffffff8111156112b257600080fd5b6112be848285016110ed565b91505092915050565b600080604083850312156112da57600080fd5b600083013567ffffffffffffffff8111156112f457600080fd5b611300858286016110ed565b925050602083013567ffffffffffffffff81111561131d57600080fd5b611329858286016110c3565b9150509250929050565b6000806040838503121561134657600080fd5b600083013567ffffffffffffffff81111561136057600080fd5b61136c858286016110ed565b925050602083013567ffffffffffffffff81111561138957600080fd5b61139585828601611117565b9150509250929050565b600080604083850312156113b257600080fd5b600083013567ffffffffffffffff8111156113cc57600080fd5b6113d8858286016110ed565b925050602083013567ffffffffffffffff8111156113f557600080fd5b6114018582860161118f565b9150509250929050565b60006020828403121561141d57600080fd5b600082013567ffffffffffffffff81111561143757600080fd5b61144384828501611117565b91505092915050565b60008060006060848603121561146157600080fd5b600061146f86828701611207565b935050602084013567ffffffffffffffff81111561148c57600080fd5b611498868287016110ed565b92505060406114a9868287016110ae565b9150509250925092565b6114bc81611806565b82525050565b6114cb81611806565b82525050565b60006114dc826117ce565b6114e681856117d9565b93506114f6818560208601611851565b6114ff8161198c565b840191505092915050565b6000611515826117ce565b61151f81856117ea565b935061152f818560208601611851565b6115388161198c565b840191505092915050565b600061154e826117ce565b61155881856117fb565b9350611568818560208601611851565b80840191505092915050565b6000815461158181611884565b61158b81866117fb565b945060018216600081146115a657600181146115b7576115ea565b60ff198316865281860193506115ea565b6115c0856117b9565b60005b838110156115e2578154818901526001820191506020810190506115c3565b838801955050505b50505092915050565b600060608301600083015161160b6000860182611643565b506020830151848203602086015261162382826114d1565b915050604083015161163860408601826114b3565b508091505092915050565b61164c81611838565b82525050565b61165b81611838565b82525050565b600061166d8284611543565b915081905092915050565b60006116848284611574565b915081905092915050565b600060208201905081810360008301526116a9818461150a565b905092915050565b600060208201905081810360008301526116cb81846115f3565b905092915050565b60006020820190506116e86000830184611652565b92915050565b60006060820190506117036000830186611652565b8181036020830152611715818561150a565b905061172460408301846114c2565b949350505050565b6000604051905081810181811067ffffffffffffffff821117156117535761175261195d565b5b8060405250919050565b600067ffffffffffffffff8211156117785761177761195d565b5b602082029050602081019050919050565b600067ffffffffffffffff8211156117a4576117a361195d565b5b601f19601f8301169050602081019050919050565b60008190508160005260206000209050919050565b600081519050919050565b600082825260208201905092915050565b600082825260208201905092915050565b600081905092915050565b600061181182611818565b9050919050565b600073ffffffffffffffffffffffffffffffffffffffff82169050919050565b6000819050919050565b82818337600083830152505050565b60005b8381101561186f578082015181840152602081019050611854565b8381111561187e576000848401525b50505050565b6000600282049050600182168061189c57607f821691505b602082108114156118b0576118af61192e565b5b50919050565b60006118c182611838565b91507fffffffffffffffffffffffffffffffffffffffffffffffffffffffffffffffff8214156118f4576118f36118ff565b5b600182019050919050565b7f4e487b7100000000000000000000000000000000000000000000000000000000600052601160045260246000fd5b7f4e487b7100000000000000000000000000000000000000000000000000000000600052602260045260246000fd5b7f4e487b7100000000000000000000000000000000000000000000000000000000600052604160045260246000fd5b6000601f19601f8301169050919050565b6119a681611806565b81146119b157600080fd5b50565b6119bd81611838565b81146119c857600080fd5b5056fea2646970667358221220d22a24edd264793cfa5db2456366900ac1ca81875c20a0c561701e47f8ae137664736f6c63430008000033",
  "immutableReferences": {},
  "source": "pragma solidity ^0.8.0;\n\n// Note: Smart Contracts\ncontract StructTemi {\n\n    struct Student {\n        uint score;\n        string class;\n        address addr;\n    }\n\n    struct InputStudent {\n        uint score;\n        string class;\n        address addr;\n    }\n\n    // make use of mapping to store the data\n    mapping(address => Student) public students;\n\n    Student[] studentList;\n    string public y;\n    string public greetings;\n\n    function foo(string memory s, Student memory b) public {\n        y = s;\n    }\n\n    // method 1 to input data using each elements of the structs\n    function addStudent(uint _score, string memory _class,address _addr) public {\n        Student memory student =Student({score: _score, class: _class, addr: _addr});\n        students[_addr] = student;\n    }\n\n    // method 2 to input data using struct variable to pass data to structs\n    /* an object parameter which from it a new struct value was stored*/\n    function addStudentStructArrData(InputStudent[] memory _inputStudent) public {\n        /* in the ide to enter value makes use of [{\"score\": 5}] or\n        [[5]]\n        [[10, \"ss1\", \"0xDf4D56b47C5d1223f5FAbB49089e8AF7De418C24\"]]. or\n        */\n        // address adPass = _inputStudent[0].addr;\n        Student memory stud = Student({score: _inputStudent[0].score, class: _inputStudent[0].class, addr: _inputStudent[0].addr});\n        address adPass = _inputStudent[0].addr;\n        students[adPass] = stud;\n    }\n\n    function addStudentStructArr(InputStudent[] memory _inputStudent) public view returns(uint) {\n        // in the ide to enter value makes use of [{\"score\": 5}]\n        uint score =_inputStudent[0].score;\n        return score;\n    }\n\n    /*  to call it on web through the use of metamask & etherjs npm\n        const val = [100, \"ss2\", \"0x424e4a2AD3A92cE9B4B617155dB224EF34a53410\"];\n        const update = await structTokenContract.addStudentStructSingle(val);\n     */\n    function addStudentStructSingle(InputStudent memory _inputStudent) public view returns(uint) {\n        // in the ide to enter value makes use of [{\"score\": 5}]\n        uint score =_inputStudent.score;\n        return score;\n    }\n\n    /*  to call it on web through the use of metamask & etherjs npm\n        const val = [300, \"ss2\", \"0x424e4a2AD3A92cE9B4B617155dB224EF34a53410\"];\n        const text = \"Hello\";\n                            OR\n        const val = { \"score\": 400, class: \"ss2\", \"addr\": \"0x424e4a2AD3A92cE9B4B617155dB224EF34a53410\" };\n        const text = \"Hello\";\n         const update = await structTokenContract.addStudentStructSingText(text, val);\n     */\n    function addStudentStructSingText(string memory _greetings,InputStudent memory _inputStudent) public view returns(uint) {\n        // in the ide to enter value makes use of [{\"score\": 5}]\n       string memory greet = _greetings;\n        uint score =_inputStudent.score;\n        return score;\n    }\n\n    /*  to call it on web through the use of metamask & etherjs npm\n        const val = [[700, \"ss2\", \"0x424e4a2AD3A92cE9B4B617155dB224EF34a53410\"]];\n        const text = \"Hello\";\n                        OR\n        using object\n        const val = [{ \"score\": 750, \"class\": \"ss2\", \"addr\": \"0x424e4a2AD3A92cE9B4B617155dB224EF34a53410\" }];\n        const text = \"Hello\";            \n         const update = await structTokenContract.addStudentStructSingText(text, val);\n     */\n    function addStudentStructArrText(string memory _greetings,InputStudent[] memory _inputStudent) public  returns(uint) {\n        // in the ide to enter value makes use of [{\"score\": 5}]\n        greetings = _greetings;\n        uint score =_inputStudent[0].score;\n        return score;\n    }\n\n\n    function getStudent(address _addr) public view returns (Student memory) {\n        return students[_addr];\n    }\n\n    function addStudentArr(uint _score, string memory _class, address _addr) public returns(Student memory) {\n        // in the ide to enter value makes use of [{\"score\": 5}]\n        Student memory _studentList = Student(_score, _class, _addr);\n        studentList.push(_studentList);\n        return _studentList;\n    }\n\n    function getStudentListArr(string memory _class) public view returns(string memory) {\n        uint i=0;\n        string memory result =\"no match\";\n        for(i = 0; i < studentList.length; i++){\n            if((keccak256(abi.encodePacked((studentList[i].class))) == keccak256(abi.encodePacked((_class))))) {\n                result = studentList[i].class;\n                return result;\n            }\n        }\n        return result;\n    }\n\n    // \n    function deleteStudents(address _addr) public  returns(Student memory) {\n        delete students[_addr];\n        return students[_addr];\n    }\n\n\n\n\n\n}\n",
  "sourcePath": "/Users/temitopealabi/Documents/personal/blockchain_training/videos/web3/CryptoInsurance15_demo/contracts/_structText.sol",
  "compiler": {
    "name": "solc",
    "version": "0.8.0+commit.c7dfd78e.Emscripten.clang"
  },
  "schemaVersion": "3.3.4",
  "updatedAt": "2021-05-04T16:12:01.574Z",
  "networkType": "ethereum",
  "devdoc": {
    "kind": "dev",
    "methods": {},
    "version": 1
  },
  "userdoc": {
    "kind": "user",
    "methods": {},
    "version": 1
  }
}