{
  "contractName": "voteNvalidateC",
  "abi": [
    {
      "inputs": [
        {
          "internalType": "address",
          "name": "newValidator",
          "type": "address"
        },
        {
          "internalType": "uint256",
          "name": "value",
          "type": "uint256"
        }
      ],
      "name": "addToCourt",
      "outputs": [],
      "stateMutability": "nonpayable",
      "type": "function"
    },
    {
      "inputs": [
        {
          "internalType": "address",
          "name": "_addr",
          "type": "address"
        },
        {
          "internalType": "string",
          "name": "appId",
          "type": "string"
        }
      ],
      "name": "deleteValidator",
      "outputs": [
        {
          "internalType": "bool",
          "name": "",
          "type": "bool"
        }
      ],
      "stateMutability": "nonpayable",
      "type": "function"
    },
    {
      "inputs": [],
      "name": "getNumOfValidators",
      "outputs": [
        {
          "internalType": "uint256",
          "name": "",
          "type": "uint256"
        }
      ],
      "stateMutability": "view",
      "type": "function"
    },
    {
      "inputs": [
        {
          "internalType": "address",
          "name": "_addr",
          "type": "address"
        },
        {
          "internalType": "string",
          "name": "appId",
          "type": "string"
        }
      ],
      "name": "getValidator",
      "outputs": [
        {
          "internalType": "uint256",
          "name": "",
          "type": "uint256"
        }
      ],
      "stateMutability": "view",
      "type": "function"
    },
    {
      "inputs": [
        {
          "internalType": "string",
          "name": "appId",
          "type": "string"
        },
        {
          "internalType": "uint256",
          "name": "decision",
          "type": "uint256"
        },
        {
          "internalType": "uint256",
          "name": "approveCount",
          "type": "uint256"
        },
        {
          "internalType": "uint256",
          "name": "denyCount",
          "type": "uint256"
        }
      ],
      "name": "inspect",
      "outputs": [
        {
          "internalType": "uint256[3]",
          "name": "",
          "type": "uint256[3]"
        }
      ],
      "stateMutability": "nonpayable",
      "type": "function"
    },
    {
      "inputs": [
        {
          "internalType": "address",
          "name": "policyAddress",
          "type": "address"
        },
        {
          "internalType": "uint256",
          "name": "decision",
          "type": "uint256"
        },
        {
          "internalType": "uint256",
          "name": "approveCount",
          "type": "uint256"
        },
        {
          "internalType": "uint256",
          "name": "denyCount",
          "type": "uint256"
        }
      ],
      "name": "inspectClaimRequest",
      "outputs": [
        {
          "internalType": "uint256[3]",
          "name": "",
          "type": "uint256[3]"
        }
      ],
      "stateMutability": "nonpayable",
      "type": "function"
    },
    {
      "inputs": [],
      "name": "numOfValidators",
      "outputs": [
        {
          "internalType": "uint256",
          "name": "",
          "type": "uint256"
        }
      ],
      "stateMutability": "view",
      "type": "function"
    },
    {
      "inputs": [
        {
          "internalType": "address",
          "name": "",
          "type": "address"
        },
        {
          "internalType": "string",
          "name": "",
          "type": "string"
        }
      ],
      "name": "validationRegister",
      "outputs": [
        {
          "internalType": "uint256",
          "name": "",
          "type": "uint256"
        }
      ],
      "stateMutability": "view",
      "type": "function"
    },
    {
      "inputs": [
        {
          "internalType": "address",
          "name": "",
          "type": "address"
        }
      ],
      "name": "validators",
      "outputs": [
        {
          "internalType": "uint256",
          "name": "",
          "type": "uint256"
        }
      ],
      "stateMutability": "view",
      "type": "function"
    },
    {
      "inputs": [],
      "name": "vote",
      "outputs": [],
      "stateMutability": "nonpayable",
      "type": "function"
    }
  ],
  "bytecode": "0x608060405234801561001057600080fd5b50610e9c806100206000396000f3fe608060405234801561001057600080fd5b506004361061009e5760003560e01c8063a8f4eb1811610066578063a8f4eb181461015b578063cf353ca41461018b578063dcf29345146101a9578063dec66ecf146101d9578063fa52c7d8146101f55761009e565b8063061f5ffe146100a35780630cef66ce146100d35780631e526e4514610103578063632a9a52146101215780637d0e593c1461012b575b600080fd5b6100bd60048036038101906100b8919061096a565b610225565b6040516100ca9190610bd7565b60405180910390f35b6100ed60048036038101906100e891906109fa565b610290565b6040516100fa9190610bbc565b60405180910390f35b61010b610451565b6040516101189190610bf2565b60405180910390f35b610129610457565b005b61014560048036038101906101409190610a5d565b610459565b6040516101529190610bbc565b60405180910390f35b6101756004803603810190610170919061096a565b610756565b6040516101829190610bf2565b60405180910390f35b6101936107bc565b6040516101a09190610bf2565b60405180910390f35b6101c360048036038101906101be919061096a565b6107c5565b6040516101d09190610bf2565b60405180910390f35b6101f360048036038101906101ee91906109be565b610800565b005b61020f600480360381019061020a9190610941565b61085f565b60405161021c9190610bf2565b60405180910390f35b6000600260008473ffffffffffffffffffffffffffffffffffffffff1673ffffffffffffffffffffffffffffffffffffffff168152602001908152602001600020826040516102749190610ba5565b9081526020016040518091039020600090556001905092915050565b61029861088d565b6000600160003373ffffffffffffffffffffffffffffffffffffffff1673ffffffffffffffffffffffffffffffffffffffff16815260200190815260200160002054116102e457600080fd5b6000546102f18484610877565b106102fb57600080fd5b600484141561031757828061030f90610d91565b935050610330565b600284141561032f57818061032b90610d91565b9250505b5b6000805461033e8585610877565b14801561034b5750828414155b156103705782841115610361576004905061036f565b8284101561036e57600290505b5b5b61037861088d565b84816000600381106103b3577f4e487b7100000000000000000000000000000000000000000000000000000000600052603260045260246000fd5b60200201818152505083816001600381106103f7577f4e487b7100000000000000000000000000000000000000000000000000000000600052603260045260246000fd5b602002018181525050818160026003811061043b577f4e487b7100000000000000000000000000000000000000000000000000000000600052603260045260246000fd5b6020020181815250508092505050949350505050565b60005481565b565b61046161088d565b6000600160003373ffffffffffffffffffffffffffffffffffffffff1673ffffffffffffffffffffffffffffffffffffffff16815260200190815260200160002054116104ad57600080fd5b6000546104ba8484610877565b106104c457600080fd5b6000600260003373ffffffffffffffffffffffffffffffffffffffff1673ffffffffffffffffffffffffffffffffffffffff168152602001908152602001600020866040516105139190610ba5565b9081526020016040518091039020549050600481141580610535575060028114155b61053e57600080fd5b60048514156105bb57838061055290610d91565b9450506004600260003373ffffffffffffffffffffffffffffffffffffffff1673ffffffffffffffffffffffffffffffffffffffff168152602001908152602001600020876040516105a49190610ba5565b908152602001604051809103902081905550610634565b60028514156106335782806105cf90610d91565b93505060028060003373ffffffffffffffffffffffffffffffffffffffff1673ffffffffffffffffffffffffffffffffffffffff168152602001908152602001600020876040516106209190610ba5565b9081526020016040518091039020819055505b5b600080546106428686610877565b14801561064f5750838514155b1561067457838511156106655760049050610673565b8385101561067257600290505b5b5b61067c61088d565b85816000600381106106b7577f4e487b7100000000000000000000000000000000000000000000000000000000600052603260045260246000fd5b60200201818152505084816001600381106106fb577f4e487b7100000000000000000000000000000000000000000000000000000000600052603260045260246000fd5b602002018181525050818160026003811061073f577f4e487b7100000000000000000000000000000000000000000000000000000000600052603260045260246000fd5b602002018181525050809350505050949350505050565b6000600260008473ffffffffffffffffffffffffffffffffffffffff1673ffffffffffffffffffffffffffffffffffffffff168152602001908152602001600020826040516107a59190610ba5565b908152602001604051809103902054905092915050565b60008054905090565b600260205281600052604060002081805160208101820180518482526020830160208501208183528095505050505050600091509150505481565b80600160008473ffffffffffffffffffffffffffffffffffffffff1673ffffffffffffffffffffffffffffffffffffffff1681526020019081526020016000208190555060008081548092919061085690610d91565b91905055505050565b60016020528060005260406000206000915090505481565b600081836108859190610cb1565b905092915050565b6040518060600160405280600390602082028036833780820191505090505090565b60006108c26108bd84610c3e565b610c0d565b9050828152602081018484840111156108da57600080fd5b6108e5848285610d4f565b509392505050565b6000813590506108fc81610e38565b92915050565b600082601f83011261091357600080fd5b81356109238482602086016108af565b91505092915050565b60008135905061093b81610e4f565b92915050565b60006020828403121561095357600080fd5b6000610961848285016108ed565b91505092915050565b6000806040838503121561097d57600080fd5b600061098b858286016108ed565b925050602083013567ffffffffffffffff8111156109a857600080fd5b6109b485828601610902565b9150509250929050565b600080604083850312156109d157600080fd5b60006109df858286016108ed565b92505060206109f08582860161092c565b9150509250929050565b60008060008060808587031215610a1057600080fd5b6000610a1e878288016108ed565b9450506020610a2f8782880161092c565b9350506040610a408782880161092c565b9250506060610a518782880161092c565b91505092959194509250565b60008060008060808587031215610a7357600080fd5b600085013567ffffffffffffffff811115610a8d57600080fd5b610a9987828801610902565b9450506020610aaa8782880161092c565b9350506040610abb8782880161092c565b9250506060610acc8782880161092c565b91505092959194509250565b6000610ae48383610b87565b60208301905092915050565b610af981610c78565b610b038184610c9b565b9250610b0e82610c6e565b8060005b83811015610b3f578151610b268782610ad8565b9650610b3183610c8e565b925050600181019050610b12565b505050505050565b610b5081610d19565b82525050565b6000610b6182610c83565b610b6b8185610ca6565b9350610b7b818560208601610d5e565b80840191505092915050565b610b9081610d45565b82525050565b610b9f81610d45565b82525050565b6000610bb18284610b56565b915081905092915050565b6000606082019050610bd16000830184610af0565b92915050565b6000602082019050610bec6000830184610b47565b92915050565b6000602082019050610c076000830184610b96565b92915050565b6000604051905081810181811067ffffffffffffffff82111715610c3457610c33610e09565b5b8060405250919050565b600067ffffffffffffffff821115610c5957610c58610e09565b5b601f19601f8301169050602081019050919050565b6000819050919050565b600060039050919050565b600081519050919050565b6000602082019050919050565b600081905092915050565b600081905092915050565b6000610cbc82610d45565b9150610cc783610d45565b9250827fffffffffffffffffffffffffffffffffffffffffffffffffffffffffffffffff03821115610cfc57610cfb610dda565b5b828201905092915050565b6000610d1282610d25565b9050919050565b60008115159050919050565b600073ffffffffffffffffffffffffffffffffffffffff82169050919050565b6000819050919050565b82818337600083830152505050565b60005b83811015610d7c578082015181840152602081019050610d61565b83811115610d8b576000848401525b50505050565b6000610d9c82610d45565b91507fffffffffffffffffffffffffffffffffffffffffffffffffffffffffffffffff821415610dcf57610dce610dda565b5b600182019050919050565b7f4e487b7100000000000000000000000000000000000000000000000000000000600052601160045260246000fd5b7f4e487b7100000000000000000000000000000000000000000000000000000000600052604160045260246000fd5b610e4181610d07565b8114610e4c57600080fd5b50565b610e5881610d45565b8114610e6357600080fd5b5056fea2646970667358221220e443af50c80d9f955f0122228e7a7b3a1b2612b9f13eec0a995e4639ee26dcd364736f6c63430008000033",
  "immutableReferences": {},
  "source": "pragma solidity ^0.8.0;\n\ncontract voteNvalidateC{\n    uint public numOfValidators; \n    mapping(address=>uint)public validators; //Hashurance token holder addresses and validator's reputation.\n    mapping(address=>mapping(string=>uint)) public validationRegister; //Used to avoid a prevent a validator from validating more than once.\n    // ClaimApplications[] claim applications\n    \n    function getTotalValidations(uint appr, uint deny)private pure returns(uint){\n        return appr + deny;\n    }\n\n    function inspect(\n        string memory appId, \n        uint decision, \n        uint approveCount, \n        uint denyCount) public returns(uint[3] memory){\n        require(validators[msg.sender] > 0); //Makes sure only validators can inspect (i.e rank > 0).\n        require(getTotalValidations(approveCount, denyCount) < numOfValidators); //Checks if the form is still open for validations. Might promote to modifier. \n        \n        //Check if msg.sender has applied before.\n        uint preDecision = validationRegister[msg.sender][appId];\n        require(preDecision != 4 || preDecision != 2); //Hasnt inspected before.\n        \n        //Inspection\n        if(decision == 4){ //Approve.\n          approveCount++;\n          validationRegister[msg.sender][appId] = 4; // 1 = true\n        }else if(decision == 2){ //Reject.\n          denyCount++;\n          validationRegister[msg.sender][appId] = 2; // 2 = false\n        }\n\n        //Makes final decision.\n        uint finalDeci = 0;\n        if(getTotalValidations(approveCount, denyCount) == numOfValidators && approveCount != denyCount){ //If All validators has inspected and the results arent equal.\n          //Judge\n          if(approveCount > denyCount){ //Approval.\n              finalDeci = 4;\n            }else if(approveCount < denyCount){ //Rejection.\n              finalDeci = 2;\n            }\n        }\n        //Update return values.\n        uint[3] memory report;\n        report[0] = approveCount;\n        report[1] = denyCount;\n        report[2] = finalDeci;\n        return report;\n    }\n\n    function inspectClaimRequest(\n        address policyAddress, \n        uint decision, \n        uint approveCount, \n        uint denyCount) public returns(uint[3] memory){\n        require(validators[msg.sender] > 0); //Makes sure only validators can inspect (i.e rank > 0).\n        require(getTotalValidations(approveCount, denyCount) < numOfValidators); //Checks if the form is still open for validations. Might promote to modifier. \n        \n        //Check if msg.sender has applied before.\n\n        //Inspection\n        if(decision == 4){ //Approve.\n          approveCount++;\n          //validationRegister[msg.sender][appId] = 4; // 1 = true\n        }else if(decision == 2){ //Reject.\n          denyCount++;\n          //validationRegister[msg.sender][appId] = 2; // 2 = false\n        }\n\n        //Makes final decision.\n        uint finalDeci = 0;\n        if(getTotalValidations(approveCount, denyCount) == numOfValidators && approveCount != denyCount){ //If All validators has inspected and the results arent equal.\n          //Judge\n          if(approveCount > denyCount){ //Approval.\n              finalDeci = 4;\n            }else if(approveCount < denyCount){ //Rejection.\n              finalDeci = 2;\n            }\n        }\n        //Update return values.\n        uint[3] memory report;\n        report[0] = approveCount;\n        report[1] = denyCount;\n        report[2] = finalDeci;\n        return report;\n    }\n\n\n    //Adds a new validator to the validators hub.\n    function addToCourt(address newValidator, uint value) public{\n        //Validator's reputation = (Number of good inspection * 1000000) + Hashurance token balance. \n        //Number of good inspection = 0, for new applicants.\n        validators[newValidator] = value; //value \n        numOfValidators++;\n    }\n\n    function vote() public{\n\n    }\n\n    \n    function deleteValidator(address _addr, string memory appId) public  returns(bool) {\n        delete validationRegister[_addr][appId];\n        return true;\n    }\n\n    function getValidator(address _addr, string memory appId) public view returns(uint) {\n        return validationRegister[_addr][appId];\n    }\n\n    function getNumOfValidators() public  returns(uint) {\n        return numOfValidators;\n    }\n}",
  "sourcePath": "/Users/temitopealabi/Documents/personal/blockchain_training/videos/web3/CryptoInsurance15_demo/contracts/_validators_hub.sol",
  "compiler": {
    "name": "solc",
    "version": "0.8.0+commit.c7dfd78e.Emscripten.clang"
  },
  "schemaVersion": "3.3.4",
  "updatedAt": "2021-05-21T15:29:14.532Z",
  "devdoc": {
    "kind": "dev",
    "methods": {},
    "version": 1
  },
  "userdoc": {
    "kind": "user",
    "methods": {},
    "version": 1
  }
}