{
  "contractName": "voteNvalidateC",
  "abi": [
    {
      "inputs": [],
      "name": "numOfValidators",
      "outputs": [
        {
          "internalType": "uint256",
          "name": "",
          "type": "uint256"
        }
      ],
      "stateMutability": "view",
      "type": "function"
    },
    {
      "inputs": [
        {
          "internalType": "address",
          "name": "",
          "type": "address"
        },
        {
          "internalType": "string",
          "name": "",
          "type": "string"
        }
      ],
      "name": "validationRegister",
      "outputs": [
        {
          "internalType": "uint256",
          "name": "",
          "type": "uint256"
        }
      ],
      "stateMutability": "view",
      "type": "function"
    },
    {
      "inputs": [
        {
          "internalType": "address",
          "name": "",
          "type": "address"
        }
      ],
      "name": "validators",
      "outputs": [
        {
          "internalType": "uint256",
          "name": "",
          "type": "uint256"
        }
      ],
      "stateMutability": "view",
      "type": "function"
    },
    {
      "inputs": [
        {
          "internalType": "string",
          "name": "appId",
          "type": "string"
        },
        {
          "internalType": "uint256",
          "name": "decision",
          "type": "uint256"
        },
        {
          "internalType": "uint256",
          "name": "approveCount",
          "type": "uint256"
        },
        {
          "internalType": "uint256",
          "name": "denyCount",
          "type": "uint256"
        }
      ],
      "name": "inspect",
      "outputs": [
        {
          "internalType": "uint256[3]",
          "name": "",
          "type": "uint256[3]"
        }
      ],
      "stateMutability": "nonpayable",
      "type": "function"
    },
    {
      "inputs": [
        {
          "internalType": "address",
          "name": "policyAddress",
          "type": "address"
        },
        {
          "internalType": "uint256",
          "name": "decision",
          "type": "uint256"
        },
        {
          "internalType": "uint256",
          "name": "approveCount",
          "type": "uint256"
        },
        {
          "internalType": "uint256",
          "name": "denyCount",
          "type": "uint256"
        }
      ],
      "name": "inspectClaimRequest",
      "outputs": [
        {
          "internalType": "uint256[3]",
          "name": "",
          "type": "uint256[3]"
        }
      ],
      "stateMutability": "nonpayable",
      "type": "function"
    },
    {
      "inputs": [
        {
          "internalType": "address",
          "name": "newValidator",
          "type": "address"
        },
        {
          "internalType": "uint256",
          "name": "value",
          "type": "uint256"
        }
      ],
      "name": "addToCourt",
      "outputs": [],
      "stateMutability": "nonpayable",
      "type": "function"
    },
    {
      "inputs": [],
      "name": "vote",
      "outputs": [],
      "stateMutability": "nonpayable",
      "type": "function"
    },
    {
      "inputs": [
        {
          "internalType": "address",
          "name": "_addr",
          "type": "address"
        },
        {
          "internalType": "string",
          "name": "appId",
          "type": "string"
        }
      ],
      "name": "deleteValidator",
      "outputs": [
        {
          "internalType": "bool",
          "name": "",
          "type": "bool"
        }
      ],
      "stateMutability": "nonpayable",
      "type": "function"
    },
    {
      "inputs": [
        {
          "internalType": "address",
          "name": "_addr",
          "type": "address"
        },
        {
          "internalType": "string",
          "name": "appId",
          "type": "string"
        }
      ],
      "name": "getValidator",
      "outputs": [
        {
          "internalType": "uint256",
          "name": "",
          "type": "uint256"
        }
      ],
      "stateMutability": "view",
      "type": "function"
    }
  ],
  "bytecode": "0x608060405234801561001057600080fd5b50610e6a806100206000396000f3fe608060405234801561001057600080fd5b50600436106100935760003560e01c80637d0e593c116100665780637d0e593c14610120578063a8f4eb1814610150578063dcf2934514610180578063dec66ecf146101b0578063fa52c7d8146101cc57610093565b8063061f5ffe146100985780630cef66ce146100c85780631e526e45146100f8578063632a9a5214610116575b600080fd5b6100b260048036038101906100ad9190610938565b6101fc565b6040516100bf9190610ba5565b60405180910390f35b6100e260048036038101906100dd91906109c8565b610267565b6040516100ef9190610b8a565b60405180910390f35b610100610428565b60405161010d9190610bc0565b60405180910390f35b61011e61042e565b005b61013a60048036038101906101359190610a2b565b610430565b6040516101479190610b8a565b60405180910390f35b61016a60048036038101906101659190610938565b61072d565b6040516101779190610bc0565b60405180910390f35b61019a60048036038101906101959190610938565b610793565b6040516101a79190610bc0565b60405180910390f35b6101ca60048036038101906101c5919061098c565b6107ce565b005b6101e660048036038101906101e1919061090f565b61082d565b6040516101f39190610bc0565b60405180910390f35b6000600260008473ffffffffffffffffffffffffffffffffffffffff1673ffffffffffffffffffffffffffffffffffffffff1681526020019081526020016000208260405161024b9190610b73565b9081526020016040518091039020600090556001905092915050565b61026f61085b565b6000600160003373ffffffffffffffffffffffffffffffffffffffff1673ffffffffffffffffffffffffffffffffffffffff16815260200190815260200160002054116102bb57600080fd5b6000546102c88484610845565b106102d257600080fd5b60048414156102ee5782806102e690610d5f565b935050610307565b600284141561030657818061030290610d5f565b9250505b5b600080546103158585610845565b1480156103225750828414155b1561034757828411156103385760049050610346565b8284101561034557600290505b5b5b61034f61085b565b848160006003811061038a577f4e487b7100000000000000000000000000000000000000000000000000000000600052603260045260246000fd5b60200201818152505083816001600381106103ce577f4e487b7100000000000000000000000000000000000000000000000000000000600052603260045260246000fd5b6020020181815250508181600260038110610412577f4e487b7100000000000000000000000000000000000000000000000000000000600052603260045260246000fd5b6020020181815250508092505050949350505050565b60005481565b565b61043861085b565b6000600160003373ffffffffffffffffffffffffffffffffffffffff1673ffffffffffffffffffffffffffffffffffffffff168152602001908152602001600020541161048457600080fd5b6000546104918484610845565b1061049b57600080fd5b6000600260003373ffffffffffffffffffffffffffffffffffffffff1673ffffffffffffffffffffffffffffffffffffffff168152602001908152602001600020866040516104ea9190610b73565b908152602001604051809103902054905060048114158061050c575060028114155b61051557600080fd5b600485141561059257838061052990610d5f565b9450506004600260003373ffffffffffffffffffffffffffffffffffffffff1673ffffffffffffffffffffffffffffffffffffffff1681526020019081526020016000208760405161057b9190610b73565b90815260200160405180910390208190555061060b565b600285141561060a5782806105a690610d5f565b93505060028060003373ffffffffffffffffffffffffffffffffffffffff1673ffffffffffffffffffffffffffffffffffffffff168152602001908152602001600020876040516105f79190610b73565b9081526020016040518091039020819055505b5b600080546106198686610845565b1480156106265750838514155b1561064b578385111561063c576004905061064a565b8385101561064957600290505b5b5b61065361085b565b858160006003811061068e577f4e487b7100000000000000000000000000000000000000000000000000000000600052603260045260246000fd5b60200201818152505084816001600381106106d2577f4e487b7100000000000000000000000000000000000000000000000000000000600052603260045260246000fd5b6020020181815250508181600260038110610716577f4e487b7100000000000000000000000000000000000000000000000000000000600052603260045260246000fd5b602002018181525050809350505050949350505050565b6000600260008473ffffffffffffffffffffffffffffffffffffffff1673ffffffffffffffffffffffffffffffffffffffff1681526020019081526020016000208260405161077c9190610b73565b908152602001604051809103902054905092915050565b600260205281600052604060002081805160208101820180518482526020830160208501208183528095505050505050600091509150505481565b80600160008473ffffffffffffffffffffffffffffffffffffffff1673ffffffffffffffffffffffffffffffffffffffff1681526020019081526020016000208190555060008081548092919061082490610d5f565b91905055505050565b60016020528060005260406000206000915090505481565b600081836108539190610c7f565b905092915050565b6040518060600160405280600390602082028036833780820191505090505090565b600061089061088b84610c0c565b610bdb565b9050828152602081018484840111156108a857600080fd5b6108b3848285610d1d565b509392505050565b6000813590506108ca81610e06565b92915050565b600082601f8301126108e157600080fd5b81356108f184826020860161087d565b91505092915050565b60008135905061090981610e1d565b92915050565b60006020828403121561092157600080fd5b600061092f848285016108bb565b91505092915050565b6000806040838503121561094b57600080fd5b6000610959858286016108bb565b925050602083013567ffffffffffffffff81111561097657600080fd5b610982858286016108d0565b9150509250929050565b6000806040838503121561099f57600080fd5b60006109ad858286016108bb565b92505060206109be858286016108fa565b9150509250929050565b600080600080608085870312156109de57600080fd5b60006109ec878288016108bb565b94505060206109fd878288016108fa565b9350506040610a0e878288016108fa565b9250506060610a1f878288016108fa565b91505092959194509250565b60008060008060808587031215610a4157600080fd5b600085013567ffffffffffffffff811115610a5b57600080fd5b610a67878288016108d0565b9450506020610a78878288016108fa565b9350506040610a89878288016108fa565b9250506060610a9a878288016108fa565b91505092959194509250565b6000610ab28383610b55565b60208301905092915050565b610ac781610c46565b610ad18184610c69565b9250610adc82610c3c565b8060005b83811015610b0d578151610af48782610aa6565b9650610aff83610c5c565b925050600181019050610ae0565b505050505050565b610b1e81610ce7565b82525050565b6000610b2f82610c51565b610b398185610c74565b9350610b49818560208601610d2c565b80840191505092915050565b610b5e81610d13565b82525050565b610b6d81610d13565b82525050565b6000610b7f8284610b24565b915081905092915050565b6000606082019050610b9f6000830184610abe565b92915050565b6000602082019050610bba6000830184610b15565b92915050565b6000602082019050610bd56000830184610b64565b92915050565b6000604051905081810181811067ffffffffffffffff82111715610c0257610c01610dd7565b5b8060405250919050565b600067ffffffffffffffff821115610c2757610c26610dd7565b5b601f19601f8301169050602081019050919050565b6000819050919050565b600060039050919050565b600081519050919050565b6000602082019050919050565b600081905092915050565b600081905092915050565b6000610c8a82610d13565b9150610c9583610d13565b9250827fffffffffffffffffffffffffffffffffffffffffffffffffffffffffffffffff03821115610cca57610cc9610da8565b5b828201905092915050565b6000610ce082610cf3565b9050919050565b60008115159050919050565b600073ffffffffffffffffffffffffffffffffffffffff82169050919050565b6000819050919050565b82818337600083830152505050565b60005b83811015610d4a578082015181840152602081019050610d2f565b83811115610d59576000848401525b50505050565b6000610d6a82610d13565b91507fffffffffffffffffffffffffffffffffffffffffffffffffffffffffffffffff821415610d9d57610d9c610da8565b5b600182019050919050565b7f4e487b7100000000000000000000000000000000000000000000000000000000600052601160045260246000fd5b7f4e487b7100000000000000000000000000000000000000000000000000000000600052604160045260246000fd5b610e0f81610cd5565b8114610e1a57600080fd5b50565b610e2681610d13565b8114610e3157600080fd5b5056fea2646970667358221220a2a94b567e935c253fe8f13bc47a3f2fed0829d997b20f2db2721e628a41014164736f6c63430008000033",
  "immutableReferences": {},
  "source": "pragma solidity ^0.8.0;\n\ncontract voteNvalidateC{\n    uint public numOfValidators; \n    mapping(address=>uint)public validators; //Hashurance token holder addresses and validator's reputation.\n    mapping(address=>mapping(string=>uint)) public validationRegister; //Used to avoid a prevent a validator from validating more than once.\n    // ClaimApplications[] claim applications\n    \n    function getTotalValidations(uint appr, uint deny)private pure returns(uint){\n        return appr + deny;\n    }\n\n    function inspect(\n        string memory appId, \n        uint decision, \n        uint approveCount, \n        uint denyCount) public returns(uint[3] memory){\n        require(validators[msg.sender] > 0); //Makes sure only validators can inspect (i.e rank > 0).\n        require(getTotalValidations(approveCount, denyCount) < numOfValidators); //Checks if the form is still open for validations. Might promote to modifier. \n        \n        //Check if msg.sender has applied before.\n        uint preDecision = validationRegister[msg.sender][appId];\n        require(preDecision != 4 || preDecision != 2); //Hasnt inspected before.\n        \n        //Inspection\n        if(decision == 4){ //Approve.\n          approveCount++;\n          validationRegister[msg.sender][appId] = 4; // 1 = true\n        }else if(decision == 2){ //Reject.\n          denyCount++;\n          validationRegister[msg.sender][appId] = 2; // 2 = false\n        }\n\n        //Makes final decision.\n        uint finalDeci = 0;\n        if(getTotalValidations(approveCount, denyCount) == numOfValidators && approveCount != denyCount){ //If All validators has inspected and the results arent equal.\n          //Judge\n          if(approveCount > denyCount){ //Approval.\n              finalDeci = 4;\n            }else if(approveCount < denyCount){ //Rejection.\n              finalDeci = 2;\n            }\n        }\n        //Update return values.\n        uint[3] memory report;\n        report[0] = approveCount;\n        report[1] = denyCount;\n        report[2] = finalDeci;\n        return report;\n    }\n\n    function inspectClaimRequest(\n        address policyAddress, \n        uint decision, \n        uint approveCount, \n        uint denyCount) public returns(uint[3] memory){\n        require(validators[msg.sender] > 0); //Makes sure only validators can inspect (i.e rank > 0).\n        require(getTotalValidations(approveCount, denyCount) < numOfValidators); //Checks if the form is still open for validations. Might promote to modifier. \n        \n        //Check if msg.sender has applied before.\n\n        //Inspection\n        if(decision == 4){ //Approve.\n          approveCount++;\n          //validationRegister[msg.sender][appId] = 4; // 1 = true\n        }else if(decision == 2){ //Reject.\n          denyCount++;\n          //validationRegister[msg.sender][appId] = 2; // 2 = false\n        }\n\n        //Makes final decision.\n        uint finalDeci = 0;\n        if(getTotalValidations(approveCount, denyCount) == numOfValidators && approveCount != denyCount){ //If All validators has inspected and the results arent equal.\n          //Judge\n          if(approveCount > denyCount){ //Approval.\n              finalDeci = 4;\n            }else if(approveCount < denyCount){ //Rejection.\n              finalDeci = 2;\n            }\n        }\n        //Update return values.\n        uint[3] memory report;\n        report[0] = approveCount;\n        report[1] = denyCount;\n        report[2] = finalDeci;\n        return report;\n    }\n\n\n    //Adds a new validator to the validators hub.\n    function addToCourt(address newValidator, uint value)public{\n        //Validator's reputation = (Number of good inspection * 1000000) + Hashurance token balance. \n        //Number of good inspection = 0, for new applicants.\n        validators[newValidator] = value; //value \n        numOfValidators++;\n    }\n\n    function vote() public{\n\n    }\n\n    \n    function deleteValidator(address _addr, string memory appId) public  returns(bool) {\n        delete validationRegister[_addr][appId];\n        return true;\n    }\n\n    function getValidator(address _addr, string memory appId) public view returns(uint) {\n        \n        return validationRegister[_addr][appId];\n    }\n}",
  "sourcePath": "/Users/temitopealabi/Documents/personal/blockchain_training/videos/web3/CryptoInsurance15_demo/contracts/_validators_hub.sol",
  "compiler": {
    "name": "solc",
    "version": "0.8.0+commit.c7dfd78e.Emscripten.clang"
  },
  "schemaVersion": "3.3.4",
  "updatedAt": "2021-05-04T16:10:29.487Z",
  "devdoc": {
    "kind": "dev",
    "methods": {},
    "version": 1
  },
  "userdoc": {
    "kind": "user",
    "methods": {},
    "version": 1
  }
}